{
	"contracts/Token.sol": {
		"AITU_Nurislam": {
			"abi": [
				{
					"inputs": [],
					"stateMutability": "nonpayable",
					"type": "constructor"
				},
				{
					"anonymous": false,
					"inputs": [
						{
							"indexed": true,
							"internalType": "address",
							"name": "owner",
							"type": "address"
						},
						{
							"indexed": true,
							"internalType": "address",
							"name": "spender",
							"type": "address"
						},
						{
							"indexed": false,
							"internalType": "uint256",
							"name": "value",
							"type": "uint256"
						}
					],
					"name": "Approval",
					"type": "event"
				},
				{
					"anonymous": false,
					"inputs": [
						{
							"indexed": true,
							"internalType": "address",
							"name": "from",
							"type": "address"
						},
						{
							"indexed": true,
							"internalType": "address",
							"name": "to",
							"type": "address"
						},
						{
							"indexed": false,
							"internalType": "uint256",
							"name": "value",
							"type": "uint256"
						}
					],
					"name": "Transfer",
					"type": "event"
				},
				{
					"inputs": [
						{
							"internalType": "contract IERC20",
							"name": "token",
							"type": "address"
						},
						{
							"internalType": "address",
							"name": "to",
							"type": "address"
						},
						{
							"internalType": "uint256",
							"name": "amount",
							"type": "uint256"
						}
					],
					"name": "MyTransfer",
					"outputs": [],
					"stateMutability": "nonpayable",
					"type": "function"
				},
				{
					"inputs": [],
					"name": "admin",
					"outputs": [
						{
							"internalType": "address",
							"name": "",
							"type": "address"
						}
					],
					"stateMutability": "view",
					"type": "function"
				},
				{
					"inputs": [
						{
							"internalType": "address",
							"name": "owner",
							"type": "address"
						},
						{
							"internalType": "address",
							"name": "spender",
							"type": "address"
						}
					],
					"name": "allowance",
					"outputs": [
						{
							"internalType": "uint256",
							"name": "",
							"type": "uint256"
						}
					],
					"stateMutability": "view",
					"type": "function"
				},
				{
					"inputs": [
						{
							"internalType": "address",
							"name": "spender",
							"type": "address"
						},
						{
							"internalType": "uint256",
							"name": "amount",
							"type": "uint256"
						}
					],
					"name": "approve",
					"outputs": [
						{
							"internalType": "bool",
							"name": "",
							"type": "bool"
						}
					],
					"stateMutability": "nonpayable",
					"type": "function"
				},
				{
					"inputs": [
						{
							"internalType": "address",
							"name": "account",
							"type": "address"
						}
					],
					"name": "balanceOf",
					"outputs": [
						{
							"internalType": "uint256",
							"name": "",
							"type": "uint256"
						}
					],
					"stateMutability": "view",
					"type": "function"
				},
				{
					"inputs": [
						{
							"internalType": "uint256",
							"name": "amount",
							"type": "uint256"
						}
					],
					"name": "burn",
					"outputs": [],
					"stateMutability": "nonpayable",
					"type": "function"
				},
				{
					"inputs": [],
					"name": "decimals",
					"outputs": [
						{
							"internalType": "uint8",
							"name": "",
							"type": "uint8"
						}
					],
					"stateMutability": "view",
					"type": "function"
				},
				{
					"inputs": [
						{
							"internalType": "address",
							"name": "spender",
							"type": "address"
						},
						{
							"internalType": "uint256",
							"name": "subtractedValue",
							"type": "uint256"
						}
					],
					"name": "decreaseAllowance",
					"outputs": [
						{
							"internalType": "bool",
							"name": "",
							"type": "bool"
						}
					],
					"stateMutability": "nonpayable",
					"type": "function"
				},
				{
					"inputs": [
						{
							"internalType": "address",
							"name": "spender",
							"type": "address"
						},
						{
							"internalType": "uint256",
							"name": "addedValue",
							"type": "uint256"
						}
					],
					"name": "increaseAllowance",
					"outputs": [
						{
							"internalType": "bool",
							"name": "",
							"type": "bool"
						}
					],
					"stateMutability": "nonpayable",
					"type": "function"
				},
				{
					"inputs": [
						{
							"internalType": "address",
							"name": "to",
							"type": "address"
						},
						{
							"internalType": "uint256",
							"name": "amount",
							"type": "uint256"
						}
					],
					"name": "mint",
					"outputs": [],
					"stateMutability": "nonpayable",
					"type": "function"
				},
				{
					"inputs": [],
					"name": "name",
					"outputs": [
						{
							"internalType": "string",
							"name": "",
							"type": "string"
						}
					],
					"stateMutability": "view",
					"type": "function"
				},
				{
					"inputs": [],
					"name": "symbol",
					"outputs": [
						{
							"internalType": "string",
							"name": "",
							"type": "string"
						}
					],
					"stateMutability": "view",
					"type": "function"
				},
				{
					"inputs": [],
					"name": "totalSupply",
					"outputs": [
						{
							"internalType": "uint256",
							"name": "",
							"type": "uint256"
						}
					],
					"stateMutability": "view",
					"type": "function"
				},
				{
					"inputs": [
						{
							"internalType": "address",
							"name": "to",
							"type": "address"
						},
						{
							"internalType": "uint256",
							"name": "amount",
							"type": "uint256"
						}
					],
					"name": "transfer",
					"outputs": [
						{
							"internalType": "bool",
							"name": "",
							"type": "bool"
						}
					],
					"stateMutability": "nonpayable",
					"type": "function"
				},
				{
					"inputs": [
						{
							"internalType": "address",
							"name": "from",
							"type": "address"
						},
						{
							"internalType": "address",
							"name": "to",
							"type": "address"
						},
						{
							"internalType": "uint256",
							"name": "amount",
							"type": "uint256"
						}
					],
					"name": "transferFrom",
					"outputs": [
						{
							"internalType": "bool",
							"name": "",
							"type": "bool"
						}
					],
					"stateMutability": "nonpayable",
					"type": "function"
				}
			],
			"devdoc": {
				"kind": "dev",
				"methods": {
					"allowance(address,address)": {
						"details": "See {IERC20-allowance}."
					},
					"approve(address,uint256)": {
						"details": "See {IERC20-approve}. NOTE: If `amount` is the maximum `uint256`, the allowance is not updated on `transferFrom`. This is semantically equivalent to an infinite approval. Requirements: - `spender` cannot be the zero address."
					},
					"balanceOf(address)": {
						"details": "See {IERC20-balanceOf}."
					},
					"decimals()": {
						"details": "Returns the number of decimals used to get its user representation. For example, if `decimals` equals `2`, a balance of `505` tokens should be displayed to a user as `5.05` (`505 / 10 ** 2`). Tokens usually opt for a value of 18, imitating the relationship between Ether and Wei. This is the value {ERC20} uses, unless this function is overridden; NOTE: This information is only used for _display_ purposes: it in no way affects any of the arithmetic of the contract, including {IERC20-balanceOf} and {IERC20-transfer}."
					},
					"decreaseAllowance(address,uint256)": {
						"details": "Atomically decreases the allowance granted to `spender` by the caller. This is an alternative to {approve} that can be used as a mitigation for problems described in {IERC20-approve}. Emits an {Approval} event indicating the updated allowance. Requirements: - `spender` cannot be the zero address. - `spender` must have allowance for the caller of at least `subtractedValue`."
					},
					"increaseAllowance(address,uint256)": {
						"details": "Atomically increases the allowance granted to `spender` by the caller. This is an alternative to {approve} that can be used as a mitigation for problems described in {IERC20-approve}. Emits an {Approval} event indicating the updated allowance. Requirements: - `spender` cannot be the zero address."
					},
					"name()": {
						"details": "Returns the name of the token."
					},
					"symbol()": {
						"details": "Returns the symbol of the token, usually a shorter version of the name."
					},
					"totalSupply()": {
						"details": "See {IERC20-totalSupply}."
					},
					"transfer(address,uint256)": {
						"details": "See {IERC20-transfer}. Requirements: - `to` cannot be the zero address. - the caller must have a balance of at least `amount`."
					},
					"transferFrom(address,address,uint256)": {
						"details": "See {IERC20-transferFrom}. Emits an {Approval} event indicating the updated allowance. This is not required by the EIP. See the note at the beginning of {ERC20}. NOTE: Does not update the allowance if the current allowance is the maximum `uint256`. Requirements: - `from` and `to` cannot be the zero address. - `from` must have a balance of at least `amount`. - the caller must have allowance for ``from``'s tokens of at least `amount`."
					}
				},
				"version": 1
			},
			"evm": {
				"assembly": "    /* \"contracts/Token.sol\":143:668  contract AITU_Nurislam is ERC20 {... */\n  mstore(0x40, 0x80)\n    /* \"contracts/Token.sol\":207:326  constructor() ERC20('My Token', 'MTN') {... */\n  callvalue\n  dup1\n  iszero\n  tag_1\n  jumpi\n  0x00\n  dup1\n  revert\ntag_1:\n  pop\n    /* \"https://github.com/OpenZeppelin/openzeppelin-contracts/blob/master/contracts/token/ERC20/ERC20.sol\":1976:2089  constructor(string memory name_, string memory symbol_) {... */\n  mload(0x40)\n  dup1\n  0x40\n  add\n  0x40\n  mstore\n  dup1\n  0x08\n  dup2\n  mstore\n  0x20\n  add\n  0x4d7920546f6b656e000000000000000000000000000000000000000000000000\n  dup2\n  mstore\n  pop\n  mload(0x40)\n  dup1\n  0x40\n  add\n  0x40\n  mstore\n  dup1\n  0x03\n  dup2\n  mstore\n  0x20\n  add\n  0x4d544e0000000000000000000000000000000000000000000000000000000000\n  dup2\n  mstore\n  pop\n    /* \"https://github.com/OpenZeppelin/openzeppelin-contracts/blob/master/contracts/token/ERC20/ERC20.sol\":2050:2055  name_ */\n  dup2\n    /* \"https://github.com/OpenZeppelin/openzeppelin-contracts/blob/master/contracts/token/ERC20/ERC20.sol\":2042:2047  _name */\n  0x03\n    /* \"https://github.com/OpenZeppelin/openzeppelin-contracts/blob/master/contracts/token/ERC20/ERC20.sol\":2042:2055  _name = name_ */\n  swap1\n  dup1\n  mload\n  swap1\n  0x20\n  add\n  swap1\n  tag_5\n  swap3\n  swap2\n  swap1\n  tag_6\n  jump\t// in\ntag_5:\n  pop\n    /* \"https://github.com/OpenZeppelin/openzeppelin-contracts/blob/master/contracts/token/ERC20/ERC20.sol\":2075:2082  symbol_ */\n  dup1\n    /* \"https://github.com/OpenZeppelin/openzeppelin-contracts/blob/master/contracts/token/ERC20/ERC20.sol\":2065:2072  _symbol */\n  0x04\n    /* \"https://github.com/OpenZeppelin/openzeppelin-contracts/blob/master/contracts/token/ERC20/ERC20.sol\":2065:2082  _symbol = symbol_ */\n  swap1\n  dup1\n  mload\n  swap1\n  0x20\n  add\n  swap1\n  tag_7\n  swap3\n  swap2\n  swap1\n  tag_6\n  jump\t// in\ntag_7:\n  pop\n    /* \"https://github.com/OpenZeppelin/openzeppelin-contracts/blob/master/contracts/token/ERC20/ERC20.sol\":1976:2089  constructor(string memory name_, string memory symbol_) {... */\n  pop\n  pop\n    /* \"contracts/Token.sol\":256:291  _mint(msg.sender, 10000 * 10 ** 18) */\n  tag_9\n    /* \"contracts/Token.sol\":262:272  msg.sender */\n  caller\n    /* \"contracts/Token.sol\":274:290  10000 * 10 ** 18 */\n  0x021e19e0c9bab2400000\n    /* \"contracts/Token.sol\":256:261  _mint */\n  shl(0x20, tag_10)\n    /* \"contracts/Token.sol\":256:291  _mint(msg.sender, 10000 * 10 ** 18) */\n  0x20\n  shr\n  jump\t// in\ntag_9:\n    /* \"contracts/Token.sol\":309:319  msg.sender */\n  caller\n    /* \"contracts/Token.sol\":301:306  admin */\n  0x05\n  0x00\n    /* \"contracts/Token.sol\":301:319  admin = msg.sender */\n  0x0100\n  exp\n  dup2\n  sload\n  dup2\n  0xffffffffffffffffffffffffffffffffffffffff\n  mul\n  not\n  and\n  swap1\n  dup4\n  0xffffffffffffffffffffffffffffffffffffffff\n  and\n  mul\n  or\n  swap1\n  sstore\n  pop\n    /* \"contracts/Token.sol\":143:668  contract AITU_Nurislam is ERC20 {... */\n  jump(tag_11)\n    /* \"https://github.com/OpenZeppelin/openzeppelin-contracts/blob/master/contracts/token/ERC20/ERC20.sol\":8567:9102  function _mint(address account, uint256 amount) internal virtual {... */\ntag_10:\n    /* \"https://github.com/OpenZeppelin/openzeppelin-contracts/blob/master/contracts/token/ERC20/ERC20.sol\":8669:8670  0 */\n  0x00\n    /* \"https://github.com/OpenZeppelin/openzeppelin-contracts/blob/master/contracts/token/ERC20/ERC20.sol\":8650:8671  account != address(0) */\n  0xffffffffffffffffffffffffffffffffffffffff\n  and\n    /* \"https://github.com/OpenZeppelin/openzeppelin-contracts/blob/master/contracts/token/ERC20/ERC20.sol\":8650:8657  account */\n  dup3\n    /* \"https://github.com/OpenZeppelin/openzeppelin-contracts/blob/master/contracts/token/ERC20/ERC20.sol\":8650:8671  account != address(0) */\n  0xffffffffffffffffffffffffffffffffffffffff\n  and\n  eq\n  iszero\n    /* \"https://github.com/OpenZeppelin/openzeppelin-contracts/blob/master/contracts/token/ERC20/ERC20.sol\":8642:8707  require(account != address(0), \"ERC20: mint to the zero address\") */\n  tag_13\n  jumpi\n  mload(0x40)\n  0x08c379a000000000000000000000000000000000000000000000000000000000\n  dup2\n  mstore\n  0x04\n  add\n  tag_14\n  swap1\n  tag_15\n  jump\t// in\ntag_14:\n  mload(0x40)\n  dup1\n  swap2\n  sub\n  swap1\n  revert\ntag_13:\n    /* \"https://github.com/OpenZeppelin/openzeppelin-contracts/blob/master/contracts/token/ERC20/ERC20.sol\":8718:8767  _beforeTokenTransfer(address(0), account, amount) */\n  tag_16\n    /* \"https://github.com/OpenZeppelin/openzeppelin-contracts/blob/master/contracts/token/ERC20/ERC20.sol\":8747:8748  0 */\n  0x00\n    /* \"https://github.com/OpenZeppelin/openzeppelin-contracts/blob/master/contracts/token/ERC20/ERC20.sol\":8751:8758  account */\n  dup4\n    /* \"https://github.com/OpenZeppelin/openzeppelin-contracts/blob/master/contracts/token/ERC20/ERC20.sol\":8760:8766  amount */\n  dup4\n    /* \"https://github.com/OpenZeppelin/openzeppelin-contracts/blob/master/contracts/token/ERC20/ERC20.sol\":8718:8738  _beforeTokenTransfer */\n  shl(0x20, tag_17)\n    /* \"https://github.com/OpenZeppelin/openzeppelin-contracts/blob/master/contracts/token/ERC20/ERC20.sol\":8718:8767  _beforeTokenTransfer(address(0), account, amount) */\n  0x20\n  shr\n  jump\t// in\ntag_16:\n    /* \"https://github.com/OpenZeppelin/openzeppelin-contracts/blob/master/contracts/token/ERC20/ERC20.sol\":8794:8800  amount */\n  dup1\n    /* \"https://github.com/OpenZeppelin/openzeppelin-contracts/blob/master/contracts/token/ERC20/ERC20.sol\":8778:8790  _totalSupply */\n  0x02\n  0x00\n    /* \"https://github.com/OpenZeppelin/openzeppelin-contracts/blob/master/contracts/token/ERC20/ERC20.sol\":8778:8800  _totalSupply += amount */\n  dup3\n  dup3\n  sload\n  tag_18\n  swap2\n  swap1\n  tag_19\n  jump\t// in\ntag_18:\n  swap3\n  pop\n  pop\n  dup2\n  swap1\n  sstore\n  pop\n    /* \"https://github.com/OpenZeppelin/openzeppelin-contracts/blob/master/contracts/token/ERC20/ERC20.sol\":8968:8974  amount */\n  dup1\n    /* \"https://github.com/OpenZeppelin/openzeppelin-contracts/blob/master/contracts/token/ERC20/ERC20.sol\":8946:8955  _balances */\n  0x00\n    /* \"https://github.com/OpenZeppelin/openzeppelin-contracts/blob/master/contracts/token/ERC20/ERC20.sol\":8946:8964  _balances[account] */\n  dup1\n    /* \"https://github.com/OpenZeppelin/openzeppelin-contracts/blob/master/contracts/token/ERC20/ERC20.sol\":8956:8963  account */\n  dup5\n    /* \"https://github.com/OpenZeppelin/openzeppelin-contracts/blob/master/contracts/token/ERC20/ERC20.sol\":8946:8964  _balances[account] */\n  0xffffffffffffffffffffffffffffffffffffffff\n  and\n  0xffffffffffffffffffffffffffffffffffffffff\n  and\n  dup2\n  mstore\n  0x20\n  add\n  swap1\n  dup2\n  mstore\n  0x20\n  add\n  0x00\n  keccak256\n  0x00\n    /* \"https://github.com/OpenZeppelin/openzeppelin-contracts/blob/master/contracts/token/ERC20/ERC20.sol\":8946:8974  _balances[account] += amount */\n  dup3\n  dup3\n  sload\n  add\n  swap3\n  pop\n  pop\n  dup2\n  swap1\n  sstore\n  pop\n    /* \"https://github.com/OpenZeppelin/openzeppelin-contracts/blob/master/contracts/token/ERC20/ERC20.sol\":9020:9027  account */\n  dup2\n    /* \"https://github.com/OpenZeppelin/openzeppelin-contracts/blob/master/contracts/token/ERC20/ERC20.sol\":8999:9036  Transfer(address(0), account, amount) */\n  0xffffffffffffffffffffffffffffffffffffffff\n  and\n    /* \"https://github.com/OpenZeppelin/openzeppelin-contracts/blob/master/contracts/token/ERC20/ERC20.sol\":9016:9017  0 */\n  0x00\n    /* \"https://github.com/OpenZeppelin/openzeppelin-contracts/blob/master/contracts/token/ERC20/ERC20.sol\":8999:9036  Transfer(address(0), account, amount) */\n  0xffffffffffffffffffffffffffffffffffffffff\n  and\n  0xddf252ad1be2c89b69c2b068fc378daa952ba7f163c4a11628f55a4df523b3ef\n    /* \"https://github.com/OpenZeppelin/openzeppelin-contracts/blob/master/contracts/token/ERC20/ERC20.sol\":9029:9035  amount */\n  dup4\n    /* \"https://github.com/OpenZeppelin/openzeppelin-contracts/blob/master/contracts/token/ERC20/ERC20.sol\":8999:9036  Transfer(address(0), account, amount) */\n  mload(0x40)\n  tag_20\n  swap2\n  swap1\n  tag_21\n  jump\t// in\ntag_20:\n  mload(0x40)\n  dup1\n  swap2\n  sub\n  swap1\n  log3\n    /* \"https://github.com/OpenZeppelin/openzeppelin-contracts/blob/master/contracts/token/ERC20/ERC20.sol\":9047:9095  _afterTokenTransfer(address(0), account, amount) */\n  tag_22\n    /* \"https://github.com/OpenZeppelin/openzeppelin-contracts/blob/master/contracts/token/ERC20/ERC20.sol\":9075:9076  0 */\n  0x00\n    /* \"https://github.com/OpenZeppelin/openzeppelin-contracts/blob/master/contracts/token/ERC20/ERC20.sol\":9079:9086  account */\n  dup4\n    /* \"https://github.com/OpenZeppelin/openzeppelin-contracts/blob/master/contracts/token/ERC20/ERC20.sol\":9088:9094  amount */\n  dup4\n    /* \"https://github.com/OpenZeppelin/openzeppelin-contracts/blob/master/contracts/token/ERC20/ERC20.sol\":9047:9066  _afterTokenTransfer */\n  shl(0x20, tag_23)\n    /* \"https://github.com/OpenZeppelin/openzeppelin-contracts/blob/master/contracts/token/ERC20/ERC20.sol\":9047:9095  _afterTokenTransfer(address(0), account, amount) */\n  0x20\n  shr\n  jump\t// in\ntag_22:\n    /* \"https://github.com/OpenZeppelin/openzeppelin-contracts/blob/master/contracts/token/ERC20/ERC20.sol\":8567:9102  function _mint(address account, uint256 amount) internal virtual {... */\n  pop\n  pop\n  jump\t// out\n    /* \"https://github.com/OpenZeppelin/openzeppelin-contracts/blob/master/contracts/token/ERC20/ERC20.sol\":12180:12301  function _beforeTokenTransfer(... */\ntag_17:\n  pop\n  pop\n  pop\n  jump\t// out\n    /* \"https://github.com/OpenZeppelin/openzeppelin-contracts/blob/master/contracts/token/ERC20/ERC20.sol\":12889:13009  function _afterTokenTransfer(... */\ntag_23:\n  pop\n  pop\n  pop\n  jump\t// out\n    /* \"contracts/Token.sol\":143:668  contract AITU_Nurislam is ERC20 {... */\ntag_6:\n  dup3\n  dup1\n  sload\n  tag_26\n  swap1\n  tag_27\n  jump\t// in\ntag_26:\n  swap1\n  0x00\n  mstore\n  keccak256(0x00, 0x20)\n  swap1\n  0x1f\n  add\n  0x20\n  swap1\n  div\n  dup2\n  add\n  swap3\n  dup3\n  tag_29\n  jumpi\n  0x00\n  dup6\n  sstore\n  jump(tag_28)\ntag_29:\n  dup3\n  0x1f\n  lt\n  tag_30\n  jumpi\n  dup1\n  mload\n  not(0xff)\n  and\n  dup4\n  dup1\n  add\n  or\n  dup6\n  sstore\n  jump(tag_28)\ntag_30:\n  dup3\n  dup1\n  add\n  0x01\n  add\n  dup6\n  sstore\n  dup3\n  iszero\n  tag_28\n  jumpi\n  swap2\n  dup3\n  add\ntag_31:\n  dup3\n  dup2\n  gt\n  iszero\n  tag_32\n  jumpi\n  dup3\n  mload\n  dup3\n  sstore\n  swap2\n  0x20\n  add\n  swap2\n  swap1\n  0x01\n  add\n  swap1\n  jump(tag_31)\ntag_32:\ntag_28:\n  pop\n  swap1\n  pop\n  tag_33\n  swap2\n  swap1\n  tag_34\n  jump\t// in\ntag_33:\n  pop\n  swap1\n  jump\t// out\ntag_34:\ntag_35:\n  dup1\n  dup3\n  gt\n  iszero\n  tag_36\n  jumpi\n  0x00\n  dup2\n  0x00\n  swap1\n  sstore\n  pop\n  0x01\n  add\n  jump(tag_35)\ntag_36:\n  pop\n  swap1\n  jump\t// out\n    /* \"#utility.yul\":7:373   */\ntag_38:\n    /* \"#utility.yul\":149:152   */\n  0x00\n    /* \"#utility.yul\":170:237   */\n  tag_40\n    /* \"#utility.yul\":234:236   */\n  0x1f\n    /* \"#utility.yul\":229:232   */\n  dup4\n    /* \"#utility.yul\":170:237   */\n  tag_41\n  jump\t// in\ntag_40:\n    /* \"#utility.yul\":163:237   */\n  swap2\n  pop\n    /* \"#utility.yul\":246:339   */\n  tag_42\n    /* \"#utility.yul\":335:338   */\n  dup3\n    /* \"#utility.yul\":246:339   */\n  tag_43\n  jump\t// in\ntag_42:\n    /* \"#utility.yul\":364:366   */\n  0x20\n    /* \"#utility.yul\":359:362   */\n  dup3\n    /* \"#utility.yul\":355:367   */\n  add\n    /* \"#utility.yul\":348:367   */\n  swap1\n  pop\n    /* \"#utility.yul\":7:373   */\n  swap2\n  swap1\n  pop\n  jump\t// out\n    /* \"#utility.yul\":379:497   */\ntag_44:\n    /* \"#utility.yul\":466:490   */\n  tag_46\n    /* \"#utility.yul\":484:489   */\n  dup2\n    /* \"#utility.yul\":466:490   */\n  tag_47\n  jump\t// in\ntag_46:\n    /* \"#utility.yul\":461:464   */\n  dup3\n    /* \"#utility.yul\":454:491   */\n  mstore\n    /* \"#utility.yul\":379:497   */\n  pop\n  pop\n  jump\t// out\n    /* \"#utility.yul\":503:922   */\ntag_15:\n    /* \"#utility.yul\":669:673   */\n  0x00\n    /* \"#utility.yul\":707:709   */\n  0x20\n    /* \"#utility.yul\":696:705   */\n  dup3\n    /* \"#utility.yul\":692:710   */\n  add\n    /* \"#utility.yul\":684:710   */\n  swap1\n  pop\n    /* \"#utility.yul\":756:765   */\n  dup2\n    /* \"#utility.yul\":750:754   */\n  dup2\n    /* \"#utility.yul\":746:766   */\n  sub\n    /* \"#utility.yul\":742:743   */\n  0x00\n    /* \"#utility.yul\":731:740   */\n  dup4\n    /* \"#utility.yul\":727:744   */\n  add\n    /* \"#utility.yul\":720:767   */\n  mstore\n    /* \"#utility.yul\":784:915   */\n  tag_49\n    /* \"#utility.yul\":910:914   */\n  dup2\n    /* \"#utility.yul\":784:915   */\n  tag_38\n  jump\t// in\ntag_49:\n    /* \"#utility.yul\":776:915   */\n  swap1\n  pop\n    /* \"#utility.yul\":503:922   */\n  swap2\n  swap1\n  pop\n  jump\t// out\n    /* \"#utility.yul\":928:1150   */\ntag_21:\n    /* \"#utility.yul\":1021:1025   */\n  0x00\n    /* \"#utility.yul\":1059:1061   */\n  0x20\n    /* \"#utility.yul\":1048:1057   */\n  dup3\n    /* \"#utility.yul\":1044:1062   */\n  add\n    /* \"#utility.yul\":1036:1062   */\n  swap1\n  pop\n    /* \"#utility.yul\":1072:1143   */\n  tag_51\n    /* \"#utility.yul\":1140:1141   */\n  0x00\n    /* \"#utility.yul\":1129:1138   */\n  dup4\n    /* \"#utility.yul\":1125:1142   */\n  add\n    /* \"#utility.yul\":1116:1122   */\n  dup5\n    /* \"#utility.yul\":1072:1143   */\n  tag_44\n  jump\t// in\ntag_51:\n    /* \"#utility.yul\":928:1150   */\n  swap3\n  swap2\n  pop\n  pop\n  jump\t// out\n    /* \"#utility.yul\":1156:1325   */\ntag_41:\n    /* \"#utility.yul\":1240:1251   */\n  0x00\n    /* \"#utility.yul\":1274:1280   */\n  dup3\n    /* \"#utility.yul\":1269:1272   */\n  dup3\n    /* \"#utility.yul\":1262:1281   */\n  mstore\n    /* \"#utility.yul\":1314:1318   */\n  0x20\n    /* \"#utility.yul\":1309:1312   */\n  dup3\n    /* \"#utility.yul\":1305:1319   */\n  add\n    /* \"#utility.yul\":1290:1319   */\n  swap1\n  pop\n    /* \"#utility.yul\":1156:1325   */\n  swap3\n  swap2\n  pop\n  pop\n  jump\t// out\n    /* \"#utility.yul\":1331:1636   */\ntag_19:\n    /* \"#utility.yul\":1371:1374   */\n  0x00\n    /* \"#utility.yul\":1390:1410   */\n  tag_54\n    /* \"#utility.yul\":1408:1409   */\n  dup3\n    /* \"#utility.yul\":1390:1410   */\n  tag_47\n  jump\t// in\ntag_54:\n    /* \"#utility.yul\":1385:1410   */\n  swap2\n  pop\n    /* \"#utility.yul\":1424:1444   */\n  tag_55\n    /* \"#utility.yul\":1442:1443   */\n  dup4\n    /* \"#utility.yul\":1424:1444   */\n  tag_47\n  jump\t// in\ntag_55:\n    /* \"#utility.yul\":1419:1444   */\n  swap3\n  pop\n    /* \"#utility.yul\":1578:1579   */\n  dup3\n    /* \"#utility.yul\":1510:1576   */\n  0xffffffffffffffffffffffffffffffffffffffffffffffffffffffffffffffff\n    /* \"#utility.yul\":1506:1580   */\n  sub\n    /* \"#utility.yul\":1503:1504   */\n  dup3\n    /* \"#utility.yul\":1500:1581   */\n  gt\n    /* \"#utility.yul\":1497:1604   */\n  iszero\n  tag_56\n  jumpi\n    /* \"#utility.yul\":1584:1602   */\n  tag_57\n  tag_58\n  jump\t// in\ntag_57:\n    /* \"#utility.yul\":1497:1604   */\ntag_56:\n    /* \"#utility.yul\":1628:1629   */\n  dup3\n    /* \"#utility.yul\":1625:1626   */\n  dup3\n    /* \"#utility.yul\":1621:1630   */\n  add\n    /* \"#utility.yul\":1614:1630   */\n  swap1\n  pop\n    /* \"#utility.yul\":1331:1636   */\n  swap3\n  swap2\n  pop\n  pop\n  jump\t// out\n    /* \"#utility.yul\":1642:1719   */\ntag_47:\n    /* \"#utility.yul\":1679:1686   */\n  0x00\n    /* \"#utility.yul\":1708:1713   */\n  dup2\n    /* \"#utility.yul\":1697:1713   */\n  swap1\n  pop\n    /* \"#utility.yul\":1642:1719   */\n  swap2\n  swap1\n  pop\n  jump\t// out\n    /* \"#utility.yul\":1725:2045   */\ntag_27:\n    /* \"#utility.yul\":1769:1775   */\n  0x00\n    /* \"#utility.yul\":1806:1807   */\n  0x02\n    /* \"#utility.yul\":1800:1804   */\n  dup3\n    /* \"#utility.yul\":1796:1808   */\n  div\n    /* \"#utility.yul\":1786:1808   */\n  swap1\n  pop\n    /* \"#utility.yul\":1853:1854   */\n  0x01\n    /* \"#utility.yul\":1847:1851   */\n  dup3\n    /* \"#utility.yul\":1843:1855   */\n  and\n    /* \"#utility.yul\":1874:1892   */\n  dup1\n    /* \"#utility.yul\":1864:1945   */\n  tag_61\n  jumpi\n    /* \"#utility.yul\":1930:1934   */\n  0x7f\n    /* \"#utility.yul\":1922:1928   */\n  dup3\n    /* \"#utility.yul\":1918:1935   */\n  and\n    /* \"#utility.yul\":1908:1935   */\n  swap2\n  pop\n    /* \"#utility.yul\":1864:1945   */\ntag_61:\n    /* \"#utility.yul\":1992:1994   */\n  0x20\n    /* \"#utility.yul\":1984:1990   */\n  dup3\n    /* \"#utility.yul\":1981:1995   */\n  lt\n    /* \"#utility.yul\":1961:1979   */\n  dup2\n    /* \"#utility.yul\":1958:1996   */\n  eq\n    /* \"#utility.yul\":1955:2039   */\n  iszero\n  tag_62\n  jumpi\n    /* \"#utility.yul\":2011:2029   */\n  tag_63\n  tag_64\n  jump\t// in\ntag_63:\n    /* \"#utility.yul\":1955:2039   */\ntag_62:\n    /* \"#utility.yul\":1776:2045   */\n  pop\n    /* \"#utility.yul\":1725:2045   */\n  swap2\n  swap1\n  pop\n  jump\t// out\n    /* \"#utility.yul\":2051:2231   */\ntag_58:\n    /* \"#utility.yul\":2099:2176   */\n  0x4e487b7100000000000000000000000000000000000000000000000000000000\n    /* \"#utility.yul\":2096:2097   */\n  0x00\n    /* \"#utility.yul\":2089:2177   */\n  mstore\n    /* \"#utility.yul\":2196:2200   */\n  0x11\n    /* \"#utility.yul\":2193:2194   */\n  0x04\n    /* \"#utility.yul\":2186:2201   */\n  mstore\n    /* \"#utility.yul\":2220:2224   */\n  0x24\n    /* \"#utility.yul\":2217:2218   */\n  0x00\n    /* \"#utility.yul\":2210:2225   */\n  revert\n    /* \"#utility.yul\":2237:2417   */\ntag_64:\n    /* \"#utility.yul\":2285:2362   */\n  0x4e487b7100000000000000000000000000000000000000000000000000000000\n    /* \"#utility.yul\":2282:2283   */\n  0x00\n    /* \"#utility.yul\":2275:2363   */\n  mstore\n    /* \"#utility.yul\":2382:2386   */\n  0x22\n    /* \"#utility.yul\":2379:2380   */\n  0x04\n    /* \"#utility.yul\":2372:2387   */\n  mstore\n    /* \"#utility.yul\":2406:2410   */\n  0x24\n    /* \"#utility.yul\":2403:2404   */\n  0x00\n    /* \"#utility.yul\":2396:2411   */\n  revert\n    /* \"#utility.yul\":2423:2604   */\ntag_43:\n    /* \"#utility.yul\":2563:2596   */\n  0x45524332303a206d696e7420746f20746865207a65726f206164647265737300\n    /* \"#utility.yul\":2559:2560   */\n  0x00\n    /* \"#utility.yul\":2551:2557   */\n  dup3\n    /* \"#utility.yul\":2547:2561   */\n  add\n    /* \"#utility.yul\":2540:2597   */\n  mstore\n    /* \"#utility.yul\":2423:2604   */\n  pop\n  jump\t// out\n    /* \"contracts/Token.sol\":143:668  contract AITU_Nurislam is ERC20 {... */\ntag_11:\n  dataSize(sub_0)\n  dup1\n  dataOffset(sub_0)\n  0x00\n  codecopy\n  0x00\n  return\nstop\n\nsub_0: assembly {\n        /* \"contracts/Token.sol\":143:668  contract AITU_Nurislam is ERC20 {... */\n      mstore(0x40, 0x80)\n      callvalue\n      dup1\n      iszero\n      tag_1\n      jumpi\n      0x00\n      dup1\n      revert\n    tag_1:\n      pop\n      jumpi(tag_2, lt(calldatasize, 0x04))\n      shr(0xe0, calldataload(0x00))\n      dup1\n      0x42966c68\n      gt\n      tag_18\n      jumpi\n      dup1\n      0xa457c2d7\n      gt\n      tag_19\n      jumpi\n      dup1\n      0xa457c2d7\n      eq\n      tag_14\n      jumpi\n      dup1\n      0xa9059cbb\n      eq\n      tag_15\n      jumpi\n      dup1\n      0xdd62ed3e\n      eq\n      tag_16\n      jumpi\n      dup1\n      0xf851a440\n      eq\n      tag_17\n      jumpi\n      jump(tag_2)\n    tag_19:\n      dup1\n      0x42966c68\n      eq\n      tag_10\n      jumpi\n      dup1\n      0x70a08231\n      eq\n      tag_11\n      jumpi\n      dup1\n      0x7df4d829\n      eq\n      tag_12\n      jumpi\n      dup1\n      0x95d89b41\n      eq\n      tag_13\n      jumpi\n      jump(tag_2)\n    tag_18:\n      dup1\n      0x23b872dd\n      gt\n      tag_20\n      jumpi\n      dup1\n      0x23b872dd\n      eq\n      tag_6\n      jumpi\n      dup1\n      0x313ce567\n      eq\n      tag_7\n      jumpi\n      dup1\n      0x39509351\n      eq\n      tag_8\n      jumpi\n      dup1\n      0x40c10f19\n      eq\n      tag_9\n      jumpi\n      jump(tag_2)\n    tag_20:\n      dup1\n      0x06fdde03\n      eq\n      tag_3\n      jumpi\n      dup1\n      0x095ea7b3\n      eq\n      tag_4\n      jumpi\n      dup1\n      0x18160ddd\n      eq\n      tag_5\n      jumpi\n    tag_2:\n      0x00\n      dup1\n      revert\n        /* \"https://github.com/OpenZeppelin/openzeppelin-contracts/blob/master/contracts/token/ERC20/ERC20.sol\":2154:2252  function name() public view virtual override returns (string memory) {... */\n    tag_3:\n      tag_21\n      tag_22\n      jump\t// in\n    tag_21:\n      mload(0x40)\n      tag_23\n      swap2\n      swap1\n      tag_24\n      jump\t// in\n    tag_23:\n      mload(0x40)\n      dup1\n      swap2\n      sub\n      swap1\n      return\n        /* \"https://github.com/OpenZeppelin/openzeppelin-contracts/blob/master/contracts/token/ERC20/ERC20.sol\":4431:4628  function approve(address spender, uint256 amount) public virtual override returns (bool) {... */\n    tag_4:\n      tag_25\n      0x04\n      dup1\n      calldatasize\n      sub\n      dup2\n      add\n      swap1\n      tag_26\n      swap2\n      swap1\n      tag_27\n      jump\t// in\n    tag_26:\n      tag_28\n      jump\t// in\n    tag_25:\n      mload(0x40)\n      tag_29\n      swap2\n      swap1\n      tag_30\n      jump\t// in\n    tag_29:\n      mload(0x40)\n      dup1\n      swap2\n      sub\n      swap1\n      return\n        /* \"https://github.com/OpenZeppelin/openzeppelin-contracts/blob/master/contracts/token/ERC20/ERC20.sol\":3242:3348  function totalSupply() public view virtual override returns (uint256) {... */\n    tag_5:\n      tag_31\n      tag_32\n      jump\t// in\n    tag_31:\n      mload(0x40)\n      tag_33\n      swap2\n      swap1\n      tag_34\n      jump\t// in\n    tag_33:\n      mload(0x40)\n      dup1\n      swap2\n      sub\n      swap1\n      return\n        /* \"https://github.com/OpenZeppelin/openzeppelin-contracts/blob/master/contracts/token/ERC20/ERC20.sol\":5190:5476  function transferFrom(... */\n    tag_6:\n      tag_35\n      0x04\n      dup1\n      calldatasize\n      sub\n      dup2\n      add\n      swap1\n      tag_36\n      swap2\n      swap1\n      tag_37\n      jump\t// in\n    tag_36:\n      tag_38\n      jump\t// in\n    tag_35:\n      mload(0x40)\n      tag_39\n      swap2\n      swap1\n      tag_30\n      jump\t// in\n    tag_39:\n      mload(0x40)\n      dup1\n      swap2\n      sub\n      swap1\n      return\n        /* \"https://github.com/OpenZeppelin/openzeppelin-contracts/blob/master/contracts/token/ERC20/ERC20.sol\":3091:3182  function decimals() public view virtual override returns (uint8) {... */\n    tag_7:\n      tag_40\n      tag_41\n      jump\t// in\n    tag_40:\n      mload(0x40)\n      tag_42\n      swap2\n      swap1\n      tag_43\n      jump\t// in\n    tag_42:\n      mload(0x40)\n      dup1\n      swap2\n      sub\n      swap1\n      return\n        /* \"https://github.com/OpenZeppelin/openzeppelin-contracts/blob/master/contracts/token/ERC20/ERC20.sol\":5871:6105  function increaseAllowance(address spender, uint256 addedValue) public virtual returns (bool) {... */\n    tag_8:\n      tag_44\n      0x04\n      dup1\n      calldatasize\n      sub\n      dup2\n      add\n      swap1\n      tag_45\n      swap2\n      swap1\n      tag_27\n      jump\t// in\n    tag_45:\n      tag_46\n      jump\t// in\n    tag_44:\n      mload(0x40)\n      tag_47\n      swap2\n      swap1\n      tag_30\n      jump\t// in\n    tag_47:\n      mload(0x40)\n      dup1\n      swap2\n      sub\n      swap1\n      return\n        /* \"contracts/Token.sol\":332:466  function mint(address to, uint amount) external {... */\n    tag_9:\n      tag_48\n      0x04\n      dup1\n      calldatasize\n      sub\n      dup2\n      add\n      swap1\n      tag_49\n      swap2\n      swap1\n      tag_27\n      jump\t// in\n    tag_49:\n      tag_50\n      jump\t// in\n    tag_48:\n      stop\n        /* \"contracts/Token.sol\":472:550  function burn(uint amount) external {... */\n    tag_10:\n      tag_51\n      0x04\n      dup1\n      calldatasize\n      sub\n      dup2\n      add\n      swap1\n      tag_52\n      swap2\n      swap1\n      tag_53\n      jump\t// in\n    tag_52:\n      tag_54\n      jump\t// in\n    tag_51:\n      stop\n        /* \"https://github.com/OpenZeppelin/openzeppelin-contracts/blob/master/contracts/token/ERC20/ERC20.sol\":3406:3531  function balanceOf(address account) public view virtual override returns (uint256) {... */\n    tag_11:\n      tag_55\n      0x04\n      dup1\n      calldatasize\n      sub\n      dup2\n      add\n      swap1\n      tag_56\n      swap2\n      swap1\n      tag_57\n      jump\t// in\n    tag_56:\n      tag_58\n      jump\t// in\n    tag_55:\n      mload(0x40)\n      tag_59\n      swap2\n      swap1\n      tag_34\n      jump\t// in\n    tag_59:\n      mload(0x40)\n      dup1\n      swap2\n      sub\n      swap1\n      return\n        /* \"contracts/Token.sol\":556:666  function MyTransfer(IERC20 token, address to, uint amount) external{... */\n    tag_12:\n      tag_60\n      0x04\n      dup1\n      calldatasize\n      sub\n      dup2\n      add\n      swap1\n      tag_61\n      swap2\n      swap1\n      tag_62\n      jump\t// in\n    tag_61:\n      tag_63\n      jump\t// in\n    tag_60:\n      stop\n        /* \"https://github.com/OpenZeppelin/openzeppelin-contracts/blob/master/contracts/token/ERC20/ERC20.sol\":2365:2467  function symbol() public view virtual override returns (string memory) {... */\n    tag_13:\n      tag_64\n      tag_65\n      jump\t// in\n    tag_64:\n      mload(0x40)\n      tag_66\n      swap2\n      swap1\n      tag_24\n      jump\t// in\n    tag_66:\n      mload(0x40)\n      dup1\n      swap2\n      sub\n      swap1\n      return\n        /* \"https://github.com/OpenZeppelin/openzeppelin-contracts/blob/master/contracts/token/ERC20/ERC20.sol\":6592:7019  function decreaseAllowance(address spender, uint256 subtractedValue) public virtual returns (bool) {... */\n    tag_14:\n      tag_67\n      0x04\n      dup1\n      calldatasize\n      sub\n      dup2\n      add\n      swap1\n      tag_68\n      swap2\n      swap1\n      tag_27\n      jump\t// in\n    tag_68:\n      tag_69\n      jump\t// in\n    tag_67:\n      mload(0x40)\n      tag_70\n      swap2\n      swap1\n      tag_30\n      jump\t// in\n    tag_70:\n      mload(0x40)\n      dup1\n      swap2\n      sub\n      swap1\n      return\n        /* \"https://github.com/OpenZeppelin/openzeppelin-contracts/blob/master/contracts/token/ERC20/ERC20.sol\":3727:3916  function transfer(address to, uint256 amount) public virtual override returns (bool) {... */\n    tag_15:\n      tag_71\n      0x04\n      dup1\n      calldatasize\n      sub\n      dup2\n      add\n      swap1\n      tag_72\n      swap2\n      swap1\n      tag_27\n      jump\t// in\n    tag_72:\n      tag_73\n      jump\t// in\n    tag_71:\n      mload(0x40)\n      tag_74\n      swap2\n      swap1\n      tag_30\n      jump\t// in\n    tag_74:\n      mload(0x40)\n      dup1\n      swap2\n      sub\n      swap1\n      return\n        /* \"https://github.com/OpenZeppelin/openzeppelin-contracts/blob/master/contracts/token/ERC20/ERC20.sol\":3974:4123  function allowance(address owner, address spender) public view virtual override returns (uint256) {... */\n    tag_16:\n      tag_75\n      0x04\n      dup1\n      calldatasize\n      sub\n      dup2\n      add\n      swap1\n      tag_76\n      swap2\n      swap1\n      tag_77\n      jump\t// in\n    tag_76:\n      tag_78\n      jump\t// in\n    tag_75:\n      mload(0x40)\n      tag_79\n      swap2\n      swap1\n      tag_34\n      jump\t// in\n    tag_79:\n      mload(0x40)\n      dup1\n      swap2\n      sub\n      swap1\n      return\n        /* \"contracts/Token.sol\":181:201  address public admin */\n    tag_17:\n      tag_80\n      tag_81\n      jump\t// in\n    tag_80:\n      mload(0x40)\n      tag_82\n      swap2\n      swap1\n      tag_83\n      jump\t// in\n    tag_82:\n      mload(0x40)\n      dup1\n      swap2\n      sub\n      swap1\n      return\n        /* \"https://github.com/OpenZeppelin/openzeppelin-contracts/blob/master/contracts/token/ERC20/ERC20.sol\":2154:2252  function name() public view virtual override returns (string memory) {... */\n    tag_22:\n        /* \"https://github.com/OpenZeppelin/openzeppelin-contracts/blob/master/contracts/token/ERC20/ERC20.sol\":2208:2221  string memory */\n      0x60\n        /* \"https://github.com/OpenZeppelin/openzeppelin-contracts/blob/master/contracts/token/ERC20/ERC20.sol\":2240:2245  _name */\n      0x03\n        /* \"https://github.com/OpenZeppelin/openzeppelin-contracts/blob/master/contracts/token/ERC20/ERC20.sol\":2233:2245  return _name */\n      dup1\n      sload\n      tag_85\n      swap1\n      tag_86\n      jump\t// in\n    tag_85:\n      dup1\n      0x1f\n      add\n      0x20\n      dup1\n      swap2\n      div\n      mul\n      0x20\n      add\n      mload(0x40)\n      swap1\n      dup2\n      add\n      0x40\n      mstore\n      dup1\n      swap3\n      swap2\n      swap1\n      dup2\n      dup2\n      mstore\n      0x20\n      add\n      dup3\n      dup1\n      sload\n      tag_87\n      swap1\n      tag_86\n      jump\t// in\n    tag_87:\n      dup1\n      iszero\n      tag_88\n      jumpi\n      dup1\n      0x1f\n      lt\n      tag_89\n      jumpi\n      0x0100\n      dup1\n      dup4\n      sload\n      div\n      mul\n      dup4\n      mstore\n      swap2\n      0x20\n      add\n      swap2\n      jump(tag_88)\n    tag_89:\n      dup3\n      add\n      swap2\n      swap1\n      0x00\n      mstore\n      keccak256(0x00, 0x20)\n      swap1\n    tag_90:\n      dup2\n      sload\n      dup2\n      mstore\n      swap1\n      0x01\n      add\n      swap1\n      0x20\n      add\n      dup1\n      dup4\n      gt\n      tag_90\n      jumpi\n      dup3\n      swap1\n      sub\n      0x1f\n      and\n      dup3\n      add\n      swap2\n    tag_88:\n      pop\n      pop\n      pop\n      pop\n      pop\n      swap1\n      pop\n        /* \"https://github.com/OpenZeppelin/openzeppelin-contracts/blob/master/contracts/token/ERC20/ERC20.sol\":2154:2252  function name() public view virtual override returns (string memory) {... */\n      swap1\n      jump\t// out\n        /* \"https://github.com/OpenZeppelin/openzeppelin-contracts/blob/master/contracts/token/ERC20/ERC20.sol\":4431:4628  function approve(address spender, uint256 amount) public virtual override returns (bool) {... */\n    tag_28:\n        /* \"https://github.com/OpenZeppelin/openzeppelin-contracts/blob/master/contracts/token/ERC20/ERC20.sol\":4514:4518  bool */\n      0x00\n        /* \"https://github.com/OpenZeppelin/openzeppelin-contracts/blob/master/contracts/token/ERC20/ERC20.sol\":4530:4543  address owner */\n      dup1\n        /* \"https://github.com/OpenZeppelin/openzeppelin-contracts/blob/master/contracts/token/ERC20/ERC20.sol\":4546:4558  _msgSender() */\n      tag_92\n        /* \"https://github.com/OpenZeppelin/openzeppelin-contracts/blob/master/contracts/token/ERC20/ERC20.sol\":4546:4556  _msgSender */\n      tag_93\n        /* \"https://github.com/OpenZeppelin/openzeppelin-contracts/blob/master/contracts/token/ERC20/ERC20.sol\":4546:4558  _msgSender() */\n      jump\t// in\n    tag_92:\n        /* \"https://github.com/OpenZeppelin/openzeppelin-contracts/blob/master/contracts/token/ERC20/ERC20.sol\":4530:4558  address owner = _msgSender() */\n      swap1\n      pop\n        /* \"https://github.com/OpenZeppelin/openzeppelin-contracts/blob/master/contracts/token/ERC20/ERC20.sol\":4568:4600  _approve(owner, spender, amount) */\n      tag_94\n        /* \"https://github.com/OpenZeppelin/openzeppelin-contracts/blob/master/contracts/token/ERC20/ERC20.sol\":4577:4582  owner */\n      dup2\n        /* \"https://github.com/OpenZeppelin/openzeppelin-contracts/blob/master/contracts/token/ERC20/ERC20.sol\":4584:4591  spender */\n      dup6\n        /* \"https://github.com/OpenZeppelin/openzeppelin-contracts/blob/master/contracts/token/ERC20/ERC20.sol\":4593:4599  amount */\n      dup6\n        /* \"https://github.com/OpenZeppelin/openzeppelin-contracts/blob/master/contracts/token/ERC20/ERC20.sol\":4568:4576  _approve */\n      tag_95\n        /* \"https://github.com/OpenZeppelin/openzeppelin-contracts/blob/master/contracts/token/ERC20/ERC20.sol\":4568:4600  _approve(owner, spender, amount) */\n      jump\t// in\n    tag_94:\n        /* \"https://github.com/OpenZeppelin/openzeppelin-contracts/blob/master/contracts/token/ERC20/ERC20.sol\":4617:4621  true */\n      0x01\n        /* \"https://github.com/OpenZeppelin/openzeppelin-contracts/blob/master/contracts/token/ERC20/ERC20.sol\":4610:4621  return true */\n      swap2\n      pop\n      pop\n        /* \"https://github.com/OpenZeppelin/openzeppelin-contracts/blob/master/contracts/token/ERC20/ERC20.sol\":4431:4628  function approve(address spender, uint256 amount) public virtual override returns (bool) {... */\n      swap3\n      swap2\n      pop\n      pop\n      jump\t// out\n        /* \"https://github.com/OpenZeppelin/openzeppelin-contracts/blob/master/contracts/token/ERC20/ERC20.sol\":3242:3348  function totalSupply() public view virtual override returns (uint256) {... */\n    tag_32:\n        /* \"https://github.com/OpenZeppelin/openzeppelin-contracts/blob/master/contracts/token/ERC20/ERC20.sol\":3303:3310  uint256 */\n      0x00\n        /* \"https://github.com/OpenZeppelin/openzeppelin-contracts/blob/master/contracts/token/ERC20/ERC20.sol\":3329:3341  _totalSupply */\n      sload(0x02)\n        /* \"https://github.com/OpenZeppelin/openzeppelin-contracts/blob/master/contracts/token/ERC20/ERC20.sol\":3322:3341  return _totalSupply */\n      swap1\n      pop\n        /* \"https://github.com/OpenZeppelin/openzeppelin-contracts/blob/master/contracts/token/ERC20/ERC20.sol\":3242:3348  function totalSupply() public view virtual override returns (uint256) {... */\n      swap1\n      jump\t// out\n        /* \"https://github.com/OpenZeppelin/openzeppelin-contracts/blob/master/contracts/token/ERC20/ERC20.sol\":5190:5476  function transferFrom(... */\n    tag_38:\n        /* \"https://github.com/OpenZeppelin/openzeppelin-contracts/blob/master/contracts/token/ERC20/ERC20.sol\":5317:5321  bool */\n      0x00\n        /* \"https://github.com/OpenZeppelin/openzeppelin-contracts/blob/master/contracts/token/ERC20/ERC20.sol\":5333:5348  address spender */\n      dup1\n        /* \"https://github.com/OpenZeppelin/openzeppelin-contracts/blob/master/contracts/token/ERC20/ERC20.sol\":5351:5363  _msgSender() */\n      tag_98\n        /* \"https://github.com/OpenZeppelin/openzeppelin-contracts/blob/master/contracts/token/ERC20/ERC20.sol\":5351:5361  _msgSender */\n      tag_93\n        /* \"https://github.com/OpenZeppelin/openzeppelin-contracts/blob/master/contracts/token/ERC20/ERC20.sol\":5351:5363  _msgSender() */\n      jump\t// in\n    tag_98:\n        /* \"https://github.com/OpenZeppelin/openzeppelin-contracts/blob/master/contracts/token/ERC20/ERC20.sol\":5333:5363  address spender = _msgSender() */\n      swap1\n      pop\n        /* \"https://github.com/OpenZeppelin/openzeppelin-contracts/blob/master/contracts/token/ERC20/ERC20.sol\":5373:5411  _spendAllowance(from, spender, amount) */\n      tag_99\n        /* \"https://github.com/OpenZeppelin/openzeppelin-contracts/blob/master/contracts/token/ERC20/ERC20.sol\":5389:5393  from */\n      dup6\n        /* \"https://github.com/OpenZeppelin/openzeppelin-contracts/blob/master/contracts/token/ERC20/ERC20.sol\":5395:5402  spender */\n      dup3\n        /* \"https://github.com/OpenZeppelin/openzeppelin-contracts/blob/master/contracts/token/ERC20/ERC20.sol\":5404:5410  amount */\n      dup6\n        /* \"https://github.com/OpenZeppelin/openzeppelin-contracts/blob/master/contracts/token/ERC20/ERC20.sol\":5373:5388  _spendAllowance */\n      tag_100\n        /* \"https://github.com/OpenZeppelin/openzeppelin-contracts/blob/master/contracts/token/ERC20/ERC20.sol\":5373:5411  _spendAllowance(from, spender, amount) */\n      jump\t// in\n    tag_99:\n        /* \"https://github.com/OpenZeppelin/openzeppelin-contracts/blob/master/contracts/token/ERC20/ERC20.sol\":5421:5448  _transfer(from, to, amount) */\n      tag_101\n        /* \"https://github.com/OpenZeppelin/openzeppelin-contracts/blob/master/contracts/token/ERC20/ERC20.sol\":5431:5435  from */\n      dup6\n        /* \"https://github.com/OpenZeppelin/openzeppelin-contracts/blob/master/contracts/token/ERC20/ERC20.sol\":5437:5439  to */\n      dup6\n        /* \"https://github.com/OpenZeppelin/openzeppelin-contracts/blob/master/contracts/token/ERC20/ERC20.sol\":5441:5447  amount */\n      dup6\n        /* \"https://github.com/OpenZeppelin/openzeppelin-contracts/blob/master/contracts/token/ERC20/ERC20.sol\":5421:5430  _transfer */\n      tag_102\n        /* \"https://github.com/OpenZeppelin/openzeppelin-contracts/blob/master/contracts/token/ERC20/ERC20.sol\":5421:5448  _transfer(from, to, amount) */\n      jump\t// in\n    tag_101:\n        /* \"https://github.com/OpenZeppelin/openzeppelin-contracts/blob/master/contracts/token/ERC20/ERC20.sol\":5465:5469  true */\n      0x01\n        /* \"https://github.com/OpenZeppelin/openzeppelin-contracts/blob/master/contracts/token/ERC20/ERC20.sol\":5458:5469  return true */\n      swap2\n      pop\n      pop\n        /* \"https://github.com/OpenZeppelin/openzeppelin-contracts/blob/master/contracts/token/ERC20/ERC20.sol\":5190:5476  function transferFrom(... */\n      swap4\n      swap3\n      pop\n      pop\n      pop\n      jump\t// out\n        /* \"https://github.com/OpenZeppelin/openzeppelin-contracts/blob/master/contracts/token/ERC20/ERC20.sol\":3091:3182  function decimals() public view virtual override returns (uint8) {... */\n    tag_41:\n        /* \"https://github.com/OpenZeppelin/openzeppelin-contracts/blob/master/contracts/token/ERC20/ERC20.sol\":3149:3154  uint8 */\n      0x00\n        /* \"https://github.com/OpenZeppelin/openzeppelin-contracts/blob/master/contracts/token/ERC20/ERC20.sol\":3173:3175  18 */\n      0x12\n        /* \"https://github.com/OpenZeppelin/openzeppelin-contracts/blob/master/contracts/token/ERC20/ERC20.sol\":3166:3175  return 18 */\n      swap1\n      pop\n        /* \"https://github.com/OpenZeppelin/openzeppelin-contracts/blob/master/contracts/token/ERC20/ERC20.sol\":3091:3182  function decimals() public view virtual override returns (uint8) {... */\n      swap1\n      jump\t// out\n        /* \"https://github.com/OpenZeppelin/openzeppelin-contracts/blob/master/contracts/token/ERC20/ERC20.sol\":5871:6105  function increaseAllowance(address spender, uint256 addedValue) public virtual returns (bool) {... */\n    tag_46:\n        /* \"https://github.com/OpenZeppelin/openzeppelin-contracts/blob/master/contracts/token/ERC20/ERC20.sol\":5959:5963  bool */\n      0x00\n        /* \"https://github.com/OpenZeppelin/openzeppelin-contracts/blob/master/contracts/token/ERC20/ERC20.sol\":5975:5988  address owner */\n      dup1\n        /* \"https://github.com/OpenZeppelin/openzeppelin-contracts/blob/master/contracts/token/ERC20/ERC20.sol\":5991:6003  _msgSender() */\n      tag_105\n        /* \"https://github.com/OpenZeppelin/openzeppelin-contracts/blob/master/contracts/token/ERC20/ERC20.sol\":5991:6001  _msgSender */\n      tag_93\n        /* \"https://github.com/OpenZeppelin/openzeppelin-contracts/blob/master/contracts/token/ERC20/ERC20.sol\":5991:6003  _msgSender() */\n      jump\t// in\n    tag_105:\n        /* \"https://github.com/OpenZeppelin/openzeppelin-contracts/blob/master/contracts/token/ERC20/ERC20.sol\":5975:6003  address owner = _msgSender() */\n      swap1\n      pop\n        /* \"https://github.com/OpenZeppelin/openzeppelin-contracts/blob/master/contracts/token/ERC20/ERC20.sol\":6013:6077  _approve(owner, spender, allowance(owner, spender) + addedValue) */\n      tag_106\n        /* \"https://github.com/OpenZeppelin/openzeppelin-contracts/blob/master/contracts/token/ERC20/ERC20.sol\":6022:6027  owner */\n      dup2\n        /* \"https://github.com/OpenZeppelin/openzeppelin-contracts/blob/master/contracts/token/ERC20/ERC20.sol\":6029:6036  spender */\n      dup6\n        /* \"https://github.com/OpenZeppelin/openzeppelin-contracts/blob/master/contracts/token/ERC20/ERC20.sol\":6066:6076  addedValue */\n      dup6\n        /* \"https://github.com/OpenZeppelin/openzeppelin-contracts/blob/master/contracts/token/ERC20/ERC20.sol\":6038:6063  allowance(owner, spender) */\n      tag_107\n        /* \"https://github.com/OpenZeppelin/openzeppelin-contracts/blob/master/contracts/token/ERC20/ERC20.sol\":6048:6053  owner */\n      dup6\n        /* \"https://github.com/OpenZeppelin/openzeppelin-contracts/blob/master/contracts/token/ERC20/ERC20.sol\":6055:6062  spender */\n      dup10\n        /* \"https://github.com/OpenZeppelin/openzeppelin-contracts/blob/master/contracts/token/ERC20/ERC20.sol\":6038:6047  allowance */\n      tag_78\n        /* \"https://github.com/OpenZeppelin/openzeppelin-contracts/blob/master/contracts/token/ERC20/ERC20.sol\":6038:6063  allowance(owner, spender) */\n      jump\t// in\n    tag_107:\n        /* \"https://github.com/OpenZeppelin/openzeppelin-contracts/blob/master/contracts/token/ERC20/ERC20.sol\":6038:6076  allowance(owner, spender) + addedValue */\n      tag_108\n      swap2\n      swap1\n      tag_109\n      jump\t// in\n    tag_108:\n        /* \"https://github.com/OpenZeppelin/openzeppelin-contracts/blob/master/contracts/token/ERC20/ERC20.sol\":6013:6021  _approve */\n      tag_95\n        /* \"https://github.com/OpenZeppelin/openzeppelin-contracts/blob/master/contracts/token/ERC20/ERC20.sol\":6013:6077  _approve(owner, spender, allowance(owner, spender) + addedValue) */\n      jump\t// in\n    tag_106:\n        /* \"https://github.com/OpenZeppelin/openzeppelin-contracts/blob/master/contracts/token/ERC20/ERC20.sol\":6094:6098  true */\n      0x01\n        /* \"https://github.com/OpenZeppelin/openzeppelin-contracts/blob/master/contracts/token/ERC20/ERC20.sol\":6087:6098  return true */\n      swap2\n      pop\n      pop\n        /* \"https://github.com/OpenZeppelin/openzeppelin-contracts/blob/master/contracts/token/ERC20/ERC20.sol\":5871:6105  function increaseAllowance(address spender, uint256 addedValue) public virtual returns (bool) {... */\n      swap3\n      swap2\n      pop\n      pop\n      jump\t// out\n        /* \"contracts/Token.sol\":332:466  function mint(address to, uint amount) external {... */\n    tag_50:\n        /* \"contracts/Token.sol\":412:417  admin */\n      0x05\n      0x00\n      swap1\n      sload\n      swap1\n      0x0100\n      exp\n      swap1\n      div\n      0xffffffffffffffffffffffffffffffffffffffff\n      and\n        /* \"contracts/Token.sol\":398:417  msg.sender == admin */\n      0xffffffffffffffffffffffffffffffffffffffff\n      and\n        /* \"contracts/Token.sol\":398:408  msg.sender */\n      caller\n        /* \"contracts/Token.sol\":398:417  msg.sender == admin */\n      0xffffffffffffffffffffffffffffffffffffffff\n      and\n      eq\n        /* \"contracts/Token.sol\":390:432  require(msg.sender == admin, 'only admin') */\n      tag_111\n      jumpi\n      mload(0x40)\n      0x08c379a000000000000000000000000000000000000000000000000000000000\n      dup2\n      mstore\n      0x04\n      add\n      tag_112\n      swap1\n      tag_113\n      jump\t// in\n    tag_112:\n      mload(0x40)\n      dup1\n      swap2\n      sub\n      swap1\n      revert\n    tag_111:\n        /* \"contracts/Token.sol\":442:459  _mint(to, amount) */\n      tag_114\n        /* \"contracts/Token.sol\":448:450  to */\n      dup3\n        /* \"contracts/Token.sol\":452:458  amount */\n      dup3\n        /* \"contracts/Token.sol\":442:447  _mint */\n      tag_115\n        /* \"contracts/Token.sol\":442:459  _mint(to, amount) */\n      jump\t// in\n    tag_114:\n        /* \"contracts/Token.sol\":332:466  function mint(address to, uint amount) external {... */\n      pop\n      pop\n      jump\t// out\n        /* \"contracts/Token.sol\":472:550  function burn(uint amount) external {... */\n    tag_54:\n        /* \"contracts/Token.sol\":518:543  _burn(msg.sender, amount) */\n      tag_117\n        /* \"contracts/Token.sol\":524:534  msg.sender */\n      caller\n        /* \"contracts/Token.sol\":536:542  amount */\n      dup3\n        /* \"contracts/Token.sol\":518:523  _burn */\n      tag_118\n        /* \"contracts/Token.sol\":518:543  _burn(msg.sender, amount) */\n      jump\t// in\n    tag_117:\n        /* \"contracts/Token.sol\":472:550  function burn(uint amount) external {... */\n      pop\n      jump\t// out\n        /* \"https://github.com/OpenZeppelin/openzeppelin-contracts/blob/master/contracts/token/ERC20/ERC20.sol\":3406:3531  function balanceOf(address account) public view virtual override returns (uint256) {... */\n    tag_58:\n        /* \"https://github.com/OpenZeppelin/openzeppelin-contracts/blob/master/contracts/token/ERC20/ERC20.sol\":3480:3487  uint256 */\n      0x00\n        /* \"https://github.com/OpenZeppelin/openzeppelin-contracts/blob/master/contracts/token/ERC20/ERC20.sol\":3506:3515  _balances */\n      dup1\n        /* \"https://github.com/OpenZeppelin/openzeppelin-contracts/blob/master/contracts/token/ERC20/ERC20.sol\":3506:3524  _balances[account] */\n      0x00\n        /* \"https://github.com/OpenZeppelin/openzeppelin-contracts/blob/master/contracts/token/ERC20/ERC20.sol\":3516:3523  account */\n      dup4\n        /* \"https://github.com/OpenZeppelin/openzeppelin-contracts/blob/master/contracts/token/ERC20/ERC20.sol\":3506:3524  _balances[account] */\n      0xffffffffffffffffffffffffffffffffffffffff\n      and\n      0xffffffffffffffffffffffffffffffffffffffff\n      and\n      dup2\n      mstore\n      0x20\n      add\n      swap1\n      dup2\n      mstore\n      0x20\n      add\n      0x00\n      keccak256\n      sload\n        /* \"https://github.com/OpenZeppelin/openzeppelin-contracts/blob/master/contracts/token/ERC20/ERC20.sol\":3499:3524  return _balances[account] */\n      swap1\n      pop\n        /* \"https://github.com/OpenZeppelin/openzeppelin-contracts/blob/master/contracts/token/ERC20/ERC20.sol\":3406:3531  function balanceOf(address account) public view virtual override returns (uint256) {... */\n      swap2\n      swap1\n      pop\n      jump\t// out\n        /* \"contracts/Token.sol\":556:666  function MyTransfer(IERC20 token, address to, uint amount) external{... */\n    tag_63:\n        /* \"contracts/Token.sol\":633:638  token */\n      dup3\n        /* \"contracts/Token.sol\":633:647  token.transfer */\n      0xffffffffffffffffffffffffffffffffffffffff\n      and\n      0xa9059cbb\n        /* \"contracts/Token.sol\":648:650  to */\n      dup4\n        /* \"contracts/Token.sol\":652:658  amount */\n      dup4\n        /* \"contracts/Token.sol\":633:659  token.transfer(to, amount) */\n      mload(0x40)\n      dup4\n      0xffffffff\n      and\n      0xe0\n      shl\n      dup2\n      mstore\n      0x04\n      add\n      tag_121\n      swap3\n      swap2\n      swap1\n      tag_122\n      jump\t// in\n    tag_121:\n      0x20\n      mload(0x40)\n      dup1\n      dup4\n      sub\n      dup2\n      0x00\n      dup8\n      dup1\n      extcodesize\n      iszero\n      dup1\n      iszero\n      tag_123\n      jumpi\n      0x00\n      dup1\n      revert\n    tag_123:\n      pop\n      gas\n      call\n      iszero\n      dup1\n      iszero\n      tag_125\n      jumpi\n      returndatasize\n      0x00\n      dup1\n      returndatacopy\n      revert(0x00, returndatasize)\n    tag_125:\n      pop\n      pop\n      pop\n      pop\n      mload(0x40)\n      returndatasize\n      not(0x1f)\n      0x1f\n      dup3\n      add\n      and\n      dup3\n      add\n      dup1\n      0x40\n      mstore\n      pop\n      dup2\n      add\n      swap1\n      tag_126\n      swap2\n      swap1\n      tag_127\n      jump\t// in\n    tag_126:\n      pop\n        /* \"contracts/Token.sol\":556:666  function MyTransfer(IERC20 token, address to, uint amount) external{... */\n      pop\n      pop\n      pop\n      jump\t// out\n        /* \"https://github.com/OpenZeppelin/openzeppelin-contracts/blob/master/contracts/token/ERC20/ERC20.sol\":2365:2467  function symbol() public view virtual override returns (string memory) {... */\n    tag_65:\n        /* \"https://github.com/OpenZeppelin/openzeppelin-contracts/blob/master/contracts/token/ERC20/ERC20.sol\":2421:2434  string memory */\n      0x60\n        /* \"https://github.com/OpenZeppelin/openzeppelin-contracts/blob/master/contracts/token/ERC20/ERC20.sol\":2453:2460  _symbol */\n      0x04\n        /* \"https://github.com/OpenZeppelin/openzeppelin-contracts/blob/master/contracts/token/ERC20/ERC20.sol\":2446:2460  return _symbol */\n      dup1\n      sload\n      tag_129\n      swap1\n      tag_86\n      jump\t// in\n    tag_129:\n      dup1\n      0x1f\n      add\n      0x20\n      dup1\n      swap2\n      div\n      mul\n      0x20\n      add\n      mload(0x40)\n      swap1\n      dup2\n      add\n      0x40\n      mstore\n      dup1\n      swap3\n      swap2\n      swap1\n      dup2\n      dup2\n      mstore\n      0x20\n      add\n      dup3\n      dup1\n      sload\n      tag_130\n      swap1\n      tag_86\n      jump\t// in\n    tag_130:\n      dup1\n      iszero\n      tag_131\n      jumpi\n      dup1\n      0x1f\n      lt\n      tag_132\n      jumpi\n      0x0100\n      dup1\n      dup4\n      sload\n      div\n      mul\n      dup4\n      mstore\n      swap2\n      0x20\n      add\n      swap2\n      jump(tag_131)\n    tag_132:\n      dup3\n      add\n      swap2\n      swap1\n      0x00\n      mstore\n      keccak256(0x00, 0x20)\n      swap1\n    tag_133:\n      dup2\n      sload\n      dup2\n      mstore\n      swap1\n      0x01\n      add\n      swap1\n      0x20\n      add\n      dup1\n      dup4\n      gt\n      tag_133\n      jumpi\n      dup3\n      swap1\n      sub\n      0x1f\n      and\n      dup3\n      add\n      swap2\n    tag_131:\n      pop\n      pop\n      pop\n      pop\n      pop\n      swap1\n      pop\n        /* \"https://github.com/OpenZeppelin/openzeppelin-contracts/blob/master/contracts/token/ERC20/ERC20.sol\":2365:2467  function symbol() public view virtual override returns (string memory) {... */\n      swap1\n      jump\t// out\n        /* \"https://github.com/OpenZeppelin/openzeppelin-contracts/blob/master/contracts/token/ERC20/ERC20.sol\":6592:7019  function decreaseAllowance(address spender, uint256 subtractedValue) public virtual returns (bool) {... */\n    tag_69:\n        /* \"https://github.com/OpenZeppelin/openzeppelin-contracts/blob/master/contracts/token/ERC20/ERC20.sol\":6685:6689  bool */\n      0x00\n        /* \"https://github.com/OpenZeppelin/openzeppelin-contracts/blob/master/contracts/token/ERC20/ERC20.sol\":6701:6714  address owner */\n      dup1\n        /* \"https://github.com/OpenZeppelin/openzeppelin-contracts/blob/master/contracts/token/ERC20/ERC20.sol\":6717:6729  _msgSender() */\n      tag_135\n        /* \"https://github.com/OpenZeppelin/openzeppelin-contracts/blob/master/contracts/token/ERC20/ERC20.sol\":6717:6727  _msgSender */\n      tag_93\n        /* \"https://github.com/OpenZeppelin/openzeppelin-contracts/blob/master/contracts/token/ERC20/ERC20.sol\":6717:6729  _msgSender() */\n      jump\t// in\n    tag_135:\n        /* \"https://github.com/OpenZeppelin/openzeppelin-contracts/blob/master/contracts/token/ERC20/ERC20.sol\":6701:6729  address owner = _msgSender() */\n      swap1\n      pop\n        /* \"https://github.com/OpenZeppelin/openzeppelin-contracts/blob/master/contracts/token/ERC20/ERC20.sol\":6739:6763  uint256 currentAllowance */\n      0x00\n        /* \"https://github.com/OpenZeppelin/openzeppelin-contracts/blob/master/contracts/token/ERC20/ERC20.sol\":6766:6791  allowance(owner, spender) */\n      tag_136\n        /* \"https://github.com/OpenZeppelin/openzeppelin-contracts/blob/master/contracts/token/ERC20/ERC20.sol\":6776:6781  owner */\n      dup3\n        /* \"https://github.com/OpenZeppelin/openzeppelin-contracts/blob/master/contracts/token/ERC20/ERC20.sol\":6783:6790  spender */\n      dup7\n        /* \"https://github.com/OpenZeppelin/openzeppelin-contracts/blob/master/contracts/token/ERC20/ERC20.sol\":6766:6775  allowance */\n      tag_78\n        /* \"https://github.com/OpenZeppelin/openzeppelin-contracts/blob/master/contracts/token/ERC20/ERC20.sol\":6766:6791  allowance(owner, spender) */\n      jump\t// in\n    tag_136:\n        /* \"https://github.com/OpenZeppelin/openzeppelin-contracts/blob/master/contracts/token/ERC20/ERC20.sol\":6739:6791  uint256 currentAllowance = allowance(owner, spender) */\n      swap1\n      pop\n        /* \"https://github.com/OpenZeppelin/openzeppelin-contracts/blob/master/contracts/token/ERC20/ERC20.sol\":6829:6844  subtractedValue */\n      dup4\n        /* \"https://github.com/OpenZeppelin/openzeppelin-contracts/blob/master/contracts/token/ERC20/ERC20.sol\":6809:6825  currentAllowance */\n      dup2\n        /* \"https://github.com/OpenZeppelin/openzeppelin-contracts/blob/master/contracts/token/ERC20/ERC20.sol\":6809:6844  currentAllowance >= subtractedValue */\n      lt\n      iszero\n        /* \"https://github.com/OpenZeppelin/openzeppelin-contracts/blob/master/contracts/token/ERC20/ERC20.sol\":6801:6886  require(currentAllowance >= subtractedValue, \"ERC20: decreased allowance below zero\") */\n      tag_137\n      jumpi\n      mload(0x40)\n      0x08c379a000000000000000000000000000000000000000000000000000000000\n      dup2\n      mstore\n      0x04\n      add\n      tag_138\n      swap1\n      tag_139\n      jump\t// in\n    tag_138:\n      mload(0x40)\n      dup1\n      swap2\n      sub\n      swap1\n      revert\n    tag_137:\n        /* \"https://github.com/OpenZeppelin/openzeppelin-contracts/blob/master/contracts/token/ERC20/ERC20.sol\":6920:6980  _approve(owner, spender, currentAllowance - subtractedValue) */\n      tag_140\n        /* \"https://github.com/OpenZeppelin/openzeppelin-contracts/blob/master/contracts/token/ERC20/ERC20.sol\":6929:6934  owner */\n      dup3\n        /* \"https://github.com/OpenZeppelin/openzeppelin-contracts/blob/master/contracts/token/ERC20/ERC20.sol\":6936:6943  spender */\n      dup7\n        /* \"https://github.com/OpenZeppelin/openzeppelin-contracts/blob/master/contracts/token/ERC20/ERC20.sol\":6964:6979  subtractedValue */\n      dup7\n        /* \"https://github.com/OpenZeppelin/openzeppelin-contracts/blob/master/contracts/token/ERC20/ERC20.sol\":6945:6961  currentAllowance */\n      dup5\n        /* \"https://github.com/OpenZeppelin/openzeppelin-contracts/blob/master/contracts/token/ERC20/ERC20.sol\":6945:6979  currentAllowance - subtractedValue */\n      sub\n        /* \"https://github.com/OpenZeppelin/openzeppelin-contracts/blob/master/contracts/token/ERC20/ERC20.sol\":6920:6928  _approve */\n      tag_95\n        /* \"https://github.com/OpenZeppelin/openzeppelin-contracts/blob/master/contracts/token/ERC20/ERC20.sol\":6920:6980  _approve(owner, spender, currentAllowance - subtractedValue) */\n      jump\t// in\n    tag_140:\n        /* \"https://github.com/OpenZeppelin/openzeppelin-contracts/blob/master/contracts/token/ERC20/ERC20.sol\":7008:7012  true */\n      0x01\n        /* \"https://github.com/OpenZeppelin/openzeppelin-contracts/blob/master/contracts/token/ERC20/ERC20.sol\":7001:7012  return true */\n      swap3\n      pop\n      pop\n      pop\n        /* \"https://github.com/OpenZeppelin/openzeppelin-contracts/blob/master/contracts/token/ERC20/ERC20.sol\":6592:7019  function decreaseAllowance(address spender, uint256 subtractedValue) public virtual returns (bool) {... */\n      swap3\n      swap2\n      pop\n      pop\n      jump\t// out\n        /* \"https://github.com/OpenZeppelin/openzeppelin-contracts/blob/master/contracts/token/ERC20/ERC20.sol\":3727:3916  function transfer(address to, uint256 amount) public virtual override returns (bool) {... */\n    tag_73:\n        /* \"https://github.com/OpenZeppelin/openzeppelin-contracts/blob/master/contracts/token/ERC20/ERC20.sol\":3806:3810  bool */\n      0x00\n        /* \"https://github.com/OpenZeppelin/openzeppelin-contracts/blob/master/contracts/token/ERC20/ERC20.sol\":3822:3835  address owner */\n      dup1\n        /* \"https://github.com/OpenZeppelin/openzeppelin-contracts/blob/master/contracts/token/ERC20/ERC20.sol\":3838:3850  _msgSender() */\n      tag_142\n        /* \"https://github.com/OpenZeppelin/openzeppelin-contracts/blob/master/contracts/token/ERC20/ERC20.sol\":3838:3848  _msgSender */\n      tag_93\n        /* \"https://github.com/OpenZeppelin/openzeppelin-contracts/blob/master/contracts/token/ERC20/ERC20.sol\":3838:3850  _msgSender() */\n      jump\t// in\n    tag_142:\n        /* \"https://github.com/OpenZeppelin/openzeppelin-contracts/blob/master/contracts/token/ERC20/ERC20.sol\":3822:3850  address owner = _msgSender() */\n      swap1\n      pop\n        /* \"https://github.com/OpenZeppelin/openzeppelin-contracts/blob/master/contracts/token/ERC20/ERC20.sol\":3860:3888  _transfer(owner, to, amount) */\n      tag_143\n        /* \"https://github.com/OpenZeppelin/openzeppelin-contracts/blob/master/contracts/token/ERC20/ERC20.sol\":3870:3875  owner */\n      dup2\n        /* \"https://github.com/OpenZeppelin/openzeppelin-contracts/blob/master/contracts/token/ERC20/ERC20.sol\":3877:3879  to */\n      dup6\n        /* \"https://github.com/OpenZeppelin/openzeppelin-contracts/blob/master/contracts/token/ERC20/ERC20.sol\":3881:3887  amount */\n      dup6\n        /* \"https://github.com/OpenZeppelin/openzeppelin-contracts/blob/master/contracts/token/ERC20/ERC20.sol\":3860:3869  _transfer */\n      tag_102\n        /* \"https://github.com/OpenZeppelin/openzeppelin-contracts/blob/master/contracts/token/ERC20/ERC20.sol\":3860:3888  _transfer(owner, to, amount) */\n      jump\t// in\n    tag_143:\n        /* \"https://github.com/OpenZeppelin/openzeppelin-contracts/blob/master/contracts/token/ERC20/ERC20.sol\":3905:3909  true */\n      0x01\n        /* \"https://github.com/OpenZeppelin/openzeppelin-contracts/blob/master/contracts/token/ERC20/ERC20.sol\":3898:3909  return true */\n      swap2\n      pop\n      pop\n        /* \"https://github.com/OpenZeppelin/openzeppelin-contracts/blob/master/contracts/token/ERC20/ERC20.sol\":3727:3916  function transfer(address to, uint256 amount) public virtual override returns (bool) {... */\n      swap3\n      swap2\n      pop\n      pop\n      jump\t// out\n        /* \"https://github.com/OpenZeppelin/openzeppelin-contracts/blob/master/contracts/token/ERC20/ERC20.sol\":3974:4123  function allowance(address owner, address spender) public view virtual override returns (uint256) {... */\n    tag_78:\n        /* \"https://github.com/OpenZeppelin/openzeppelin-contracts/blob/master/contracts/token/ERC20/ERC20.sol\":4063:4070  uint256 */\n      0x00\n        /* \"https://github.com/OpenZeppelin/openzeppelin-contracts/blob/master/contracts/token/ERC20/ERC20.sol\":4089:4100  _allowances */\n      0x01\n        /* \"https://github.com/OpenZeppelin/openzeppelin-contracts/blob/master/contracts/token/ERC20/ERC20.sol\":4089:4107  _allowances[owner] */\n      0x00\n        /* \"https://github.com/OpenZeppelin/openzeppelin-contracts/blob/master/contracts/token/ERC20/ERC20.sol\":4101:4106  owner */\n      dup5\n        /* \"https://github.com/OpenZeppelin/openzeppelin-contracts/blob/master/contracts/token/ERC20/ERC20.sol\":4089:4107  _allowances[owner] */\n      0xffffffffffffffffffffffffffffffffffffffff\n      and\n      0xffffffffffffffffffffffffffffffffffffffff\n      and\n      dup2\n      mstore\n      0x20\n      add\n      swap1\n      dup2\n      mstore\n      0x20\n      add\n      0x00\n      keccak256\n        /* \"https://github.com/OpenZeppelin/openzeppelin-contracts/blob/master/contracts/token/ERC20/ERC20.sol\":4089:4116  _allowances[owner][spender] */\n      0x00\n        /* \"https://github.com/OpenZeppelin/openzeppelin-contracts/blob/master/contracts/token/ERC20/ERC20.sol\":4108:4115  spender */\n      dup4\n        /* \"https://github.com/OpenZeppelin/openzeppelin-contracts/blob/master/contracts/token/ERC20/ERC20.sol\":4089:4116  _allowances[owner][spender] */\n      0xffffffffffffffffffffffffffffffffffffffff\n      and\n      0xffffffffffffffffffffffffffffffffffffffff\n      and\n      dup2\n      mstore\n      0x20\n      add\n      swap1\n      dup2\n      mstore\n      0x20\n      add\n      0x00\n      keccak256\n      sload\n        /* \"https://github.com/OpenZeppelin/openzeppelin-contracts/blob/master/contracts/token/ERC20/ERC20.sol\":4082:4116  return _allowances[owner][spender] */\n      swap1\n      pop\n        /* \"https://github.com/OpenZeppelin/openzeppelin-contracts/blob/master/contracts/token/ERC20/ERC20.sol\":3974:4123  function allowance(address owner, address spender) public view virtual override returns (uint256) {... */\n      swap3\n      swap2\n      pop\n      pop\n      jump\t// out\n        /* \"contracts/Token.sol\":181:201  address public admin */\n    tag_81:\n      0x05\n      0x00\n      swap1\n      sload\n      swap1\n      0x0100\n      exp\n      swap1\n      div\n      0xffffffffffffffffffffffffffffffffffffffff\n      and\n      dup2\n      jump\t// out\n        /* \"https://github.com/OpenZeppelin/openzeppelin-contracts/blob/master/contracts/utils/Context.sol\":640:736  function _msgSender() internal view virtual returns (address) {... */\n    tag_93:\n        /* \"https://github.com/OpenZeppelin/openzeppelin-contracts/blob/master/contracts/utils/Context.sol\":693:700  address */\n      0x00\n        /* \"https://github.com/OpenZeppelin/openzeppelin-contracts/blob/master/contracts/utils/Context.sol\":719:729  msg.sender */\n      caller\n        /* \"https://github.com/OpenZeppelin/openzeppelin-contracts/blob/master/contracts/utils/Context.sol\":712:729  return msg.sender */\n      swap1\n      pop\n        /* \"https://github.com/OpenZeppelin/openzeppelin-contracts/blob/master/contracts/utils/Context.sol\":640:736  function _msgSender() internal view virtual returns (address) {... */\n      swap1\n      jump\t// out\n        /* \"https://github.com/OpenZeppelin/openzeppelin-contracts/blob/master/contracts/token/ERC20/ERC20.sol\":10504:10874  function _approve(... */\n    tag_95:\n        /* \"https://github.com/OpenZeppelin/openzeppelin-contracts/blob/master/contracts/token/ERC20/ERC20.sol\":10652:10653  0 */\n      0x00\n        /* \"https://github.com/OpenZeppelin/openzeppelin-contracts/blob/master/contracts/token/ERC20/ERC20.sol\":10635:10654  owner != address(0) */\n      0xffffffffffffffffffffffffffffffffffffffff\n      and\n        /* \"https://github.com/OpenZeppelin/openzeppelin-contracts/blob/master/contracts/token/ERC20/ERC20.sol\":10635:10640  owner */\n      dup4\n        /* \"https://github.com/OpenZeppelin/openzeppelin-contracts/blob/master/contracts/token/ERC20/ERC20.sol\":10635:10654  owner != address(0) */\n      0xffffffffffffffffffffffffffffffffffffffff\n      and\n      eq\n      iszero\n        /* \"https://github.com/OpenZeppelin/openzeppelin-contracts/blob/master/contracts/token/ERC20/ERC20.sol\":10627:10695  require(owner != address(0), \"ERC20: approve from the zero address\") */\n      tag_147\n      jumpi\n      mload(0x40)\n      0x08c379a000000000000000000000000000000000000000000000000000000000\n      dup2\n      mstore\n      0x04\n      add\n      tag_148\n      swap1\n      tag_149\n      jump\t// in\n    tag_148:\n      mload(0x40)\n      dup1\n      swap2\n      sub\n      swap1\n      revert\n    tag_147:\n        /* \"https://github.com/OpenZeppelin/openzeppelin-contracts/blob/master/contracts/token/ERC20/ERC20.sol\":10732:10733  0 */\n      0x00\n        /* \"https://github.com/OpenZeppelin/openzeppelin-contracts/blob/master/contracts/token/ERC20/ERC20.sol\":10713:10734  spender != address(0) */\n      0xffffffffffffffffffffffffffffffffffffffff\n      and\n        /* \"https://github.com/OpenZeppelin/openzeppelin-contracts/blob/master/contracts/token/ERC20/ERC20.sol\":10713:10720  spender */\n      dup3\n        /* \"https://github.com/OpenZeppelin/openzeppelin-contracts/blob/master/contracts/token/ERC20/ERC20.sol\":10713:10734  spender != address(0) */\n      0xffffffffffffffffffffffffffffffffffffffff\n      and\n      eq\n      iszero\n        /* \"https://github.com/OpenZeppelin/openzeppelin-contracts/blob/master/contracts/token/ERC20/ERC20.sol\":10705:10773  require(spender != address(0), \"ERC20: approve to the zero address\") */\n      tag_150\n      jumpi\n      mload(0x40)\n      0x08c379a000000000000000000000000000000000000000000000000000000000\n      dup2\n      mstore\n      0x04\n      add\n      tag_151\n      swap1\n      tag_152\n      jump\t// in\n    tag_151:\n      mload(0x40)\n      dup1\n      swap2\n      sub\n      swap1\n      revert\n    tag_150:\n        /* \"https://github.com/OpenZeppelin/openzeppelin-contracts/blob/master/contracts/token/ERC20/ERC20.sol\":10814:10820  amount */\n      dup1\n        /* \"https://github.com/OpenZeppelin/openzeppelin-contracts/blob/master/contracts/token/ERC20/ERC20.sol\":10784:10795  _allowances */\n      0x01\n        /* \"https://github.com/OpenZeppelin/openzeppelin-contracts/blob/master/contracts/token/ERC20/ERC20.sol\":10784:10802  _allowances[owner] */\n      0x00\n        /* \"https://github.com/OpenZeppelin/openzeppelin-contracts/blob/master/contracts/token/ERC20/ERC20.sol\":10796:10801  owner */\n      dup6\n        /* \"https://github.com/OpenZeppelin/openzeppelin-contracts/blob/master/contracts/token/ERC20/ERC20.sol\":10784:10802  _allowances[owner] */\n      0xffffffffffffffffffffffffffffffffffffffff\n      and\n      0xffffffffffffffffffffffffffffffffffffffff\n      and\n      dup2\n      mstore\n      0x20\n      add\n      swap1\n      dup2\n      mstore\n      0x20\n      add\n      0x00\n      keccak256\n        /* \"https://github.com/OpenZeppelin/openzeppelin-contracts/blob/master/contracts/token/ERC20/ERC20.sol\":10784:10811  _allowances[owner][spender] */\n      0x00\n        /* \"https://github.com/OpenZeppelin/openzeppelin-contracts/blob/master/contracts/token/ERC20/ERC20.sol\":10803:10810  spender */\n      dup5\n        /* \"https://github.com/OpenZeppelin/openzeppelin-contracts/blob/master/contracts/token/ERC20/ERC20.sol\":10784:10811  _allowances[owner][spender] */\n      0xffffffffffffffffffffffffffffffffffffffff\n      and\n      0xffffffffffffffffffffffffffffffffffffffff\n      and\n      dup2\n      mstore\n      0x20\n      add\n      swap1\n      dup2\n      mstore\n      0x20\n      add\n      0x00\n      keccak256\n        /* \"https://github.com/OpenZeppelin/openzeppelin-contracts/blob/master/contracts/token/ERC20/ERC20.sol\":10784:10820  _allowances[owner][spender] = amount */\n      dup2\n      swap1\n      sstore\n      pop\n        /* \"https://github.com/OpenZeppelin/openzeppelin-contracts/blob/master/contracts/token/ERC20/ERC20.sol\":10851:10858  spender */\n      dup2\n        /* \"https://github.com/OpenZeppelin/openzeppelin-contracts/blob/master/contracts/token/ERC20/ERC20.sol\":10835:10867  Approval(owner, spender, amount) */\n      0xffffffffffffffffffffffffffffffffffffffff\n      and\n        /* \"https://github.com/OpenZeppelin/openzeppelin-contracts/blob/master/contracts/token/ERC20/ERC20.sol\":10844:10849  owner */\n      dup4\n        /* \"https://github.com/OpenZeppelin/openzeppelin-contracts/blob/master/contracts/token/ERC20/ERC20.sol\":10835:10867  Approval(owner, spender, amount) */\n      0xffffffffffffffffffffffffffffffffffffffff\n      and\n      0x8c5be1e5ebec7d5bd14f71427d1e84f3dd0314c0f7b2291e5b200ac8c7c3b925\n        /* \"https://github.com/OpenZeppelin/openzeppelin-contracts/blob/master/contracts/token/ERC20/ERC20.sol\":10860:10866  amount */\n      dup4\n        /* \"https://github.com/OpenZeppelin/openzeppelin-contracts/blob/master/contracts/token/ERC20/ERC20.sol\":10835:10867  Approval(owner, spender, amount) */\n      mload(0x40)\n      tag_153\n      swap2\n      swap1\n      tag_34\n      jump\t// in\n    tag_153:\n      mload(0x40)\n      dup1\n      swap2\n      sub\n      swap1\n      log3\n        /* \"https://github.com/OpenZeppelin/openzeppelin-contracts/blob/master/contracts/token/ERC20/ERC20.sol\":10504:10874  function _approve(... */\n      pop\n      pop\n      pop\n      jump\t// out\n        /* \"https://github.com/OpenZeppelin/openzeppelin-contracts/blob/master/contracts/token/ERC20/ERC20.sol\":11155:11596  function _spendAllowance(... */\n    tag_100:\n        /* \"https://github.com/OpenZeppelin/openzeppelin-contracts/blob/master/contracts/token/ERC20/ERC20.sol\":11285:11309  uint256 currentAllowance */\n      0x00\n        /* \"https://github.com/OpenZeppelin/openzeppelin-contracts/blob/master/contracts/token/ERC20/ERC20.sol\":11312:11337  allowance(owner, spender) */\n      tag_155\n        /* \"https://github.com/OpenZeppelin/openzeppelin-contracts/blob/master/contracts/token/ERC20/ERC20.sol\":11322:11327  owner */\n      dup5\n        /* \"https://github.com/OpenZeppelin/openzeppelin-contracts/blob/master/contracts/token/ERC20/ERC20.sol\":11329:11336  spender */\n      dup5\n        /* \"https://github.com/OpenZeppelin/openzeppelin-contracts/blob/master/contracts/token/ERC20/ERC20.sol\":11312:11321  allowance */\n      tag_78\n        /* \"https://github.com/OpenZeppelin/openzeppelin-contracts/blob/master/contracts/token/ERC20/ERC20.sol\":11312:11337  allowance(owner, spender) */\n      jump\t// in\n    tag_155:\n        /* \"https://github.com/OpenZeppelin/openzeppelin-contracts/blob/master/contracts/token/ERC20/ERC20.sol\":11285:11337  uint256 currentAllowance = allowance(owner, spender) */\n      swap1\n      pop\n        /* \"https://github.com/OpenZeppelin/openzeppelin-contracts/blob/master/contracts/token/ERC20/ERC20.sol\":11371:11388  type(uint256).max */\n      0xffffffffffffffffffffffffffffffffffffffffffffffffffffffffffffffff\n        /* \"https://github.com/OpenZeppelin/openzeppelin-contracts/blob/master/contracts/token/ERC20/ERC20.sol\":11351:11367  currentAllowance */\n      dup2\n        /* \"https://github.com/OpenZeppelin/openzeppelin-contracts/blob/master/contracts/token/ERC20/ERC20.sol\":11351:11388  currentAllowance != type(uint256).max */\n      eq\n        /* \"https://github.com/OpenZeppelin/openzeppelin-contracts/blob/master/contracts/token/ERC20/ERC20.sol\":11347:11590  if (currentAllowance != type(uint256).max) {... */\n      tag_156\n      jumpi\n        /* \"https://github.com/OpenZeppelin/openzeppelin-contracts/blob/master/contracts/token/ERC20/ERC20.sol\":11432:11438  amount */\n      dup2\n        /* \"https://github.com/OpenZeppelin/openzeppelin-contracts/blob/master/contracts/token/ERC20/ERC20.sol\":11412:11428  currentAllowance */\n      dup2\n        /* \"https://github.com/OpenZeppelin/openzeppelin-contracts/blob/master/contracts/token/ERC20/ERC20.sol\":11412:11438  currentAllowance >= amount */\n      lt\n      iszero\n        /* \"https://github.com/OpenZeppelin/openzeppelin-contracts/blob/master/contracts/token/ERC20/ERC20.sol\":11404:11472  require(currentAllowance >= amount, \"ERC20: insufficient allowance\") */\n      tag_157\n      jumpi\n      mload(0x40)\n      0x08c379a000000000000000000000000000000000000000000000000000000000\n      dup2\n      mstore\n      0x04\n      add\n      tag_158\n      swap1\n      tag_159\n      jump\t// in\n    tag_158:\n      mload(0x40)\n      dup1\n      swap2\n      sub\n      swap1\n      revert\n    tag_157:\n        /* \"https://github.com/OpenZeppelin/openzeppelin-contracts/blob/master/contracts/token/ERC20/ERC20.sol\":11514:11565  _approve(owner, spender, currentAllowance - amount) */\n      tag_160\n        /* \"https://github.com/OpenZeppelin/openzeppelin-contracts/blob/master/contracts/token/ERC20/ERC20.sol\":11523:11528  owner */\n      dup5\n        /* \"https://github.com/OpenZeppelin/openzeppelin-contracts/blob/master/contracts/token/ERC20/ERC20.sol\":11530:11537  spender */\n      dup5\n        /* \"https://github.com/OpenZeppelin/openzeppelin-contracts/blob/master/contracts/token/ERC20/ERC20.sol\":11558:11564  amount */\n      dup5\n        /* \"https://github.com/OpenZeppelin/openzeppelin-contracts/blob/master/contracts/token/ERC20/ERC20.sol\":11539:11555  currentAllowance */\n      dup5\n        /* \"https://github.com/OpenZeppelin/openzeppelin-contracts/blob/master/contracts/token/ERC20/ERC20.sol\":11539:11564  currentAllowance - amount */\n      sub\n        /* \"https://github.com/OpenZeppelin/openzeppelin-contracts/blob/master/contracts/token/ERC20/ERC20.sol\":11514:11522  _approve */\n      tag_95\n        /* \"https://github.com/OpenZeppelin/openzeppelin-contracts/blob/master/contracts/token/ERC20/ERC20.sol\":11514:11565  _approve(owner, spender, currentAllowance - amount) */\n      jump\t// in\n    tag_160:\n        /* \"https://github.com/OpenZeppelin/openzeppelin-contracts/blob/master/contracts/token/ERC20/ERC20.sol\":11347:11590  if (currentAllowance != type(uint256).max) {... */\n    tag_156:\n        /* \"https://github.com/OpenZeppelin/openzeppelin-contracts/blob/master/contracts/token/ERC20/ERC20.sol\":11275:11596  {... */\n      pop\n        /* \"https://github.com/OpenZeppelin/openzeppelin-contracts/blob/master/contracts/token/ERC20/ERC20.sol\":11155:11596  function _spendAllowance(... */\n      pop\n      pop\n      pop\n      jump\t// out\n        /* \"https://github.com/OpenZeppelin/openzeppelin-contracts/blob/master/contracts/token/ERC20/ERC20.sol\":7473:8291  function _transfer(... */\n    tag_102:\n        /* \"https://github.com/OpenZeppelin/openzeppelin-contracts/blob/master/contracts/token/ERC20/ERC20.sol\":7615:7616  0 */\n      0x00\n        /* \"https://github.com/OpenZeppelin/openzeppelin-contracts/blob/master/contracts/token/ERC20/ERC20.sol\":7599:7617  from != address(0) */\n      0xffffffffffffffffffffffffffffffffffffffff\n      and\n        /* \"https://github.com/OpenZeppelin/openzeppelin-contracts/blob/master/contracts/token/ERC20/ERC20.sol\":7599:7603  from */\n      dup4\n        /* \"https://github.com/OpenZeppelin/openzeppelin-contracts/blob/master/contracts/token/ERC20/ERC20.sol\":7599:7617  from != address(0) */\n      0xffffffffffffffffffffffffffffffffffffffff\n      and\n      eq\n      iszero\n        /* \"https://github.com/OpenZeppelin/openzeppelin-contracts/blob/master/contracts/token/ERC20/ERC20.sol\":7591:7659  require(from != address(0), \"ERC20: transfer from the zero address\") */\n      tag_162\n      jumpi\n      mload(0x40)\n      0x08c379a000000000000000000000000000000000000000000000000000000000\n      dup2\n      mstore\n      0x04\n      add\n      tag_163\n      swap1\n      tag_164\n      jump\t// in\n    tag_163:\n      mload(0x40)\n      dup1\n      swap2\n      sub\n      swap1\n      revert\n    tag_162:\n        /* \"https://github.com/OpenZeppelin/openzeppelin-contracts/blob/master/contracts/token/ERC20/ERC20.sol\":7691:7692  0 */\n      0x00\n        /* \"https://github.com/OpenZeppelin/openzeppelin-contracts/blob/master/contracts/token/ERC20/ERC20.sol\":7677:7693  to != address(0) */\n      0xffffffffffffffffffffffffffffffffffffffff\n      and\n        /* \"https://github.com/OpenZeppelin/openzeppelin-contracts/blob/master/contracts/token/ERC20/ERC20.sol\":7677:7679  to */\n      dup3\n        /* \"https://github.com/OpenZeppelin/openzeppelin-contracts/blob/master/contracts/token/ERC20/ERC20.sol\":7677:7693  to != address(0) */\n      0xffffffffffffffffffffffffffffffffffffffff\n      and\n      eq\n      iszero\n        /* \"https://github.com/OpenZeppelin/openzeppelin-contracts/blob/master/contracts/token/ERC20/ERC20.sol\":7669:7733  require(to != address(0), \"ERC20: transfer to the zero address\") */\n      tag_165\n      jumpi\n      mload(0x40)\n      0x08c379a000000000000000000000000000000000000000000000000000000000\n      dup2\n      mstore\n      0x04\n      add\n      tag_166\n      swap1\n      tag_167\n      jump\t// in\n    tag_166:\n      mload(0x40)\n      dup1\n      swap2\n      sub\n      swap1\n      revert\n    tag_165:\n        /* \"https://github.com/OpenZeppelin/openzeppelin-contracts/blob/master/contracts/token/ERC20/ERC20.sol\":7744:7782  _beforeTokenTransfer(from, to, amount) */\n      tag_168\n        /* \"https://github.com/OpenZeppelin/openzeppelin-contracts/blob/master/contracts/token/ERC20/ERC20.sol\":7765:7769  from */\n      dup4\n        /* \"https://github.com/OpenZeppelin/openzeppelin-contracts/blob/master/contracts/token/ERC20/ERC20.sol\":7771:7773  to */\n      dup4\n        /* \"https://github.com/OpenZeppelin/openzeppelin-contracts/blob/master/contracts/token/ERC20/ERC20.sol\":7775:7781  amount */\n      dup4\n        /* \"https://github.com/OpenZeppelin/openzeppelin-contracts/blob/master/contracts/token/ERC20/ERC20.sol\":7744:7764  _beforeTokenTransfer */\n      tag_169\n        /* \"https://github.com/OpenZeppelin/openzeppelin-contracts/blob/master/contracts/token/ERC20/ERC20.sol\":7744:7782  _beforeTokenTransfer(from, to, amount) */\n      jump\t// in\n    tag_168:\n        /* \"https://github.com/OpenZeppelin/openzeppelin-contracts/blob/master/contracts/token/ERC20/ERC20.sol\":7793:7812  uint256 fromBalance */\n      0x00\n        /* \"https://github.com/OpenZeppelin/openzeppelin-contracts/blob/master/contracts/token/ERC20/ERC20.sol\":7815:7824  _balances */\n      dup1\n        /* \"https://github.com/OpenZeppelin/openzeppelin-contracts/blob/master/contracts/token/ERC20/ERC20.sol\":7815:7830  _balances[from] */\n      0x00\n        /* \"https://github.com/OpenZeppelin/openzeppelin-contracts/blob/master/contracts/token/ERC20/ERC20.sol\":7825:7829  from */\n      dup6\n        /* \"https://github.com/OpenZeppelin/openzeppelin-contracts/blob/master/contracts/token/ERC20/ERC20.sol\":7815:7830  _balances[from] */\n      0xffffffffffffffffffffffffffffffffffffffff\n      and\n      0xffffffffffffffffffffffffffffffffffffffff\n      and\n      dup2\n      mstore\n      0x20\n      add\n      swap1\n      dup2\n      mstore\n      0x20\n      add\n      0x00\n      keccak256\n      sload\n        /* \"https://github.com/OpenZeppelin/openzeppelin-contracts/blob/master/contracts/token/ERC20/ERC20.sol\":7793:7830  uint256 fromBalance = _balances[from] */\n      swap1\n      pop\n        /* \"https://github.com/OpenZeppelin/openzeppelin-contracts/blob/master/contracts/token/ERC20/ERC20.sol\":7863:7869  amount */\n      dup2\n        /* \"https://github.com/OpenZeppelin/openzeppelin-contracts/blob/master/contracts/token/ERC20/ERC20.sol\":7848:7859  fromBalance */\n      dup2\n        /* \"https://github.com/OpenZeppelin/openzeppelin-contracts/blob/master/contracts/token/ERC20/ERC20.sol\":7848:7869  fromBalance >= amount */\n      lt\n      iszero\n        /* \"https://github.com/OpenZeppelin/openzeppelin-contracts/blob/master/contracts/token/ERC20/ERC20.sol\":7840:7912  require(fromBalance >= amount, \"ERC20: transfer amount exceeds balance\") */\n      tag_170\n      jumpi\n      mload(0x40)\n      0x08c379a000000000000000000000000000000000000000000000000000000000\n      dup2\n      mstore\n      0x04\n      add\n      tag_171\n      swap1\n      tag_172\n      jump\t// in\n    tag_171:\n      mload(0x40)\n      dup1\n      swap2\n      sub\n      swap1\n      revert\n    tag_170:\n        /* \"https://github.com/OpenZeppelin/openzeppelin-contracts/blob/master/contracts/token/ERC20/ERC20.sol\":7978:7984  amount */\n      dup2\n        /* \"https://github.com/OpenZeppelin/openzeppelin-contracts/blob/master/contracts/token/ERC20/ERC20.sol\":7964:7975  fromBalance */\n      dup2\n        /* \"https://github.com/OpenZeppelin/openzeppelin-contracts/blob/master/contracts/token/ERC20/ERC20.sol\":7964:7984  fromBalance - amount */\n      sub\n        /* \"https://github.com/OpenZeppelin/openzeppelin-contracts/blob/master/contracts/token/ERC20/ERC20.sol\":7946:7955  _balances */\n      0x00\n        /* \"https://github.com/OpenZeppelin/openzeppelin-contracts/blob/master/contracts/token/ERC20/ERC20.sol\":7946:7961  _balances[from] */\n      dup1\n        /* \"https://github.com/OpenZeppelin/openzeppelin-contracts/blob/master/contracts/token/ERC20/ERC20.sol\":7956:7960  from */\n      dup7\n        /* \"https://github.com/OpenZeppelin/openzeppelin-contracts/blob/master/contracts/token/ERC20/ERC20.sol\":7946:7961  _balances[from] */\n      0xffffffffffffffffffffffffffffffffffffffff\n      and\n      0xffffffffffffffffffffffffffffffffffffffff\n      and\n      dup2\n      mstore\n      0x20\n      add\n      swap1\n      dup2\n      mstore\n      0x20\n      add\n      0x00\n      keccak256\n        /* \"https://github.com/OpenZeppelin/openzeppelin-contracts/blob/master/contracts/token/ERC20/ERC20.sol\":7946:7984  _balances[from] = fromBalance - amount */\n      dup2\n      swap1\n      sstore\n      pop\n        /* \"https://github.com/OpenZeppelin/openzeppelin-contracts/blob/master/contracts/token/ERC20/ERC20.sol\":8178:8184  amount */\n      dup2\n        /* \"https://github.com/OpenZeppelin/openzeppelin-contracts/blob/master/contracts/token/ERC20/ERC20.sol\":8161:8170  _balances */\n      0x00\n        /* \"https://github.com/OpenZeppelin/openzeppelin-contracts/blob/master/contracts/token/ERC20/ERC20.sol\":8161:8174  _balances[to] */\n      dup1\n        /* \"https://github.com/OpenZeppelin/openzeppelin-contracts/blob/master/contracts/token/ERC20/ERC20.sol\":8171:8173  to */\n      dup6\n        /* \"https://github.com/OpenZeppelin/openzeppelin-contracts/blob/master/contracts/token/ERC20/ERC20.sol\":8161:8174  _balances[to] */\n      0xffffffffffffffffffffffffffffffffffffffff\n      and\n      0xffffffffffffffffffffffffffffffffffffffff\n      and\n      dup2\n      mstore\n      0x20\n      add\n      swap1\n      dup2\n      mstore\n      0x20\n      add\n      0x00\n      keccak256\n      0x00\n        /* \"https://github.com/OpenZeppelin/openzeppelin-contracts/blob/master/contracts/token/ERC20/ERC20.sol\":8161:8184  _balances[to] += amount */\n      dup3\n      dup3\n      sload\n      add\n      swap3\n      pop\n      pop\n      dup2\n      swap1\n      sstore\n      pop\n        /* \"https://github.com/OpenZeppelin/openzeppelin-contracts/blob/master/contracts/token/ERC20/ERC20.sol\":8225:8227  to */\n      dup3\n        /* \"https://github.com/OpenZeppelin/openzeppelin-contracts/blob/master/contracts/token/ERC20/ERC20.sol\":8210:8236  Transfer(from, to, amount) */\n      0xffffffffffffffffffffffffffffffffffffffff\n      and\n        /* \"https://github.com/OpenZeppelin/openzeppelin-contracts/blob/master/contracts/token/ERC20/ERC20.sol\":8219:8223  from */\n      dup5\n        /* \"https://github.com/OpenZeppelin/openzeppelin-contracts/blob/master/contracts/token/ERC20/ERC20.sol\":8210:8236  Transfer(from, to, amount) */\n      0xffffffffffffffffffffffffffffffffffffffff\n      and\n      0xddf252ad1be2c89b69c2b068fc378daa952ba7f163c4a11628f55a4df523b3ef\n        /* \"https://github.com/OpenZeppelin/openzeppelin-contracts/blob/master/contracts/token/ERC20/ERC20.sol\":8229:8235  amount */\n      dup5\n        /* \"https://github.com/OpenZeppelin/openzeppelin-contracts/blob/master/contracts/token/ERC20/ERC20.sol\":8210:8236  Transfer(from, to, amount) */\n      mload(0x40)\n      tag_173\n      swap2\n      swap1\n      tag_34\n      jump\t// in\n    tag_173:\n      mload(0x40)\n      dup1\n      swap2\n      sub\n      swap1\n      log3\n        /* \"https://github.com/OpenZeppelin/openzeppelin-contracts/blob/master/contracts/token/ERC20/ERC20.sol\":8247:8284  _afterTokenTransfer(from, to, amount) */\n      tag_174\n        /* \"https://github.com/OpenZeppelin/openzeppelin-contracts/blob/master/contracts/token/ERC20/ERC20.sol\":8267:8271  from */\n      dup5\n        /* \"https://github.com/OpenZeppelin/openzeppelin-contracts/blob/master/contracts/token/ERC20/ERC20.sol\":8273:8275  to */\n      dup5\n        /* \"https://github.com/OpenZeppelin/openzeppelin-contracts/blob/master/contracts/token/ERC20/ERC20.sol\":8277:8283  amount */\n      dup5\n        /* \"https://github.com/OpenZeppelin/openzeppelin-contracts/blob/master/contracts/token/ERC20/ERC20.sol\":8247:8266  _afterTokenTransfer */\n      tag_175\n        /* \"https://github.com/OpenZeppelin/openzeppelin-contracts/blob/master/contracts/token/ERC20/ERC20.sol\":8247:8284  _afterTokenTransfer(from, to, amount) */\n      jump\t// in\n    tag_174:\n        /* \"https://github.com/OpenZeppelin/openzeppelin-contracts/blob/master/contracts/token/ERC20/ERC20.sol\":7581:8291  {... */\n      pop\n        /* \"https://github.com/OpenZeppelin/openzeppelin-contracts/blob/master/contracts/token/ERC20/ERC20.sol\":7473:8291  function _transfer(... */\n      pop\n      pop\n      pop\n      jump\t// out\n        /* \"https://github.com/OpenZeppelin/openzeppelin-contracts/blob/master/contracts/token/ERC20/ERC20.sol\":8567:9102  function _mint(address account, uint256 amount) internal virtual {... */\n    tag_115:\n        /* \"https://github.com/OpenZeppelin/openzeppelin-contracts/blob/master/contracts/token/ERC20/ERC20.sol\":8669:8670  0 */\n      0x00\n        /* \"https://github.com/OpenZeppelin/openzeppelin-contracts/blob/master/contracts/token/ERC20/ERC20.sol\":8650:8671  account != address(0) */\n      0xffffffffffffffffffffffffffffffffffffffff\n      and\n        /* \"https://github.com/OpenZeppelin/openzeppelin-contracts/blob/master/contracts/token/ERC20/ERC20.sol\":8650:8657  account */\n      dup3\n        /* \"https://github.com/OpenZeppelin/openzeppelin-contracts/blob/master/contracts/token/ERC20/ERC20.sol\":8650:8671  account != address(0) */\n      0xffffffffffffffffffffffffffffffffffffffff\n      and\n      eq\n      iszero\n        /* \"https://github.com/OpenZeppelin/openzeppelin-contracts/blob/master/contracts/token/ERC20/ERC20.sol\":8642:8707  require(account != address(0), \"ERC20: mint to the zero address\") */\n      tag_177\n      jumpi\n      mload(0x40)\n      0x08c379a000000000000000000000000000000000000000000000000000000000\n      dup2\n      mstore\n      0x04\n      add\n      tag_178\n      swap1\n      tag_179\n      jump\t// in\n    tag_178:\n      mload(0x40)\n      dup1\n      swap2\n      sub\n      swap1\n      revert\n    tag_177:\n        /* \"https://github.com/OpenZeppelin/openzeppelin-contracts/blob/master/contracts/token/ERC20/ERC20.sol\":8718:8767  _beforeTokenTransfer(address(0), account, amount) */\n      tag_180\n        /* \"https://github.com/OpenZeppelin/openzeppelin-contracts/blob/master/contracts/token/ERC20/ERC20.sol\":8747:8748  0 */\n      0x00\n        /* \"https://github.com/OpenZeppelin/openzeppelin-contracts/blob/master/contracts/token/ERC20/ERC20.sol\":8751:8758  account */\n      dup4\n        /* \"https://github.com/OpenZeppelin/openzeppelin-contracts/blob/master/contracts/token/ERC20/ERC20.sol\":8760:8766  amount */\n      dup4\n        /* \"https://github.com/OpenZeppelin/openzeppelin-contracts/blob/master/contracts/token/ERC20/ERC20.sol\":8718:8738  _beforeTokenTransfer */\n      tag_169\n        /* \"https://github.com/OpenZeppelin/openzeppelin-contracts/blob/master/contracts/token/ERC20/ERC20.sol\":8718:8767  _beforeTokenTransfer(address(0), account, amount) */\n      jump\t// in\n    tag_180:\n        /* \"https://github.com/OpenZeppelin/openzeppelin-contracts/blob/master/contracts/token/ERC20/ERC20.sol\":8794:8800  amount */\n      dup1\n        /* \"https://github.com/OpenZeppelin/openzeppelin-contracts/blob/master/contracts/token/ERC20/ERC20.sol\":8778:8790  _totalSupply */\n      0x02\n      0x00\n        /* \"https://github.com/OpenZeppelin/openzeppelin-contracts/blob/master/contracts/token/ERC20/ERC20.sol\":8778:8800  _totalSupply += amount */\n      dup3\n      dup3\n      sload\n      tag_181\n      swap2\n      swap1\n      tag_109\n      jump\t// in\n    tag_181:\n      swap3\n      pop\n      pop\n      dup2\n      swap1\n      sstore\n      pop\n        /* \"https://github.com/OpenZeppelin/openzeppelin-contracts/blob/master/contracts/token/ERC20/ERC20.sol\":8968:8974  amount */\n      dup1\n        /* \"https://github.com/OpenZeppelin/openzeppelin-contracts/blob/master/contracts/token/ERC20/ERC20.sol\":8946:8955  _balances */\n      0x00\n        /* \"https://github.com/OpenZeppelin/openzeppelin-contracts/blob/master/contracts/token/ERC20/ERC20.sol\":8946:8964  _balances[account] */\n      dup1\n        /* \"https://github.com/OpenZeppelin/openzeppelin-contracts/blob/master/contracts/token/ERC20/ERC20.sol\":8956:8963  account */\n      dup5\n        /* \"https://github.com/OpenZeppelin/openzeppelin-contracts/blob/master/contracts/token/ERC20/ERC20.sol\":8946:8964  _balances[account] */\n      0xffffffffffffffffffffffffffffffffffffffff\n      and\n      0xffffffffffffffffffffffffffffffffffffffff\n      and\n      dup2\n      mstore\n      0x20\n      add\n      swap1\n      dup2\n      mstore\n      0x20\n      add\n      0x00\n      keccak256\n      0x00\n        /* \"https://github.com/OpenZeppelin/openzeppelin-contracts/blob/master/contracts/token/ERC20/ERC20.sol\":8946:8974  _balances[account] += amount */\n      dup3\n      dup3\n      sload\n      add\n      swap3\n      pop\n      pop\n      dup2\n      swap1\n      sstore\n      pop\n        /* \"https://github.com/OpenZeppelin/openzeppelin-contracts/blob/master/contracts/token/ERC20/ERC20.sol\":9020:9027  account */\n      dup2\n        /* \"https://github.com/OpenZeppelin/openzeppelin-contracts/blob/master/contracts/token/ERC20/ERC20.sol\":8999:9036  Transfer(address(0), account, amount) */\n      0xffffffffffffffffffffffffffffffffffffffff\n      and\n        /* \"https://github.com/OpenZeppelin/openzeppelin-contracts/blob/master/contracts/token/ERC20/ERC20.sol\":9016:9017  0 */\n      0x00\n        /* \"https://github.com/OpenZeppelin/openzeppelin-contracts/blob/master/contracts/token/ERC20/ERC20.sol\":8999:9036  Transfer(address(0), account, amount) */\n      0xffffffffffffffffffffffffffffffffffffffff\n      and\n      0xddf252ad1be2c89b69c2b068fc378daa952ba7f163c4a11628f55a4df523b3ef\n        /* \"https://github.com/OpenZeppelin/openzeppelin-contracts/blob/master/contracts/token/ERC20/ERC20.sol\":9029:9035  amount */\n      dup4\n        /* \"https://github.com/OpenZeppelin/openzeppelin-contracts/blob/master/contracts/token/ERC20/ERC20.sol\":8999:9036  Transfer(address(0), account, amount) */\n      mload(0x40)\n      tag_182\n      swap2\n      swap1\n      tag_34\n      jump\t// in\n    tag_182:\n      mload(0x40)\n      dup1\n      swap2\n      sub\n      swap1\n      log3\n        /* \"https://github.com/OpenZeppelin/openzeppelin-contracts/blob/master/contracts/token/ERC20/ERC20.sol\":9047:9095  _afterTokenTransfer(address(0), account, amount) */\n      tag_183\n        /* \"https://github.com/OpenZeppelin/openzeppelin-contracts/blob/master/contracts/token/ERC20/ERC20.sol\":9075:9076  0 */\n      0x00\n        /* \"https://github.com/OpenZeppelin/openzeppelin-contracts/blob/master/contracts/token/ERC20/ERC20.sol\":9079:9086  account */\n      dup4\n        /* \"https://github.com/OpenZeppelin/openzeppelin-contracts/blob/master/contracts/token/ERC20/ERC20.sol\":9088:9094  amount */\n      dup4\n        /* \"https://github.com/OpenZeppelin/openzeppelin-contracts/blob/master/contracts/token/ERC20/ERC20.sol\":9047:9066  _afterTokenTransfer */\n      tag_175\n        /* \"https://github.com/OpenZeppelin/openzeppelin-contracts/blob/master/contracts/token/ERC20/ERC20.sol\":9047:9095  _afterTokenTransfer(address(0), account, amount) */\n      jump\t// in\n    tag_183:\n        /* \"https://github.com/OpenZeppelin/openzeppelin-contracts/blob/master/contracts/token/ERC20/ERC20.sol\":8567:9102  function _mint(address account, uint256 amount) internal virtual {... */\n      pop\n      pop\n      jump\t// out\n        /* \"https://github.com/OpenZeppelin/openzeppelin-contracts/blob/master/contracts/token/ERC20/ERC20.sol\":9422:10081  function _burn(address account, uint256 amount) internal virtual {... */\n    tag_118:\n        /* \"https://github.com/OpenZeppelin/openzeppelin-contracts/blob/master/contracts/token/ERC20/ERC20.sol\":9524:9525  0 */\n      0x00\n        /* \"https://github.com/OpenZeppelin/openzeppelin-contracts/blob/master/contracts/token/ERC20/ERC20.sol\":9505:9526  account != address(0) */\n      0xffffffffffffffffffffffffffffffffffffffff\n      and\n        /* \"https://github.com/OpenZeppelin/openzeppelin-contracts/blob/master/contracts/token/ERC20/ERC20.sol\":9505:9512  account */\n      dup3\n        /* \"https://github.com/OpenZeppelin/openzeppelin-contracts/blob/master/contracts/token/ERC20/ERC20.sol\":9505:9526  account != address(0) */\n      0xffffffffffffffffffffffffffffffffffffffff\n      and\n      eq\n      iszero\n        /* \"https://github.com/OpenZeppelin/openzeppelin-contracts/blob/master/contracts/token/ERC20/ERC20.sol\":9497:9564  require(account != address(0), \"ERC20: burn from the zero address\") */\n      tag_185\n      jumpi\n      mload(0x40)\n      0x08c379a000000000000000000000000000000000000000000000000000000000\n      dup2\n      mstore\n      0x04\n      add\n      tag_186\n      swap1\n      tag_187\n      jump\t// in\n    tag_186:\n      mload(0x40)\n      dup1\n      swap2\n      sub\n      swap1\n      revert\n    tag_185:\n        /* \"https://github.com/OpenZeppelin/openzeppelin-contracts/blob/master/contracts/token/ERC20/ERC20.sol\":9575:9624  _beforeTokenTransfer(account, address(0), amount) */\n      tag_188\n        /* \"https://github.com/OpenZeppelin/openzeppelin-contracts/blob/master/contracts/token/ERC20/ERC20.sol\":9596:9603  account */\n      dup3\n        /* \"https://github.com/OpenZeppelin/openzeppelin-contracts/blob/master/contracts/token/ERC20/ERC20.sol\":9613:9614  0 */\n      0x00\n        /* \"https://github.com/OpenZeppelin/openzeppelin-contracts/blob/master/contracts/token/ERC20/ERC20.sol\":9617:9623  amount */\n      dup4\n        /* \"https://github.com/OpenZeppelin/openzeppelin-contracts/blob/master/contracts/token/ERC20/ERC20.sol\":9575:9595  _beforeTokenTransfer */\n      tag_169\n        /* \"https://github.com/OpenZeppelin/openzeppelin-contracts/blob/master/contracts/token/ERC20/ERC20.sol\":9575:9624  _beforeTokenTransfer(account, address(0), amount) */\n      jump\t// in\n    tag_188:\n        /* \"https://github.com/OpenZeppelin/openzeppelin-contracts/blob/master/contracts/token/ERC20/ERC20.sol\":9635:9657  uint256 accountBalance */\n      0x00\n        /* \"https://github.com/OpenZeppelin/openzeppelin-contracts/blob/master/contracts/token/ERC20/ERC20.sol\":9660:9669  _balances */\n      dup1\n        /* \"https://github.com/OpenZeppelin/openzeppelin-contracts/blob/master/contracts/token/ERC20/ERC20.sol\":9660:9678  _balances[account] */\n      0x00\n        /* \"https://github.com/OpenZeppelin/openzeppelin-contracts/blob/master/contracts/token/ERC20/ERC20.sol\":9670:9677  account */\n      dup5\n        /* \"https://github.com/OpenZeppelin/openzeppelin-contracts/blob/master/contracts/token/ERC20/ERC20.sol\":9660:9678  _balances[account] */\n      0xffffffffffffffffffffffffffffffffffffffff\n      and\n      0xffffffffffffffffffffffffffffffffffffffff\n      and\n      dup2\n      mstore\n      0x20\n      add\n      swap1\n      dup2\n      mstore\n      0x20\n      add\n      0x00\n      keccak256\n      sload\n        /* \"https://github.com/OpenZeppelin/openzeppelin-contracts/blob/master/contracts/token/ERC20/ERC20.sol\":9635:9678  uint256 accountBalance = _balances[account] */\n      swap1\n      pop\n        /* \"https://github.com/OpenZeppelin/openzeppelin-contracts/blob/master/contracts/token/ERC20/ERC20.sol\":9714:9720  amount */\n      dup2\n        /* \"https://github.com/OpenZeppelin/openzeppelin-contracts/blob/master/contracts/token/ERC20/ERC20.sol\":9696:9710  accountBalance */\n      dup2\n        /* \"https://github.com/OpenZeppelin/openzeppelin-contracts/blob/master/contracts/token/ERC20/ERC20.sol\":9696:9720  accountBalance >= amount */\n      lt\n      iszero\n        /* \"https://github.com/OpenZeppelin/openzeppelin-contracts/blob/master/contracts/token/ERC20/ERC20.sol\":9688:9759  require(accountBalance >= amount, \"ERC20: burn amount exceeds balance\") */\n      tag_189\n      jumpi\n      mload(0x40)\n      0x08c379a000000000000000000000000000000000000000000000000000000000\n      dup2\n      mstore\n      0x04\n      add\n      tag_190\n      swap1\n      tag_191\n      jump\t// in\n    tag_190:\n      mload(0x40)\n      dup1\n      swap2\n      sub\n      swap1\n      revert\n    tag_189:\n        /* \"https://github.com/OpenZeppelin/openzeppelin-contracts/blob/master/contracts/token/ERC20/ERC20.sol\":9831:9837  amount */\n      dup2\n        /* \"https://github.com/OpenZeppelin/openzeppelin-contracts/blob/master/contracts/token/ERC20/ERC20.sol\":9814:9828  accountBalance */\n      dup2\n        /* \"https://github.com/OpenZeppelin/openzeppelin-contracts/blob/master/contracts/token/ERC20/ERC20.sol\":9814:9837  accountBalance - amount */\n      sub\n        /* \"https://github.com/OpenZeppelin/openzeppelin-contracts/blob/master/contracts/token/ERC20/ERC20.sol\":9793:9802  _balances */\n      0x00\n        /* \"https://github.com/OpenZeppelin/openzeppelin-contracts/blob/master/contracts/token/ERC20/ERC20.sol\":9793:9811  _balances[account] */\n      dup1\n        /* \"https://github.com/OpenZeppelin/openzeppelin-contracts/blob/master/contracts/token/ERC20/ERC20.sol\":9803:9810  account */\n      dup6\n        /* \"https://github.com/OpenZeppelin/openzeppelin-contracts/blob/master/contracts/token/ERC20/ERC20.sol\":9793:9811  _balances[account] */\n      0xffffffffffffffffffffffffffffffffffffffff\n      and\n      0xffffffffffffffffffffffffffffffffffffffff\n      and\n      dup2\n      mstore\n      0x20\n      add\n      swap1\n      dup2\n      mstore\n      0x20\n      add\n      0x00\n      keccak256\n        /* \"https://github.com/OpenZeppelin/openzeppelin-contracts/blob/master/contracts/token/ERC20/ERC20.sol\":9793:9837  _balances[account] = accountBalance - amount */\n      dup2\n      swap1\n      sstore\n      pop\n        /* \"https://github.com/OpenZeppelin/openzeppelin-contracts/blob/master/contracts/token/ERC20/ERC20.sol\":9946:9952  amount */\n      dup2\n        /* \"https://github.com/OpenZeppelin/openzeppelin-contracts/blob/master/contracts/token/ERC20/ERC20.sol\":9930:9942  _totalSupply */\n      0x02\n      0x00\n        /* \"https://github.com/OpenZeppelin/openzeppelin-contracts/blob/master/contracts/token/ERC20/ERC20.sol\":9930:9952  _totalSupply -= amount */\n      dup3\n      dup3\n      sload\n      sub\n      swap3\n      pop\n      pop\n      dup2\n      swap1\n      sstore\n      pop\n        /* \"https://github.com/OpenZeppelin/openzeppelin-contracts/blob/master/contracts/token/ERC20/ERC20.sol\":10004:10005  0 */\n      0x00\n        /* \"https://github.com/OpenZeppelin/openzeppelin-contracts/blob/master/contracts/token/ERC20/ERC20.sol\":9978:10015  Transfer(account, address(0), amount) */\n      0xffffffffffffffffffffffffffffffffffffffff\n      and\n        /* \"https://github.com/OpenZeppelin/openzeppelin-contracts/blob/master/contracts/token/ERC20/ERC20.sol\":9987:9994  account */\n      dup4\n        /* \"https://github.com/OpenZeppelin/openzeppelin-contracts/blob/master/contracts/token/ERC20/ERC20.sol\":9978:10015  Transfer(account, address(0), amount) */\n      0xffffffffffffffffffffffffffffffffffffffff\n      and\n      0xddf252ad1be2c89b69c2b068fc378daa952ba7f163c4a11628f55a4df523b3ef\n        /* \"https://github.com/OpenZeppelin/openzeppelin-contracts/blob/master/contracts/token/ERC20/ERC20.sol\":10008:10014  amount */\n      dup5\n        /* \"https://github.com/OpenZeppelin/openzeppelin-contracts/blob/master/contracts/token/ERC20/ERC20.sol\":9978:10015  Transfer(account, address(0), amount) */\n      mload(0x40)\n      tag_192\n      swap2\n      swap1\n      tag_34\n      jump\t// in\n    tag_192:\n      mload(0x40)\n      dup1\n      swap2\n      sub\n      swap1\n      log3\n        /* \"https://github.com/OpenZeppelin/openzeppelin-contracts/blob/master/contracts/token/ERC20/ERC20.sol\":10026:10074  _afterTokenTransfer(account, address(0), amount) */\n      tag_193\n        /* \"https://github.com/OpenZeppelin/openzeppelin-contracts/blob/master/contracts/token/ERC20/ERC20.sol\":10046:10053  account */\n      dup4\n        /* \"https://github.com/OpenZeppelin/openzeppelin-contracts/blob/master/contracts/token/ERC20/ERC20.sol\":10063:10064  0 */\n      0x00\n        /* \"https://github.com/OpenZeppelin/openzeppelin-contracts/blob/master/contracts/token/ERC20/ERC20.sol\":10067:10073  amount */\n      dup5\n        /* \"https://github.com/OpenZeppelin/openzeppelin-contracts/blob/master/contracts/token/ERC20/ERC20.sol\":10026:10045  _afterTokenTransfer */\n      tag_175\n        /* \"https://github.com/OpenZeppelin/openzeppelin-contracts/blob/master/contracts/token/ERC20/ERC20.sol\":10026:10074  _afterTokenTransfer(account, address(0), amount) */\n      jump\t// in\n    tag_193:\n        /* \"https://github.com/OpenZeppelin/openzeppelin-contracts/blob/master/contracts/token/ERC20/ERC20.sol\":9487:10081  {... */\n      pop\n        /* \"https://github.com/OpenZeppelin/openzeppelin-contracts/blob/master/contracts/token/ERC20/ERC20.sol\":9422:10081  function _burn(address account, uint256 amount) internal virtual {... */\n      pop\n      pop\n      jump\t// out\n        /* \"https://github.com/OpenZeppelin/openzeppelin-contracts/blob/master/contracts/token/ERC20/ERC20.sol\":12180:12301  function _beforeTokenTransfer(... */\n    tag_169:\n      pop\n      pop\n      pop\n      jump\t// out\n        /* \"https://github.com/OpenZeppelin/openzeppelin-contracts/blob/master/contracts/token/ERC20/ERC20.sol\":12889:13009  function _afterTokenTransfer(... */\n    tag_175:\n      pop\n      pop\n      pop\n      jump\t// out\n        /* \"#utility.yul\":7:146   */\n    tag_197:\n        /* \"#utility.yul\":53:58   */\n      0x00\n        /* \"#utility.yul\":91:97   */\n      dup2\n        /* \"#utility.yul\":78:98   */\n      calldataload\n        /* \"#utility.yul\":69:98   */\n      swap1\n      pop\n        /* \"#utility.yul\":107:140   */\n      tag_199\n        /* \"#utility.yul\":134:139   */\n      dup2\n        /* \"#utility.yul\":107:140   */\n      tag_200\n      jump\t// in\n    tag_199:\n        /* \"#utility.yul\":7:146   */\n      swap3\n      swap2\n      pop\n      pop\n      jump\t// out\n        /* \"#utility.yul\":152:289   */\n    tag_201:\n        /* \"#utility.yul\":206:211   */\n      0x00\n        /* \"#utility.yul\":237:243   */\n      dup2\n        /* \"#utility.yul\":231:244   */\n      mload\n        /* \"#utility.yul\":222:244   */\n      swap1\n      pop\n        /* \"#utility.yul\":253:283   */\n      tag_203\n        /* \"#utility.yul\":277:282   */\n      dup2\n        /* \"#utility.yul\":253:283   */\n      tag_204\n      jump\t// in\n    tag_203:\n        /* \"#utility.yul\":152:289   */\n      swap3\n      swap2\n      pop\n      pop\n      jump\t// out\n        /* \"#utility.yul\":295:462   */\n    tag_205:\n        /* \"#utility.yul\":355:360   */\n      0x00\n        /* \"#utility.yul\":393:399   */\n      dup2\n        /* \"#utility.yul\":380:400   */\n      calldataload\n        /* \"#utility.yul\":371:400   */\n      swap1\n      pop\n        /* \"#utility.yul\":409:456   */\n      tag_207\n        /* \"#utility.yul\":450:455   */\n      dup2\n        /* \"#utility.yul\":409:456   */\n      tag_208\n      jump\t// in\n    tag_207:\n        /* \"#utility.yul\":295:462   */\n      swap3\n      swap2\n      pop\n      pop\n      jump\t// out\n        /* \"#utility.yul\":468:607   */\n    tag_209:\n        /* \"#utility.yul\":514:519   */\n      0x00\n        /* \"#utility.yul\":552:558   */\n      dup2\n        /* \"#utility.yul\":539:559   */\n      calldataload\n        /* \"#utility.yul\":530:559   */\n      swap1\n      pop\n        /* \"#utility.yul\":568:601   */\n      tag_211\n        /* \"#utility.yul\":595:600   */\n      dup2\n        /* \"#utility.yul\":568:601   */\n      tag_212\n      jump\t// in\n    tag_211:\n        /* \"#utility.yul\":468:607   */\n      swap3\n      swap2\n      pop\n      pop\n      jump\t// out\n        /* \"#utility.yul\":613:942   */\n    tag_57:\n        /* \"#utility.yul\":672:678   */\n      0x00\n        /* \"#utility.yul\":721:723   */\n      0x20\n        /* \"#utility.yul\":709:718   */\n      dup3\n        /* \"#utility.yul\":700:707   */\n      dup5\n        /* \"#utility.yul\":696:719   */\n      sub\n        /* \"#utility.yul\":692:724   */\n      slt\n        /* \"#utility.yul\":689:808   */\n      iszero\n      tag_214\n      jumpi\n        /* \"#utility.yul\":727:806   */\n      tag_215\n      tag_216\n      jump\t// in\n    tag_215:\n        /* \"#utility.yul\":689:808   */\n    tag_214:\n        /* \"#utility.yul\":847:848   */\n      0x00\n        /* \"#utility.yul\":872:925   */\n      tag_217\n        /* \"#utility.yul\":917:924   */\n      dup5\n        /* \"#utility.yul\":908:914   */\n      dup3\n        /* \"#utility.yul\":897:906   */\n      dup6\n        /* \"#utility.yul\":893:915   */\n      add\n        /* \"#utility.yul\":872:925   */\n      tag_197\n      jump\t// in\n    tag_217:\n        /* \"#utility.yul\":862:925   */\n      swap2\n      pop\n        /* \"#utility.yul\":818:935   */\n      pop\n        /* \"#utility.yul\":613:942   */\n      swap3\n      swap2\n      pop\n      pop\n      jump\t// out\n        /* \"#utility.yul\":948:1422   */\n    tag_77:\n        /* \"#utility.yul\":1016:1022   */\n      0x00\n        /* \"#utility.yul\":1024:1030   */\n      dup1\n        /* \"#utility.yul\":1073:1075   */\n      0x40\n        /* \"#utility.yul\":1061:1070   */\n      dup4\n        /* \"#utility.yul\":1052:1059   */\n      dup6\n        /* \"#utility.yul\":1048:1071   */\n      sub\n        /* \"#utility.yul\":1044:1076   */\n      slt\n        /* \"#utility.yul\":1041:1160   */\n      iszero\n      tag_219\n      jumpi\n        /* \"#utility.yul\":1079:1158   */\n      tag_220\n      tag_216\n      jump\t// in\n    tag_220:\n        /* \"#utility.yul\":1041:1160   */\n    tag_219:\n        /* \"#utility.yul\":1199:1200   */\n      0x00\n        /* \"#utility.yul\":1224:1277   */\n      tag_221\n        /* \"#utility.yul\":1269:1276   */\n      dup6\n        /* \"#utility.yul\":1260:1266   */\n      dup3\n        /* \"#utility.yul\":1249:1258   */\n      dup7\n        /* \"#utility.yul\":1245:1267   */\n      add\n        /* \"#utility.yul\":1224:1277   */\n      tag_197\n      jump\t// in\n    tag_221:\n        /* \"#utility.yul\":1214:1277   */\n      swap3\n      pop\n        /* \"#utility.yul\":1170:1287   */\n      pop\n        /* \"#utility.yul\":1326:1328   */\n      0x20\n        /* \"#utility.yul\":1352:1405   */\n      tag_222\n        /* \"#utility.yul\":1397:1404   */\n      dup6\n        /* \"#utility.yul\":1388:1394   */\n      dup3\n        /* \"#utility.yul\":1377:1386   */\n      dup7\n        /* \"#utility.yul\":1373:1395   */\n      add\n        /* \"#utility.yul\":1352:1405   */\n      tag_197\n      jump\t// in\n    tag_222:\n        /* \"#utility.yul\":1342:1405   */\n      swap2\n      pop\n        /* \"#utility.yul\":1297:1415   */\n      pop\n        /* \"#utility.yul\":948:1422   */\n      swap3\n      pop\n      swap3\n      swap1\n      pop\n      jump\t// out\n        /* \"#utility.yul\":1428:2047   */\n    tag_37:\n        /* \"#utility.yul\":1505:1511   */\n      0x00\n        /* \"#utility.yul\":1513:1519   */\n      dup1\n        /* \"#utility.yul\":1521:1527   */\n      0x00\n        /* \"#utility.yul\":1570:1572   */\n      0x60\n        /* \"#utility.yul\":1558:1567   */\n      dup5\n        /* \"#utility.yul\":1549:1556   */\n      dup7\n        /* \"#utility.yul\":1545:1568   */\n      sub\n        /* \"#utility.yul\":1541:1573   */\n      slt\n        /* \"#utility.yul\":1538:1657   */\n      iszero\n      tag_224\n      jumpi\n        /* \"#utility.yul\":1576:1655   */\n      tag_225\n      tag_216\n      jump\t// in\n    tag_225:\n        /* \"#utility.yul\":1538:1657   */\n    tag_224:\n        /* \"#utility.yul\":1696:1697   */\n      0x00\n        /* \"#utility.yul\":1721:1774   */\n      tag_226\n        /* \"#utility.yul\":1766:1773   */\n      dup7\n        /* \"#utility.yul\":1757:1763   */\n      dup3\n        /* \"#utility.yul\":1746:1755   */\n      dup8\n        /* \"#utility.yul\":1742:1764   */\n      add\n        /* \"#utility.yul\":1721:1774   */\n      tag_197\n      jump\t// in\n    tag_226:\n        /* \"#utility.yul\":1711:1774   */\n      swap4\n      pop\n        /* \"#utility.yul\":1667:1784   */\n      pop\n        /* \"#utility.yul\":1823:1825   */\n      0x20\n        /* \"#utility.yul\":1849:1902   */\n      tag_227\n        /* \"#utility.yul\":1894:1901   */\n      dup7\n        /* \"#utility.yul\":1885:1891   */\n      dup3\n        /* \"#utility.yul\":1874:1883   */\n      dup8\n        /* \"#utility.yul\":1870:1892   */\n      add\n        /* \"#utility.yul\":1849:1902   */\n      tag_197\n      jump\t// in\n    tag_227:\n        /* \"#utility.yul\":1839:1902   */\n      swap3\n      pop\n        /* \"#utility.yul\":1794:1912   */\n      pop\n        /* \"#utility.yul\":1951:1953   */\n      0x40\n        /* \"#utility.yul\":1977:2030   */\n      tag_228\n        /* \"#utility.yul\":2022:2029   */\n      dup7\n        /* \"#utility.yul\":2013:2019   */\n      dup3\n        /* \"#utility.yul\":2002:2011   */\n      dup8\n        /* \"#utility.yul\":1998:2020   */\n      add\n        /* \"#utility.yul\":1977:2030   */\n      tag_209\n      jump\t// in\n    tag_228:\n        /* \"#utility.yul\":1967:2030   */\n      swap2\n      pop\n        /* \"#utility.yul\":1922:2040   */\n      pop\n        /* \"#utility.yul\":1428:2047   */\n      swap3\n      pop\n      swap3\n      pop\n      swap3\n      jump\t// out\n        /* \"#utility.yul\":2053:2527   */\n    tag_27:\n        /* \"#utility.yul\":2121:2127   */\n      0x00\n        /* \"#utility.yul\":2129:2135   */\n      dup1\n        /* \"#utility.yul\":2178:2180   */\n      0x40\n        /* \"#utility.yul\":2166:2175   */\n      dup4\n        /* \"#utility.yul\":2157:2164   */\n      dup6\n        /* \"#utility.yul\":2153:2176   */\n      sub\n        /* \"#utility.yul\":2149:2181   */\n      slt\n        /* \"#utility.yul\":2146:2265   */\n      iszero\n      tag_230\n      jumpi\n        /* \"#utility.yul\":2184:2263   */\n      tag_231\n      tag_216\n      jump\t// in\n    tag_231:\n        /* \"#utility.yul\":2146:2265   */\n    tag_230:\n        /* \"#utility.yul\":2304:2305   */\n      0x00\n        /* \"#utility.yul\":2329:2382   */\n      tag_232\n        /* \"#utility.yul\":2374:2381   */\n      dup6\n        /* \"#utility.yul\":2365:2371   */\n      dup3\n        /* \"#utility.yul\":2354:2363   */\n      dup7\n        /* \"#utility.yul\":2350:2372   */\n      add\n        /* \"#utility.yul\":2329:2382   */\n      tag_197\n      jump\t// in\n    tag_232:\n        /* \"#utility.yul\":2319:2382   */\n      swap3\n      pop\n        /* \"#utility.yul\":2275:2392   */\n      pop\n        /* \"#utility.yul\":2431:2433   */\n      0x20\n        /* \"#utility.yul\":2457:2510   */\n      tag_233\n        /* \"#utility.yul\":2502:2509   */\n      dup6\n        /* \"#utility.yul\":2493:2499   */\n      dup3\n        /* \"#utility.yul\":2482:2491   */\n      dup7\n        /* \"#utility.yul\":2478:2500   */\n      add\n        /* \"#utility.yul\":2457:2510   */\n      tag_209\n      jump\t// in\n    tag_233:\n        /* \"#utility.yul\":2447:2510   */\n      swap2\n      pop\n        /* \"#utility.yul\":2402:2520   */\n      pop\n        /* \"#utility.yul\":2053:2527   */\n      swap3\n      pop\n      swap3\n      swap1\n      pop\n      jump\t// out\n        /* \"#utility.yul\":2533:2878   */\n    tag_127:\n        /* \"#utility.yul\":2600:2606   */\n      0x00\n        /* \"#utility.yul\":2649:2651   */\n      0x20\n        /* \"#utility.yul\":2637:2646   */\n      dup3\n        /* \"#utility.yul\":2628:2635   */\n      dup5\n        /* \"#utility.yul\":2624:2647   */\n      sub\n        /* \"#utility.yul\":2620:2652   */\n      slt\n        /* \"#utility.yul\":2617:2736   */\n      iszero\n      tag_235\n      jumpi\n        /* \"#utility.yul\":2655:2734   */\n      tag_236\n      tag_216\n      jump\t// in\n    tag_236:\n        /* \"#utility.yul\":2617:2736   */\n    tag_235:\n        /* \"#utility.yul\":2775:2776   */\n      0x00\n        /* \"#utility.yul\":2800:2861   */\n      tag_237\n        /* \"#utility.yul\":2853:2860   */\n      dup5\n        /* \"#utility.yul\":2844:2850   */\n      dup3\n        /* \"#utility.yul\":2833:2842   */\n      dup6\n        /* \"#utility.yul\":2829:2851   */\n      add\n        /* \"#utility.yul\":2800:2861   */\n      tag_201\n      jump\t// in\n    tag_237:\n        /* \"#utility.yul\":2790:2861   */\n      swap2\n      pop\n        /* \"#utility.yul\":2746:2871   */\n      pop\n        /* \"#utility.yul\":2533:2878   */\n      swap3\n      swap2\n      pop\n      pop\n      jump\t// out\n        /* \"#utility.yul\":2884:3531   */\n    tag_62:\n        /* \"#utility.yul\":2975:2981   */\n      0x00\n        /* \"#utility.yul\":2983:2989   */\n      dup1\n        /* \"#utility.yul\":2991:2997   */\n      0x00\n        /* \"#utility.yul\":3040:3042   */\n      0x60\n        /* \"#utility.yul\":3028:3037   */\n      dup5\n        /* \"#utility.yul\":3019:3026   */\n      dup7\n        /* \"#utility.yul\":3015:3038   */\n      sub\n        /* \"#utility.yul\":3011:3043   */\n      slt\n        /* \"#utility.yul\":3008:3127   */\n      iszero\n      tag_239\n      jumpi\n        /* \"#utility.yul\":3046:3125   */\n      tag_240\n      tag_216\n      jump\t// in\n    tag_240:\n        /* \"#utility.yul\":3008:3127   */\n    tag_239:\n        /* \"#utility.yul\":3166:3167   */\n      0x00\n        /* \"#utility.yul\":3191:3258   */\n      tag_241\n        /* \"#utility.yul\":3250:3257   */\n      dup7\n        /* \"#utility.yul\":3241:3247   */\n      dup3\n        /* \"#utility.yul\":3230:3239   */\n      dup8\n        /* \"#utility.yul\":3226:3248   */\n      add\n        /* \"#utility.yul\":3191:3258   */\n      tag_205\n      jump\t// in\n    tag_241:\n        /* \"#utility.yul\":3181:3258   */\n      swap4\n      pop\n        /* \"#utility.yul\":3137:3268   */\n      pop\n        /* \"#utility.yul\":3307:3309   */\n      0x20\n        /* \"#utility.yul\":3333:3386   */\n      tag_242\n        /* \"#utility.yul\":3378:3385   */\n      dup7\n        /* \"#utility.yul\":3369:3375   */\n      dup3\n        /* \"#utility.yul\":3358:3367   */\n      dup8\n        /* \"#utility.yul\":3354:3376   */\n      add\n        /* \"#utility.yul\":3333:3386   */\n      tag_197\n      jump\t// in\n    tag_242:\n        /* \"#utility.yul\":3323:3386   */\n      swap3\n      pop\n        /* \"#utility.yul\":3278:3396   */\n      pop\n        /* \"#utility.yul\":3435:3437   */\n      0x40\n        /* \"#utility.yul\":3461:3514   */\n      tag_243\n        /* \"#utility.yul\":3506:3513   */\n      dup7\n        /* \"#utility.yul\":3497:3503   */\n      dup3\n        /* \"#utility.yul\":3486:3495   */\n      dup8\n        /* \"#utility.yul\":3482:3504   */\n      add\n        /* \"#utility.yul\":3461:3514   */\n      tag_209\n      jump\t// in\n    tag_243:\n        /* \"#utility.yul\":3451:3514   */\n      swap2\n      pop\n        /* \"#utility.yul\":3406:3524   */\n      pop\n        /* \"#utility.yul\":2884:3531   */\n      swap3\n      pop\n      swap3\n      pop\n      swap3\n      jump\t// out\n        /* \"#utility.yul\":3537:3866   */\n    tag_53:\n        /* \"#utility.yul\":3596:3602   */\n      0x00\n        /* \"#utility.yul\":3645:3647   */\n      0x20\n        /* \"#utility.yul\":3633:3642   */\n      dup3\n        /* \"#utility.yul\":3624:3631   */\n      dup5\n        /* \"#utility.yul\":3620:3643   */\n      sub\n        /* \"#utility.yul\":3616:3648   */\n      slt\n        /* \"#utility.yul\":3613:3732   */\n      iszero\n      tag_245\n      jumpi\n        /* \"#utility.yul\":3651:3730   */\n      tag_246\n      tag_216\n      jump\t// in\n    tag_246:\n        /* \"#utility.yul\":3613:3732   */\n    tag_245:\n        /* \"#utility.yul\":3771:3772   */\n      0x00\n        /* \"#utility.yul\":3796:3849   */\n      tag_247\n        /* \"#utility.yul\":3841:3848   */\n      dup5\n        /* \"#utility.yul\":3832:3838   */\n      dup3\n        /* \"#utility.yul\":3821:3830   */\n      dup6\n        /* \"#utility.yul\":3817:3839   */\n      add\n        /* \"#utility.yul\":3796:3849   */\n      tag_209\n      jump\t// in\n    tag_247:\n        /* \"#utility.yul\":3786:3849   */\n      swap2\n      pop\n        /* \"#utility.yul\":3742:3859   */\n      pop\n        /* \"#utility.yul\":3537:3866   */\n      swap3\n      swap2\n      pop\n      pop\n      jump\t// out\n        /* \"#utility.yul\":3872:3990   */\n    tag_248:\n        /* \"#utility.yul\":3959:3983   */\n      tag_250\n        /* \"#utility.yul\":3977:3982   */\n      dup2\n        /* \"#utility.yul\":3959:3983   */\n      tag_251\n      jump\t// in\n    tag_250:\n        /* \"#utility.yul\":3954:3957   */\n      dup3\n        /* \"#utility.yul\":3947:3984   */\n      mstore\n        /* \"#utility.yul\":3872:3990   */\n      pop\n      pop\n      jump\t// out\n        /* \"#utility.yul\":3996:4105   */\n    tag_252:\n        /* \"#utility.yul\":4077:4098   */\n      tag_254\n        /* \"#utility.yul\":4092:4097   */\n      dup2\n        /* \"#utility.yul\":4077:4098   */\n      tag_255\n      jump\t// in\n    tag_254:\n        /* \"#utility.yul\":4072:4075   */\n      dup3\n        /* \"#utility.yul\":4065:4099   */\n      mstore\n        /* \"#utility.yul\":3996:4105   */\n      pop\n      pop\n      jump\t// out\n        /* \"#utility.yul\":4111:4475   */\n    tag_256:\n        /* \"#utility.yul\":4199:4202   */\n      0x00\n        /* \"#utility.yul\":4227:4266   */\n      tag_258\n        /* \"#utility.yul\":4260:4265   */\n      dup3\n        /* \"#utility.yul\":4227:4266   */\n      tag_259\n      jump\t// in\n    tag_258:\n        /* \"#utility.yul\":4282:4353   */\n      tag_260\n        /* \"#utility.yul\":4346:4352   */\n      dup2\n        /* \"#utility.yul\":4341:4344   */\n      dup6\n        /* \"#utility.yul\":4282:4353   */\n      tag_261\n      jump\t// in\n    tag_260:\n        /* \"#utility.yul\":4275:4353   */\n      swap4\n      pop\n        /* \"#utility.yul\":4362:4414   */\n      tag_262\n        /* \"#utility.yul\":4407:4413   */\n      dup2\n        /* \"#utility.yul\":4402:4405   */\n      dup6\n        /* \"#utility.yul\":4395:4399   */\n      0x20\n        /* \"#utility.yul\":4388:4393   */\n      dup7\n        /* \"#utility.yul\":4384:4400   */\n      add\n        /* \"#utility.yul\":4362:4414   */\n      tag_263\n      jump\t// in\n    tag_262:\n        /* \"#utility.yul\":4439:4468   */\n      tag_264\n        /* \"#utility.yul\":4461:4467   */\n      dup2\n        /* \"#utility.yul\":4439:4468   */\n      tag_265\n      jump\t// in\n    tag_264:\n        /* \"#utility.yul\":4434:4437   */\n      dup5\n        /* \"#utility.yul\":4430:4469   */\n      add\n        /* \"#utility.yul\":4423:4469   */\n      swap2\n      pop\n        /* \"#utility.yul\":4203:4475   */\n      pop\n        /* \"#utility.yul\":4111:4475   */\n      swap3\n      swap2\n      pop\n      pop\n      jump\t// out\n        /* \"#utility.yul\":4481:4847   */\n    tag_266:\n        /* \"#utility.yul\":4623:4626   */\n      0x00\n        /* \"#utility.yul\":4644:4711   */\n      tag_268\n        /* \"#utility.yul\":4708:4710   */\n      0x23\n        /* \"#utility.yul\":4703:4706   */\n      dup4\n        /* \"#utility.yul\":4644:4711   */\n      tag_261\n      jump\t// in\n    tag_268:\n        /* \"#utility.yul\":4637:4711   */\n      swap2\n      pop\n        /* \"#utility.yul\":4720:4813   */\n      tag_269\n        /* \"#utility.yul\":4809:4812   */\n      dup3\n        /* \"#utility.yul\":4720:4813   */\n      tag_270\n      jump\t// in\n    tag_269:\n        /* \"#utility.yul\":4838:4840   */\n      0x40\n        /* \"#utility.yul\":4833:4836   */\n      dup3\n        /* \"#utility.yul\":4829:4841   */\n      add\n        /* \"#utility.yul\":4822:4841   */\n      swap1\n      pop\n        /* \"#utility.yul\":4481:4847   */\n      swap2\n      swap1\n      pop\n      jump\t// out\n        /* \"#utility.yul\":4853:5219   */\n    tag_271:\n        /* \"#utility.yul\":4995:4998   */\n      0x00\n        /* \"#utility.yul\":5016:5083   */\n      tag_273\n        /* \"#utility.yul\":5080:5082   */\n      0x22\n        /* \"#utility.yul\":5075:5078   */\n      dup4\n        /* \"#utility.yul\":5016:5083   */\n      tag_261\n      jump\t// in\n    tag_273:\n        /* \"#utility.yul\":5009:5083   */\n      swap2\n      pop\n        /* \"#utility.yul\":5092:5185   */\n      tag_274\n        /* \"#utility.yul\":5181:5184   */\n      dup3\n        /* \"#utility.yul\":5092:5185   */\n      tag_275\n      jump\t// in\n    tag_274:\n        /* \"#utility.yul\":5210:5212   */\n      0x40\n        /* \"#utility.yul\":5205:5208   */\n      dup3\n        /* \"#utility.yul\":5201:5213   */\n      add\n        /* \"#utility.yul\":5194:5213   */\n      swap1\n      pop\n        /* \"#utility.yul\":4853:5219   */\n      swap2\n      swap1\n      pop\n      jump\t// out\n        /* \"#utility.yul\":5225:5591   */\n    tag_276:\n        /* \"#utility.yul\":5367:5370   */\n      0x00\n        /* \"#utility.yul\":5388:5455   */\n      tag_278\n        /* \"#utility.yul\":5452:5454   */\n      0x22\n        /* \"#utility.yul\":5447:5450   */\n      dup4\n        /* \"#utility.yul\":5388:5455   */\n      tag_261\n      jump\t// in\n    tag_278:\n        /* \"#utility.yul\":5381:5455   */\n      swap2\n      pop\n        /* \"#utility.yul\":5464:5557   */\n      tag_279\n        /* \"#utility.yul\":5553:5556   */\n      dup3\n        /* \"#utility.yul\":5464:5557   */\n      tag_280\n      jump\t// in\n    tag_279:\n        /* \"#utility.yul\":5582:5584   */\n      0x40\n        /* \"#utility.yul\":5577:5580   */\n      dup3\n        /* \"#utility.yul\":5573:5585   */\n      add\n        /* \"#utility.yul\":5566:5585   */\n      swap1\n      pop\n        /* \"#utility.yul\":5225:5591   */\n      swap2\n      swap1\n      pop\n      jump\t// out\n        /* \"#utility.yul\":5597:5963   */\n    tag_281:\n        /* \"#utility.yul\":5739:5742   */\n      0x00\n        /* \"#utility.yul\":5760:5827   */\n      tag_283\n        /* \"#utility.yul\":5824:5826   */\n      0x1d\n        /* \"#utility.yul\":5819:5822   */\n      dup4\n        /* \"#utility.yul\":5760:5827   */\n      tag_261\n      jump\t// in\n    tag_283:\n        /* \"#utility.yul\":5753:5827   */\n      swap2\n      pop\n        /* \"#utility.yul\":5836:5929   */\n      tag_284\n        /* \"#utility.yul\":5925:5928   */\n      dup3\n        /* \"#utility.yul\":5836:5929   */\n      tag_285\n      jump\t// in\n    tag_284:\n        /* \"#utility.yul\":5954:5956   */\n      0x20\n        /* \"#utility.yul\":5949:5952   */\n      dup3\n        /* \"#utility.yul\":5945:5957   */\n      add\n        /* \"#utility.yul\":5938:5957   */\n      swap1\n      pop\n        /* \"#utility.yul\":5597:5963   */\n      swap2\n      swap1\n      pop\n      jump\t// out\n        /* \"#utility.yul\":5969:6335   */\n    tag_286:\n        /* \"#utility.yul\":6111:6114   */\n      0x00\n        /* \"#utility.yul\":6132:6199   */\n      tag_288\n        /* \"#utility.yul\":6196:6198   */\n      0x26\n        /* \"#utility.yul\":6191:6194   */\n      dup4\n        /* \"#utility.yul\":6132:6199   */\n      tag_261\n      jump\t// in\n    tag_288:\n        /* \"#utility.yul\":6125:6199   */\n      swap2\n      pop\n        /* \"#utility.yul\":6208:6301   */\n      tag_289\n        /* \"#utility.yul\":6297:6300   */\n      dup3\n        /* \"#utility.yul\":6208:6301   */\n      tag_290\n      jump\t// in\n    tag_289:\n        /* \"#utility.yul\":6326:6328   */\n      0x40\n        /* \"#utility.yul\":6321:6324   */\n      dup3\n        /* \"#utility.yul\":6317:6329   */\n      add\n        /* \"#utility.yul\":6310:6329   */\n      swap1\n      pop\n        /* \"#utility.yul\":5969:6335   */\n      swap2\n      swap1\n      pop\n      jump\t// out\n        /* \"#utility.yul\":6341:6707   */\n    tag_291:\n        /* \"#utility.yul\":6483:6486   */\n      0x00\n        /* \"#utility.yul\":6504:6571   */\n      tag_293\n        /* \"#utility.yul\":6568:6570   */\n      0x0a\n        /* \"#utility.yul\":6563:6566   */\n      dup4\n        /* \"#utility.yul\":6504:6571   */\n      tag_261\n      jump\t// in\n    tag_293:\n        /* \"#utility.yul\":6497:6571   */\n      swap2\n      pop\n        /* \"#utility.yul\":6580:6673   */\n      tag_294\n        /* \"#utility.yul\":6669:6672   */\n      dup3\n        /* \"#utility.yul\":6580:6673   */\n      tag_295\n      jump\t// in\n    tag_294:\n        /* \"#utility.yul\":6698:6700   */\n      0x20\n        /* \"#utility.yul\":6693:6696   */\n      dup3\n        /* \"#utility.yul\":6689:6701   */\n      add\n        /* \"#utility.yul\":6682:6701   */\n      swap1\n      pop\n        /* \"#utility.yul\":6341:6707   */\n      swap2\n      swap1\n      pop\n      jump\t// out\n        /* \"#utility.yul\":6713:7079   */\n    tag_296:\n        /* \"#utility.yul\":6855:6858   */\n      0x00\n        /* \"#utility.yul\":6876:6943   */\n      tag_298\n        /* \"#utility.yul\":6940:6942   */\n      0x21\n        /* \"#utility.yul\":6935:6938   */\n      dup4\n        /* \"#utility.yul\":6876:6943   */\n      tag_261\n      jump\t// in\n    tag_298:\n        /* \"#utility.yul\":6869:6943   */\n      swap2\n      pop\n        /* \"#utility.yul\":6952:7045   */\n      tag_299\n        /* \"#utility.yul\":7041:7044   */\n      dup3\n        /* \"#utility.yul\":6952:7045   */\n      tag_300\n      jump\t// in\n    tag_299:\n        /* \"#utility.yul\":7070:7072   */\n      0x40\n        /* \"#utility.yul\":7065:7068   */\n      dup3\n        /* \"#utility.yul\":7061:7073   */\n      add\n        /* \"#utility.yul\":7054:7073   */\n      swap1\n      pop\n        /* \"#utility.yul\":6713:7079   */\n      swap2\n      swap1\n      pop\n      jump\t// out\n        /* \"#utility.yul\":7085:7451   */\n    tag_301:\n        /* \"#utility.yul\":7227:7230   */\n      0x00\n        /* \"#utility.yul\":7248:7315   */\n      tag_303\n        /* \"#utility.yul\":7312:7314   */\n      0x25\n        /* \"#utility.yul\":7307:7310   */\n      dup4\n        /* \"#utility.yul\":7248:7315   */\n      tag_261\n      jump\t// in\n    tag_303:\n        /* \"#utility.yul\":7241:7315   */\n      swap2\n      pop\n        /* \"#utility.yul\":7324:7417   */\n      tag_304\n        /* \"#utility.yul\":7413:7416   */\n      dup3\n        /* \"#utility.yul\":7324:7417   */\n      tag_305\n      jump\t// in\n    tag_304:\n        /* \"#utility.yul\":7442:7444   */\n      0x40\n        /* \"#utility.yul\":7437:7440   */\n      dup3\n        /* \"#utility.yul\":7433:7445   */\n      add\n        /* \"#utility.yul\":7426:7445   */\n      swap1\n      pop\n        /* \"#utility.yul\":7085:7451   */\n      swap2\n      swap1\n      pop\n      jump\t// out\n        /* \"#utility.yul\":7457:7823   */\n    tag_306:\n        /* \"#utility.yul\":7599:7602   */\n      0x00\n        /* \"#utility.yul\":7620:7687   */\n      tag_308\n        /* \"#utility.yul\":7684:7686   */\n      0x24\n        /* \"#utility.yul\":7679:7682   */\n      dup4\n        /* \"#utility.yul\":7620:7687   */\n      tag_261\n      jump\t// in\n    tag_308:\n        /* \"#utility.yul\":7613:7687   */\n      swap2\n      pop\n        /* \"#utility.yul\":7696:7789   */\n      tag_309\n        /* \"#utility.yul\":7785:7788   */\n      dup3\n        /* \"#utility.yul\":7696:7789   */\n      tag_310\n      jump\t// in\n    tag_309:\n        /* \"#utility.yul\":7814:7816   */\n      0x40\n        /* \"#utility.yul\":7809:7812   */\n      dup3\n        /* \"#utility.yul\":7805:7817   */\n      add\n        /* \"#utility.yul\":7798:7817   */\n      swap1\n      pop\n        /* \"#utility.yul\":7457:7823   */\n      swap2\n      swap1\n      pop\n      jump\t// out\n        /* \"#utility.yul\":7829:8195   */\n    tag_311:\n        /* \"#utility.yul\":7971:7974   */\n      0x00\n        /* \"#utility.yul\":7992:8059   */\n      tag_313\n        /* \"#utility.yul\":8056:8058   */\n      0x25\n        /* \"#utility.yul\":8051:8054   */\n      dup4\n        /* \"#utility.yul\":7992:8059   */\n      tag_261\n      jump\t// in\n    tag_313:\n        /* \"#utility.yul\":7985:8059   */\n      swap2\n      pop\n        /* \"#utility.yul\":8068:8161   */\n      tag_314\n        /* \"#utility.yul\":8157:8160   */\n      dup3\n        /* \"#utility.yul\":8068:8161   */\n      tag_315\n      jump\t// in\n    tag_314:\n        /* \"#utility.yul\":8186:8188   */\n      0x40\n        /* \"#utility.yul\":8181:8184   */\n      dup3\n        /* \"#utility.yul\":8177:8189   */\n      add\n        /* \"#utility.yul\":8170:8189   */\n      swap1\n      pop\n        /* \"#utility.yul\":7829:8195   */\n      swap2\n      swap1\n      pop\n      jump\t// out\n        /* \"#utility.yul\":8201:8567   */\n    tag_316:\n        /* \"#utility.yul\":8343:8346   */\n      0x00\n        /* \"#utility.yul\":8364:8431   */\n      tag_318\n        /* \"#utility.yul\":8428:8430   */\n      0x1f\n        /* \"#utility.yul\":8423:8426   */\n      dup4\n        /* \"#utility.yul\":8364:8431   */\n      tag_261\n      jump\t// in\n    tag_318:\n        /* \"#utility.yul\":8357:8431   */\n      swap2\n      pop\n        /* \"#utility.yul\":8440:8533   */\n      tag_319\n        /* \"#utility.yul\":8529:8532   */\n      dup3\n        /* \"#utility.yul\":8440:8533   */\n      tag_320\n      jump\t// in\n    tag_319:\n        /* \"#utility.yul\":8558:8560   */\n      0x20\n        /* \"#utility.yul\":8553:8556   */\n      dup3\n        /* \"#utility.yul\":8549:8561   */\n      add\n        /* \"#utility.yul\":8542:8561   */\n      swap1\n      pop\n        /* \"#utility.yul\":8201:8567   */\n      swap2\n      swap1\n      pop\n      jump\t// out\n        /* \"#utility.yul\":8573:8691   */\n    tag_321:\n        /* \"#utility.yul\":8660:8684   */\n      tag_323\n        /* \"#utility.yul\":8678:8683   */\n      dup2\n        /* \"#utility.yul\":8660:8684   */\n      tag_324\n      jump\t// in\n    tag_323:\n        /* \"#utility.yul\":8655:8658   */\n      dup3\n        /* \"#utility.yul\":8648:8685   */\n      mstore\n        /* \"#utility.yul\":8573:8691   */\n      pop\n      pop\n      jump\t// out\n        /* \"#utility.yul\":8697:8809   */\n    tag_325:\n        /* \"#utility.yul\":8780:8802   */\n      tag_327\n        /* \"#utility.yul\":8796:8801   */\n      dup2\n        /* \"#utility.yul\":8780:8802   */\n      tag_328\n      jump\t// in\n    tag_327:\n        /* \"#utility.yul\":8775:8778   */\n      dup3\n        /* \"#utility.yul\":8768:8803   */\n      mstore\n        /* \"#utility.yul\":8697:8809   */\n      pop\n      pop\n      jump\t// out\n        /* \"#utility.yul\":8815:9037   */\n    tag_83:\n        /* \"#utility.yul\":8908:8912   */\n      0x00\n        /* \"#utility.yul\":8946:8948   */\n      0x20\n        /* \"#utility.yul\":8935:8944   */\n      dup3\n        /* \"#utility.yul\":8931:8949   */\n      add\n        /* \"#utility.yul\":8923:8949   */\n      swap1\n      pop\n        /* \"#utility.yul\":8959:9030   */\n      tag_330\n        /* \"#utility.yul\":9027:9028   */\n      0x00\n        /* \"#utility.yul\":9016:9025   */\n      dup4\n        /* \"#utility.yul\":9012:9029   */\n      add\n        /* \"#utility.yul\":9003:9009   */\n      dup5\n        /* \"#utility.yul\":8959:9030   */\n      tag_248\n      jump\t// in\n    tag_330:\n        /* \"#utility.yul\":8815:9037   */\n      swap3\n      swap2\n      pop\n      pop\n      jump\t// out\n        /* \"#utility.yul\":9043:9375   */\n    tag_122:\n        /* \"#utility.yul\":9164:9168   */\n      0x00\n        /* \"#utility.yul\":9202:9204   */\n      0x40\n        /* \"#utility.yul\":9191:9200   */\n      dup3\n        /* \"#utility.yul\":9187:9205   */\n      add\n        /* \"#utility.yul\":9179:9205   */\n      swap1\n      pop\n        /* \"#utility.yul\":9215:9286   */\n      tag_332\n        /* \"#utility.yul\":9283:9284   */\n      0x00\n        /* \"#utility.yul\":9272:9281   */\n      dup4\n        /* \"#utility.yul\":9268:9285   */\n      add\n        /* \"#utility.yul\":9259:9265   */\n      dup6\n        /* \"#utility.yul\":9215:9286   */\n      tag_248\n      jump\t// in\n    tag_332:\n        /* \"#utility.yul\":9296:9368   */\n      tag_333\n        /* \"#utility.yul\":9364:9366   */\n      0x20\n        /* \"#utility.yul\":9353:9362   */\n      dup4\n        /* \"#utility.yul\":9349:9367   */\n      add\n        /* \"#utility.yul\":9340:9346   */\n      dup5\n        /* \"#utility.yul\":9296:9368   */\n      tag_321\n      jump\t// in\n    tag_333:\n        /* \"#utility.yul\":9043:9375   */\n      swap4\n      swap3\n      pop\n      pop\n      pop\n      jump\t// out\n        /* \"#utility.yul\":9381:9591   */\n    tag_30:\n        /* \"#utility.yul\":9468:9472   */\n      0x00\n        /* \"#utility.yul\":9506:9508   */\n      0x20\n        /* \"#utility.yul\":9495:9504   */\n      dup3\n        /* \"#utility.yul\":9491:9509   */\n      add\n        /* \"#utility.yul\":9483:9509   */\n      swap1\n      pop\n        /* \"#utility.yul\":9519:9584   */\n      tag_335\n        /* \"#utility.yul\":9581:9582   */\n      0x00\n        /* \"#utility.yul\":9570:9579   */\n      dup4\n        /* \"#utility.yul\":9566:9583   */\n      add\n        /* \"#utility.yul\":9557:9563   */\n      dup5\n        /* \"#utility.yul\":9519:9584   */\n      tag_252\n      jump\t// in\n    tag_335:\n        /* \"#utility.yul\":9381:9591   */\n      swap3\n      swap2\n      pop\n      pop\n      jump\t// out\n        /* \"#utility.yul\":9597:9910   */\n    tag_24:\n        /* \"#utility.yul\":9710:9714   */\n      0x00\n        /* \"#utility.yul\":9748:9750   */\n      0x20\n        /* \"#utility.yul\":9737:9746   */\n      dup3\n        /* \"#utility.yul\":9733:9751   */\n      add\n        /* \"#utility.yul\":9725:9751   */\n      swap1\n      pop\n        /* \"#utility.yul\":9797:9806   */\n      dup2\n        /* \"#utility.yul\":9791:9795   */\n      dup2\n        /* \"#utility.yul\":9787:9807   */\n      sub\n        /* \"#utility.yul\":9783:9784   */\n      0x00\n        /* \"#utility.yul\":9772:9781   */\n      dup4\n        /* \"#utility.yul\":9768:9785   */\n      add\n        /* \"#utility.yul\":9761:9808   */\n      mstore\n        /* \"#utility.yul\":9825:9903   */\n      tag_337\n        /* \"#utility.yul\":9898:9902   */\n      dup2\n        /* \"#utility.yul\":9889:9895   */\n      dup5\n        /* \"#utility.yul\":9825:9903   */\n      tag_256\n      jump\t// in\n    tag_337:\n        /* \"#utility.yul\":9817:9903   */\n      swap1\n      pop\n        /* \"#utility.yul\":9597:9910   */\n      swap3\n      swap2\n      pop\n      pop\n      jump\t// out\n        /* \"#utility.yul\":9916:10335   */\n    tag_167:\n        /* \"#utility.yul\":10082:10086   */\n      0x00\n        /* \"#utility.yul\":10120:10122   */\n      0x20\n        /* \"#utility.yul\":10109:10118   */\n      dup3\n        /* \"#utility.yul\":10105:10123   */\n      add\n        /* \"#utility.yul\":10097:10123   */\n      swap1\n      pop\n        /* \"#utility.yul\":10169:10178   */\n      dup2\n        /* \"#utility.yul\":10163:10167   */\n      dup2\n        /* \"#utility.yul\":10159:10179   */\n      sub\n        /* \"#utility.yul\":10155:10156   */\n      0x00\n        /* \"#utility.yul\":10144:10153   */\n      dup4\n        /* \"#utility.yul\":10140:10157   */\n      add\n        /* \"#utility.yul\":10133:10180   */\n      mstore\n        /* \"#utility.yul\":10197:10328   */\n      tag_339\n        /* \"#utility.yul\":10323:10327   */\n      dup2\n        /* \"#utility.yul\":10197:10328   */\n      tag_266\n      jump\t// in\n    tag_339:\n        /* \"#utility.yul\":10189:10328   */\n      swap1\n      pop\n        /* \"#utility.yul\":9916:10335   */\n      swap2\n      swap1\n      pop\n      jump\t// out\n        /* \"#utility.yul\":10341:10760   */\n    tag_191:\n        /* \"#utility.yul\":10507:10511   */\n      0x00\n        /* \"#utility.yul\":10545:10547   */\n      0x20\n        /* \"#utility.yul\":10534:10543   */\n      dup3\n        /* \"#utility.yul\":10530:10548   */\n      add\n        /* \"#utility.yul\":10522:10548   */\n      swap1\n      pop\n        /* \"#utility.yul\":10594:10603   */\n      dup2\n        /* \"#utility.yul\":10588:10592   */\n      dup2\n        /* \"#utility.yul\":10584:10604   */\n      sub\n        /* \"#utility.yul\":10580:10581   */\n      0x00\n        /* \"#utility.yul\":10569:10578   */\n      dup4\n        /* \"#utility.yul\":10565:10582   */\n      add\n        /* \"#utility.yul\":10558:10605   */\n      mstore\n        /* \"#utility.yul\":10622:10753   */\n      tag_341\n        /* \"#utility.yul\":10748:10752   */\n      dup2\n        /* \"#utility.yul\":10622:10753   */\n      tag_271\n      jump\t// in\n    tag_341:\n        /* \"#utility.yul\":10614:10753   */\n      swap1\n      pop\n        /* \"#utility.yul\":10341:10760   */\n      swap2\n      swap1\n      pop\n      jump\t// out\n        /* \"#utility.yul\":10766:11185   */\n    tag_152:\n        /* \"#utility.yul\":10932:10936   */\n      0x00\n        /* \"#utility.yul\":10970:10972   */\n      0x20\n        /* \"#utility.yul\":10959:10968   */\n      dup3\n        /* \"#utility.yul\":10955:10973   */\n      add\n        /* \"#utility.yul\":10947:10973   */\n      swap1\n      pop\n        /* \"#utility.yul\":11019:11028   */\n      dup2\n        /* \"#utility.yul\":11013:11017   */\n      dup2\n        /* \"#utility.yul\":11009:11029   */\n      sub\n        /* \"#utility.yul\":11005:11006   */\n      0x00\n        /* \"#utility.yul\":10994:11003   */\n      dup4\n        /* \"#utility.yul\":10990:11007   */\n      add\n        /* \"#utility.yul\":10983:11030   */\n      mstore\n        /* \"#utility.yul\":11047:11178   */\n      tag_343\n        /* \"#utility.yul\":11173:11177   */\n      dup2\n        /* \"#utility.yul\":11047:11178   */\n      tag_276\n      jump\t// in\n    tag_343:\n        /* \"#utility.yul\":11039:11178   */\n      swap1\n      pop\n        /* \"#utility.yul\":10766:11185   */\n      swap2\n      swap1\n      pop\n      jump\t// out\n        /* \"#utility.yul\":11191:11610   */\n    tag_159:\n        /* \"#utility.yul\":11357:11361   */\n      0x00\n        /* \"#utility.yul\":11395:11397   */\n      0x20\n        /* \"#utility.yul\":11384:11393   */\n      dup3\n        /* \"#utility.yul\":11380:11398   */\n      add\n        /* \"#utility.yul\":11372:11398   */\n      swap1\n      pop\n        /* \"#utility.yul\":11444:11453   */\n      dup2\n        /* \"#utility.yul\":11438:11442   */\n      dup2\n        /* \"#utility.yul\":11434:11454   */\n      sub\n        /* \"#utility.yul\":11430:11431   */\n      0x00\n        /* \"#utility.yul\":11419:11428   */\n      dup4\n        /* \"#utility.yul\":11415:11432   */\n      add\n        /* \"#utility.yul\":11408:11455   */\n      mstore\n        /* \"#utility.yul\":11472:11603   */\n      tag_345\n        /* \"#utility.yul\":11598:11602   */\n      dup2\n        /* \"#utility.yul\":11472:11603   */\n      tag_281\n      jump\t// in\n    tag_345:\n        /* \"#utility.yul\":11464:11603   */\n      swap1\n      pop\n        /* \"#utility.yul\":11191:11610   */\n      swap2\n      swap1\n      pop\n      jump\t// out\n        /* \"#utility.yul\":11616:12035   */\n    tag_172:\n        /* \"#utility.yul\":11782:11786   */\n      0x00\n        /* \"#utility.yul\":11820:11822   */\n      0x20\n        /* \"#utility.yul\":11809:11818   */\n      dup3\n        /* \"#utility.yul\":11805:11823   */\n      add\n        /* \"#utility.yul\":11797:11823   */\n      swap1\n      pop\n        /* \"#utility.yul\":11869:11878   */\n      dup2\n        /* \"#utility.yul\":11863:11867   */\n      dup2\n        /* \"#utility.yul\":11859:11879   */\n      sub\n        /* \"#utility.yul\":11855:11856   */\n      0x00\n        /* \"#utility.yul\":11844:11853   */\n      dup4\n        /* \"#utility.yul\":11840:11857   */\n      add\n        /* \"#utility.yul\":11833:11880   */\n      mstore\n        /* \"#utility.yul\":11897:12028   */\n      tag_347\n        /* \"#utility.yul\":12023:12027   */\n      dup2\n        /* \"#utility.yul\":11897:12028   */\n      tag_286\n      jump\t// in\n    tag_347:\n        /* \"#utility.yul\":11889:12028   */\n      swap1\n      pop\n        /* \"#utility.yul\":11616:12035   */\n      swap2\n      swap1\n      pop\n      jump\t// out\n        /* \"#utility.yul\":12041:12460   */\n    tag_113:\n        /* \"#utility.yul\":12207:12211   */\n      0x00\n        /* \"#utility.yul\":12245:12247   */\n      0x20\n        /* \"#utility.yul\":12234:12243   */\n      dup3\n        /* \"#utility.yul\":12230:12248   */\n      add\n        /* \"#utility.yul\":12222:12248   */\n      swap1\n      pop\n        /* \"#utility.yul\":12294:12303   */\n      dup2\n        /* \"#utility.yul\":12288:12292   */\n      dup2\n        /* \"#utility.yul\":12284:12304   */\n      sub\n        /* \"#utility.yul\":12280:12281   */\n      0x00\n        /* \"#utility.yul\":12269:12278   */\n      dup4\n        /* \"#utility.yul\":12265:12282   */\n      add\n        /* \"#utility.yul\":12258:12305   */\n      mstore\n        /* \"#utility.yul\":12322:12453   */\n      tag_349\n        /* \"#utility.yul\":12448:12452   */\n      dup2\n        /* \"#utility.yul\":12322:12453   */\n      tag_291\n      jump\t// in\n    tag_349:\n        /* \"#utility.yul\":12314:12453   */\n      swap1\n      pop\n        /* \"#utility.yul\":12041:12460   */\n      swap2\n      swap1\n      pop\n      jump\t// out\n        /* \"#utility.yul\":12466:12885   */\n    tag_187:\n        /* \"#utility.yul\":12632:12636   */\n      0x00\n        /* \"#utility.yul\":12670:12672   */\n      0x20\n        /* \"#utility.yul\":12659:12668   */\n      dup3\n        /* \"#utility.yul\":12655:12673   */\n      add\n        /* \"#utility.yul\":12647:12673   */\n      swap1\n      pop\n        /* \"#utility.yul\":12719:12728   */\n      dup2\n        /* \"#utility.yul\":12713:12717   */\n      dup2\n        /* \"#utility.yul\":12709:12729   */\n      sub\n        /* \"#utility.yul\":12705:12706   */\n      0x00\n        /* \"#utility.yul\":12694:12703   */\n      dup4\n        /* \"#utility.yul\":12690:12707   */\n      add\n        /* \"#utility.yul\":12683:12730   */\n      mstore\n        /* \"#utility.yul\":12747:12878   */\n      tag_351\n        /* \"#utility.yul\":12873:12877   */\n      dup2\n        /* \"#utility.yul\":12747:12878   */\n      tag_296\n      jump\t// in\n    tag_351:\n        /* \"#utility.yul\":12739:12878   */\n      swap1\n      pop\n        /* \"#utility.yul\":12466:12885   */\n      swap2\n      swap1\n      pop\n      jump\t// out\n        /* \"#utility.yul\":12891:13310   */\n    tag_164:\n        /* \"#utility.yul\":13057:13061   */\n      0x00\n        /* \"#utility.yul\":13095:13097   */\n      0x20\n        /* \"#utility.yul\":13084:13093   */\n      dup3\n        /* \"#utility.yul\":13080:13098   */\n      add\n        /* \"#utility.yul\":13072:13098   */\n      swap1\n      pop\n        /* \"#utility.yul\":13144:13153   */\n      dup2\n        /* \"#utility.yul\":13138:13142   */\n      dup2\n        /* \"#utility.yul\":13134:13154   */\n      sub\n        /* \"#utility.yul\":13130:13131   */\n      0x00\n        /* \"#utility.yul\":13119:13128   */\n      dup4\n        /* \"#utility.yul\":13115:13132   */\n      add\n        /* \"#utility.yul\":13108:13155   */\n      mstore\n        /* \"#utility.yul\":13172:13303   */\n      tag_353\n        /* \"#utility.yul\":13298:13302   */\n      dup2\n        /* \"#utility.yul\":13172:13303   */\n      tag_301\n      jump\t// in\n    tag_353:\n        /* \"#utility.yul\":13164:13303   */\n      swap1\n      pop\n        /* \"#utility.yul\":12891:13310   */\n      swap2\n      swap1\n      pop\n      jump\t// out\n        /* \"#utility.yul\":13316:13735   */\n    tag_149:\n        /* \"#utility.yul\":13482:13486   */\n      0x00\n        /* \"#utility.yul\":13520:13522   */\n      0x20\n        /* \"#utility.yul\":13509:13518   */\n      dup3\n        /* \"#utility.yul\":13505:13523   */\n      add\n        /* \"#utility.yul\":13497:13523   */\n      swap1\n      pop\n        /* \"#utility.yul\":13569:13578   */\n      dup2\n        /* \"#utility.yul\":13563:13567   */\n      dup2\n        /* \"#utility.yul\":13559:13579   */\n      sub\n        /* \"#utility.yul\":13555:13556   */\n      0x00\n        /* \"#utility.yul\":13544:13553   */\n      dup4\n        /* \"#utility.yul\":13540:13557   */\n      add\n        /* \"#utility.yul\":13533:13580   */\n      mstore\n        /* \"#utility.yul\":13597:13728   */\n      tag_355\n        /* \"#utility.yul\":13723:13727   */\n      dup2\n        /* \"#utility.yul\":13597:13728   */\n      tag_306\n      jump\t// in\n    tag_355:\n        /* \"#utility.yul\":13589:13728   */\n      swap1\n      pop\n        /* \"#utility.yul\":13316:13735   */\n      swap2\n      swap1\n      pop\n      jump\t// out\n        /* \"#utility.yul\":13741:14160   */\n    tag_139:\n        /* \"#utility.yul\":13907:13911   */\n      0x00\n        /* \"#utility.yul\":13945:13947   */\n      0x20\n        /* \"#utility.yul\":13934:13943   */\n      dup3\n        /* \"#utility.yul\":13930:13948   */\n      add\n        /* \"#utility.yul\":13922:13948   */\n      swap1\n      pop\n        /* \"#utility.yul\":13994:14003   */\n      dup2\n        /* \"#utility.yul\":13988:13992   */\n      dup2\n        /* \"#utility.yul\":13984:14004   */\n      sub\n        /* \"#utility.yul\":13980:13981   */\n      0x00\n        /* \"#utility.yul\":13969:13978   */\n      dup4\n        /* \"#utility.yul\":13965:13982   */\n      add\n        /* \"#utility.yul\":13958:14005   */\n      mstore\n        /* \"#utility.yul\":14022:14153   */\n      tag_357\n        /* \"#utility.yul\":14148:14152   */\n      dup2\n        /* \"#utility.yul\":14022:14153   */\n      tag_311\n      jump\t// in\n    tag_357:\n        /* \"#utility.yul\":14014:14153   */\n      swap1\n      pop\n        /* \"#utility.yul\":13741:14160   */\n      swap2\n      swap1\n      pop\n      jump\t// out\n        /* \"#utility.yul\":14166:14585   */\n    tag_179:\n        /* \"#utility.yul\":14332:14336   */\n      0x00\n        /* \"#utility.yul\":14370:14372   */\n      0x20\n        /* \"#utility.yul\":14359:14368   */\n      dup3\n        /* \"#utility.yul\":14355:14373   */\n      add\n        /* \"#utility.yul\":14347:14373   */\n      swap1\n      pop\n        /* \"#utility.yul\":14419:14428   */\n      dup2\n        /* \"#utility.yul\":14413:14417   */\n      dup2\n        /* \"#utility.yul\":14409:14429   */\n      sub\n        /* \"#utility.yul\":14405:14406   */\n      0x00\n        /* \"#utility.yul\":14394:14403   */\n      dup4\n        /* \"#utility.yul\":14390:14407   */\n      add\n        /* \"#utility.yul\":14383:14430   */\n      mstore\n        /* \"#utility.yul\":14447:14578   */\n      tag_359\n        /* \"#utility.yul\":14573:14577   */\n      dup2\n        /* \"#utility.yul\":14447:14578   */\n      tag_316\n      jump\t// in\n    tag_359:\n        /* \"#utility.yul\":14439:14578   */\n      swap1\n      pop\n        /* \"#utility.yul\":14166:14585   */\n      swap2\n      swap1\n      pop\n      jump\t// out\n        /* \"#utility.yul\":14591:14813   */\n    tag_34:\n        /* \"#utility.yul\":14684:14688   */\n      0x00\n        /* \"#utility.yul\":14722:14724   */\n      0x20\n        /* \"#utility.yul\":14711:14720   */\n      dup3\n        /* \"#utility.yul\":14707:14725   */\n      add\n        /* \"#utility.yul\":14699:14725   */\n      swap1\n      pop\n        /* \"#utility.yul\":14735:14806   */\n      tag_361\n        /* \"#utility.yul\":14803:14804   */\n      0x00\n        /* \"#utility.yul\":14792:14801   */\n      dup4\n        /* \"#utility.yul\":14788:14805   */\n      add\n        /* \"#utility.yul\":14779:14785   */\n      dup5\n        /* \"#utility.yul\":14735:14806   */\n      tag_321\n      jump\t// in\n    tag_361:\n        /* \"#utility.yul\":14591:14813   */\n      swap3\n      swap2\n      pop\n      pop\n      jump\t// out\n        /* \"#utility.yul\":14819:15033   */\n    tag_43:\n        /* \"#utility.yul\":14908:14912   */\n      0x00\n        /* \"#utility.yul\":14946:14948   */\n      0x20\n        /* \"#utility.yul\":14935:14944   */\n      dup3\n        /* \"#utility.yul\":14931:14949   */\n      add\n        /* \"#utility.yul\":14923:14949   */\n      swap1\n      pop\n        /* \"#utility.yul\":14959:15026   */\n      tag_363\n        /* \"#utility.yul\":15023:15024   */\n      0x00\n        /* \"#utility.yul\":15012:15021   */\n      dup4\n        /* \"#utility.yul\":15008:15025   */\n      add\n        /* \"#utility.yul\":14999:15005   */\n      dup5\n        /* \"#utility.yul\":14959:15026   */\n      tag_325\n      jump\t// in\n    tag_363:\n        /* \"#utility.yul\":14819:15033   */\n      swap3\n      swap2\n      pop\n      pop\n      jump\t// out\n        /* \"#utility.yul\":15120:15219   */\n    tag_259:\n        /* \"#utility.yul\":15172:15178   */\n      0x00\n        /* \"#utility.yul\":15206:15211   */\n      dup2\n        /* \"#utility.yul\":15200:15212   */\n      mload\n        /* \"#utility.yul\":15190:15212   */\n      swap1\n      pop\n        /* \"#utility.yul\":15120:15219   */\n      swap2\n      swap1\n      pop\n      jump\t// out\n        /* \"#utility.yul\":15225:15394   */\n    tag_261:\n        /* \"#utility.yul\":15309:15320   */\n      0x00\n        /* \"#utility.yul\":15343:15349   */\n      dup3\n        /* \"#utility.yul\":15338:15341   */\n      dup3\n        /* \"#utility.yul\":15331:15350   */\n      mstore\n        /* \"#utility.yul\":15383:15387   */\n      0x20\n        /* \"#utility.yul\":15378:15381   */\n      dup3\n        /* \"#utility.yul\":15374:15388   */\n      add\n        /* \"#utility.yul\":15359:15388   */\n      swap1\n      pop\n        /* \"#utility.yul\":15225:15394   */\n      swap3\n      swap2\n      pop\n      pop\n      jump\t// out\n        /* \"#utility.yul\":15400:15705   */\n    tag_109:\n        /* \"#utility.yul\":15440:15443   */\n      0x00\n        /* \"#utility.yul\":15459:15479   */\n      tag_369\n        /* \"#utility.yul\":15477:15478   */\n      dup3\n        /* \"#utility.yul\":15459:15479   */\n      tag_324\n      jump\t// in\n    tag_369:\n        /* \"#utility.yul\":15454:15479   */\n      swap2\n      pop\n        /* \"#utility.yul\":15493:15513   */\n      tag_370\n        /* \"#utility.yul\":15511:15512   */\n      dup4\n        /* \"#utility.yul\":15493:15513   */\n      tag_324\n      jump\t// in\n    tag_370:\n        /* \"#utility.yul\":15488:15513   */\n      swap3\n      pop\n        /* \"#utility.yul\":15647:15648   */\n      dup3\n        /* \"#utility.yul\":15579:15645   */\n      0xffffffffffffffffffffffffffffffffffffffffffffffffffffffffffffffff\n        /* \"#utility.yul\":15575:15649   */\n      sub\n        /* \"#utility.yul\":15572:15573   */\n      dup3\n        /* \"#utility.yul\":15569:15650   */\n      gt\n        /* \"#utility.yul\":15566:15673   */\n      iszero\n      tag_371\n      jumpi\n        /* \"#utility.yul\":15653:15671   */\n      tag_372\n      tag_373\n      jump\t// in\n    tag_372:\n        /* \"#utility.yul\":15566:15673   */\n    tag_371:\n        /* \"#utility.yul\":15697:15698   */\n      dup3\n        /* \"#utility.yul\":15694:15695   */\n      dup3\n        /* \"#utility.yul\":15690:15699   */\n      add\n        /* \"#utility.yul\":15683:15699   */\n      swap1\n      pop\n        /* \"#utility.yul\":15400:15705   */\n      swap3\n      swap2\n      pop\n      pop\n      jump\t// out\n        /* \"#utility.yul\":15711:15807   */\n    tag_251:\n        /* \"#utility.yul\":15748:15755   */\n      0x00\n        /* \"#utility.yul\":15777:15801   */\n      tag_375\n        /* \"#utility.yul\":15795:15800   */\n      dup3\n        /* \"#utility.yul\":15777:15801   */\n      tag_376\n      jump\t// in\n    tag_375:\n        /* \"#utility.yul\":15766:15801   */\n      swap1\n      pop\n        /* \"#utility.yul\":15711:15807   */\n      swap2\n      swap1\n      pop\n      jump\t// out\n        /* \"#utility.yul\":15813:15903   */\n    tag_255:\n        /* \"#utility.yul\":15847:15854   */\n      0x00\n        /* \"#utility.yul\":15890:15895   */\n      dup2\n        /* \"#utility.yul\":15883:15896   */\n      iszero\n        /* \"#utility.yul\":15876:15897   */\n      iszero\n        /* \"#utility.yul\":15865:15897   */\n      swap1\n      pop\n        /* \"#utility.yul\":15813:15903   */\n      swap2\n      swap1\n      pop\n      jump\t// out\n        /* \"#utility.yul\":15909:16019   */\n    tag_378:\n        /* \"#utility.yul\":15960:15967   */\n      0x00\n        /* \"#utility.yul\":15989:16013   */\n      tag_380\n        /* \"#utility.yul\":16007:16012   */\n      dup3\n        /* \"#utility.yul\":15989:16013   */\n      tag_251\n      jump\t// in\n    tag_380:\n        /* \"#utility.yul\":15978:16013   */\n      swap1\n      pop\n        /* \"#utility.yul\":15909:16019   */\n      swap2\n      swap1\n      pop\n      jump\t// out\n        /* \"#utility.yul\":16025:16151   */\n    tag_376:\n        /* \"#utility.yul\":16062:16069   */\n      0x00\n        /* \"#utility.yul\":16102:16144   */\n      0xffffffffffffffffffffffffffffffffffffffff\n        /* \"#utility.yul\":16095:16100   */\n      dup3\n        /* \"#utility.yul\":16091:16145   */\n      and\n        /* \"#utility.yul\":16080:16145   */\n      swap1\n      pop\n        /* \"#utility.yul\":16025:16151   */\n      swap2\n      swap1\n      pop\n      jump\t// out\n        /* \"#utility.yul\":16157:16234   */\n    tag_324:\n        /* \"#utility.yul\":16194:16201   */\n      0x00\n        /* \"#utility.yul\":16223:16228   */\n      dup2\n        /* \"#utility.yul\":16212:16228   */\n      swap1\n      pop\n        /* \"#utility.yul\":16157:16234   */\n      swap2\n      swap1\n      pop\n      jump\t// out\n        /* \"#utility.yul\":16240:16326   */\n    tag_328:\n        /* \"#utility.yul\":16275:16282   */\n      0x00\n        /* \"#utility.yul\":16315:16319   */\n      0xff\n        /* \"#utility.yul\":16308:16313   */\n      dup3\n        /* \"#utility.yul\":16304:16320   */\n      and\n        /* \"#utility.yul\":16293:16320   */\n      swap1\n      pop\n        /* \"#utility.yul\":16240:16326   */\n      swap2\n      swap1\n      pop\n      jump\t// out\n        /* \"#utility.yul\":16332:16639   */\n    tag_263:\n        /* \"#utility.yul\":16400:16401   */\n      0x00\n        /* \"#utility.yul\":16410:16523   */\n    tag_385:\n        /* \"#utility.yul\":16424:16430   */\n      dup4\n        /* \"#utility.yul\":16421:16422   */\n      dup2\n        /* \"#utility.yul\":16418:16431   */\n      lt\n        /* \"#utility.yul\":16410:16523   */\n      iszero\n      tag_387\n      jumpi\n        /* \"#utility.yul\":16509:16510   */\n      dup1\n        /* \"#utility.yul\":16504:16507   */\n      dup3\n        /* \"#utility.yul\":16500:16511   */\n      add\n        /* \"#utility.yul\":16494:16512   */\n      mload\n        /* \"#utility.yul\":16490:16491   */\n      dup2\n        /* \"#utility.yul\":16485:16488   */\n      dup5\n        /* \"#utility.yul\":16481:16492   */\n      add\n        /* \"#utility.yul\":16474:16513   */\n      mstore\n        /* \"#utility.yul\":16446:16448   */\n      0x20\n        /* \"#utility.yul\":16443:16444   */\n      dup2\n        /* \"#utility.yul\":16439:16449   */\n      add\n        /* \"#utility.yul\":16434:16449   */\n      swap1\n      pop\n        /* \"#utility.yul\":16410:16523   */\n      jump(tag_385)\n    tag_387:\n        /* \"#utility.yul\":16541:16547   */\n      dup4\n        /* \"#utility.yul\":16538:16539   */\n      dup2\n        /* \"#utility.yul\":16535:16548   */\n      gt\n        /* \"#utility.yul\":16532:16633   */\n      iszero\n      tag_388\n      jumpi\n        /* \"#utility.yul\":16621:16622   */\n      0x00\n        /* \"#utility.yul\":16612:16618   */\n      dup5\n        /* \"#utility.yul\":16607:16610   */\n      dup5\n        /* \"#utility.yul\":16603:16619   */\n      add\n        /* \"#utility.yul\":16596:16623   */\n      mstore\n        /* \"#utility.yul\":16532:16633   */\n    tag_388:\n        /* \"#utility.yul\":16381:16639   */\n      pop\n        /* \"#utility.yul\":16332:16639   */\n      pop\n      pop\n      pop\n      jump\t// out\n        /* \"#utility.yul\":16645:16965   */\n    tag_86:\n        /* \"#utility.yul\":16689:16695   */\n      0x00\n        /* \"#utility.yul\":16726:16727   */\n      0x02\n        /* \"#utility.yul\":16720:16724   */\n      dup3\n        /* \"#utility.yul\":16716:16728   */\n      div\n        /* \"#utility.yul\":16706:16728   */\n      swap1\n      pop\n        /* \"#utility.yul\":16773:16774   */\n      0x01\n        /* \"#utility.yul\":16767:16771   */\n      dup3\n        /* \"#utility.yul\":16763:16775   */\n      and\n        /* \"#utility.yul\":16794:16812   */\n      dup1\n        /* \"#utility.yul\":16784:16865   */\n      tag_390\n      jumpi\n        /* \"#utility.yul\":16850:16854   */\n      0x7f\n        /* \"#utility.yul\":16842:16848   */\n      dup3\n        /* \"#utility.yul\":16838:16855   */\n      and\n        /* \"#utility.yul\":16828:16855   */\n      swap2\n      pop\n        /* \"#utility.yul\":16784:16865   */\n    tag_390:\n        /* \"#utility.yul\":16912:16914   */\n      0x20\n        /* \"#utility.yul\":16904:16910   */\n      dup3\n        /* \"#utility.yul\":16901:16915   */\n      lt\n        /* \"#utility.yul\":16881:16899   */\n      dup2\n        /* \"#utility.yul\":16878:16916   */\n      eq\n        /* \"#utility.yul\":16875:16959   */\n      iszero\n      tag_391\n      jumpi\n        /* \"#utility.yul\":16931:16949   */\n      tag_392\n      tag_393\n      jump\t// in\n    tag_392:\n        /* \"#utility.yul\":16875:16959   */\n    tag_391:\n        /* \"#utility.yul\":16696:16965   */\n      pop\n        /* \"#utility.yul\":16645:16965   */\n      swap2\n      swap1\n      pop\n      jump\t// out\n        /* \"#utility.yul\":16971:17151   */\n    tag_373:\n        /* \"#utility.yul\":17019:17096   */\n      0x4e487b7100000000000000000000000000000000000000000000000000000000\n        /* \"#utility.yul\":17016:17017   */\n      0x00\n        /* \"#utility.yul\":17009:17097   */\n      mstore\n        /* \"#utility.yul\":17116:17120   */\n      0x11\n        /* \"#utility.yul\":17113:17114   */\n      0x04\n        /* \"#utility.yul\":17106:17121   */\n      mstore\n        /* \"#utility.yul\":17140:17144   */\n      0x24\n        /* \"#utility.yul\":17137:17138   */\n      0x00\n        /* \"#utility.yul\":17130:17145   */\n      revert\n        /* \"#utility.yul\":17157:17337   */\n    tag_393:\n        /* \"#utility.yul\":17205:17282   */\n      0x4e487b7100000000000000000000000000000000000000000000000000000000\n        /* \"#utility.yul\":17202:17203   */\n      0x00\n        /* \"#utility.yul\":17195:17283   */\n      mstore\n        /* \"#utility.yul\":17302:17306   */\n      0x22\n        /* \"#utility.yul\":17299:17300   */\n      0x04\n        /* \"#utility.yul\":17292:17307   */\n      mstore\n        /* \"#utility.yul\":17326:17330   */\n      0x24\n        /* \"#utility.yul\":17323:17324   */\n      0x00\n        /* \"#utility.yul\":17316:17331   */\n      revert\n        /* \"#utility.yul\":17466:17583   */\n    tag_216:\n        /* \"#utility.yul\":17575:17576   */\n      0x00\n        /* \"#utility.yul\":17572:17573   */\n      dup1\n        /* \"#utility.yul\":17565:17577   */\n      revert\n        /* \"#utility.yul\":17589:17691   */\n    tag_265:\n        /* \"#utility.yul\":17630:17636   */\n      0x00\n        /* \"#utility.yul\":17681:17683   */\n      0x1f\n        /* \"#utility.yul\":17677:17684   */\n      not\n        /* \"#utility.yul\":17672:17674   */\n      0x1f\n        /* \"#utility.yul\":17665:17670   */\n      dup4\n        /* \"#utility.yul\":17661:17675   */\n      add\n        /* \"#utility.yul\":17657:17685   */\n      and\n        /* \"#utility.yul\":17647:17685   */\n      swap1\n      pop\n        /* \"#utility.yul\":17589:17691   */\n      swap2\n      swap1\n      pop\n      jump\t// out\n        /* \"#utility.yul\":17697:17919   */\n    tag_270:\n        /* \"#utility.yul\":17837:17871   */\n      0x45524332303a207472616e7366657220746f20746865207a65726f2061646472\n        /* \"#utility.yul\":17833:17834   */\n      0x00\n        /* \"#utility.yul\":17825:17831   */\n      dup3\n        /* \"#utility.yul\":17821:17835   */\n      add\n        /* \"#utility.yul\":17814:17872   */\n      mstore\n        /* \"#utility.yul\":17906:17911   */\n      0x6573730000000000000000000000000000000000000000000000000000000000\n        /* \"#utility.yul\":17901:17903   */\n      0x20\n        /* \"#utility.yul\":17893:17899   */\n      dup3\n        /* \"#utility.yul\":17889:17904   */\n      add\n        /* \"#utility.yul\":17882:17912   */\n      mstore\n        /* \"#utility.yul\":17697:17919   */\n      pop\n      jump\t// out\n        /* \"#utility.yul\":17925:18146   */\n    tag_275:\n        /* \"#utility.yul\":18065:18099   */\n      0x45524332303a206275726e20616d6f756e7420657863656564732062616c616e\n        /* \"#utility.yul\":18061:18062   */\n      0x00\n        /* \"#utility.yul\":18053:18059   */\n      dup3\n        /* \"#utility.yul\":18049:18063   */\n      add\n        /* \"#utility.yul\":18042:18100   */\n      mstore\n        /* \"#utility.yul\":18134:18138   */\n      0x6365000000000000000000000000000000000000000000000000000000000000\n        /* \"#utility.yul\":18129:18131   */\n      0x20\n        /* \"#utility.yul\":18121:18127   */\n      dup3\n        /* \"#utility.yul\":18117:18132   */\n      add\n        /* \"#utility.yul\":18110:18139   */\n      mstore\n        /* \"#utility.yul\":17925:18146   */\n      pop\n      jump\t// out\n        /* \"#utility.yul\":18152:18373   */\n    tag_280:\n        /* \"#utility.yul\":18292:18326   */\n      0x45524332303a20617070726f766520746f20746865207a65726f206164647265\n        /* \"#utility.yul\":18288:18289   */\n      0x00\n        /* \"#utility.yul\":18280:18286   */\n      dup3\n        /* \"#utility.yul\":18276:18290   */\n      add\n        /* \"#utility.yul\":18269:18327   */\n      mstore\n        /* \"#utility.yul\":18361:18365   */\n      0x7373000000000000000000000000000000000000000000000000000000000000\n        /* \"#utility.yul\":18356:18358   */\n      0x20\n        /* \"#utility.yul\":18348:18354   */\n      dup3\n        /* \"#utility.yul\":18344:18359   */\n      add\n        /* \"#utility.yul\":18337:18366   */\n      mstore\n        /* \"#utility.yul\":18152:18373   */\n      pop\n      jump\t// out\n        /* \"#utility.yul\":18379:18558   */\n    tag_285:\n        /* \"#utility.yul\":18519:18550   */\n      0x45524332303a20696e73756666696369656e7420616c6c6f77616e6365000000\n        /* \"#utility.yul\":18515:18516   */\n      0x00\n        /* \"#utility.yul\":18507:18513   */\n      dup3\n        /* \"#utility.yul\":18503:18517   */\n      add\n        /* \"#utility.yul\":18496:18551   */\n      mstore\n        /* \"#utility.yul\":18379:18558   */\n      pop\n      jump\t// out\n        /* \"#utility.yul\":18564:18789   */\n    tag_290:\n        /* \"#utility.yul\":18704:18738   */\n      0x45524332303a207472616e7366657220616d6f756e7420657863656564732062\n        /* \"#utility.yul\":18700:18701   */\n      0x00\n        /* \"#utility.yul\":18692:18698   */\n      dup3\n        /* \"#utility.yul\":18688:18702   */\n      add\n        /* \"#utility.yul\":18681:18739   */\n      mstore\n        /* \"#utility.yul\":18773:18781   */\n      0x616c616e63650000000000000000000000000000000000000000000000000000\n        /* \"#utility.yul\":18768:18770   */\n      0x20\n        /* \"#utility.yul\":18760:18766   */\n      dup3\n        /* \"#utility.yul\":18756:18771   */\n      add\n        /* \"#utility.yul\":18749:18782   */\n      mstore\n        /* \"#utility.yul\":18564:18789   */\n      pop\n      jump\t// out\n        /* \"#utility.yul\":18795:18955   */\n    tag_295:\n        /* \"#utility.yul\":18935:18947   */\n      0x6f6e6c792061646d696e00000000000000000000000000000000000000000000\n        /* \"#utility.yul\":18931:18932   */\n      0x00\n        /* \"#utility.yul\":18923:18929   */\n      dup3\n        /* \"#utility.yul\":18919:18933   */\n      add\n        /* \"#utility.yul\":18912:18948   */\n      mstore\n        /* \"#utility.yul\":18795:18955   */\n      pop\n      jump\t// out\n        /* \"#utility.yul\":18961:19181   */\n    tag_300:\n        /* \"#utility.yul\":19101:19135   */\n      0x45524332303a206275726e2066726f6d20746865207a65726f20616464726573\n        /* \"#utility.yul\":19097:19098   */\n      0x00\n        /* \"#utility.yul\":19089:19095   */\n      dup3\n        /* \"#utility.yul\":19085:19099   */\n      add\n        /* \"#utility.yul\":19078:19136   */\n      mstore\n        /* \"#utility.yul\":19170:19173   */\n      0x7300000000000000000000000000000000000000000000000000000000000000\n        /* \"#utility.yul\":19165:19167   */\n      0x20\n        /* \"#utility.yul\":19157:19163   */\n      dup3\n        /* \"#utility.yul\":19153:19168   */\n      add\n        /* \"#utility.yul\":19146:19174   */\n      mstore\n        /* \"#utility.yul\":18961:19181   */\n      pop\n      jump\t// out\n        /* \"#utility.yul\":19187:19411   */\n    tag_305:\n        /* \"#utility.yul\":19327:19361   */\n      0x45524332303a207472616e736665722066726f6d20746865207a65726f206164\n        /* \"#utility.yul\":19323:19324   */\n      0x00\n        /* \"#utility.yul\":19315:19321   */\n      dup3\n        /* \"#utility.yul\":19311:19325   */\n      add\n        /* \"#utility.yul\":19304:19362   */\n      mstore\n        /* \"#utility.yul\":19396:19403   */\n      0x6472657373000000000000000000000000000000000000000000000000000000\n        /* \"#utility.yul\":19391:19393   */\n      0x20\n        /* \"#utility.yul\":19383:19389   */\n      dup3\n        /* \"#utility.yul\":19379:19394   */\n      add\n        /* \"#utility.yul\":19372:19404   */\n      mstore\n        /* \"#utility.yul\":19187:19411   */\n      pop\n      jump\t// out\n        /* \"#utility.yul\":19417:19640   */\n    tag_310:\n        /* \"#utility.yul\":19557:19591   */\n      0x45524332303a20617070726f76652066726f6d20746865207a65726f20616464\n        /* \"#utility.yul\":19553:19554   */\n      0x00\n        /* \"#utility.yul\":19545:19551   */\n      dup3\n        /* \"#utility.yul\":19541:19555   */\n      add\n        /* \"#utility.yul\":19534:19592   */\n      mstore\n        /* \"#utility.yul\":19626:19632   */\n      0x7265737300000000000000000000000000000000000000000000000000000000\n        /* \"#utility.yul\":19621:19623   */\n      0x20\n        /* \"#utility.yul\":19613:19619   */\n      dup3\n        /* \"#utility.yul\":19609:19624   */\n      add\n        /* \"#utility.yul\":19602:19633   */\n      mstore\n        /* \"#utility.yul\":19417:19640   */\n      pop\n      jump\t// out\n        /* \"#utility.yul\":19646:19870   */\n    tag_315:\n        /* \"#utility.yul\":19786:19820   */\n      0x45524332303a2064656372656173656420616c6c6f77616e63652062656c6f77\n        /* \"#utility.yul\":19782:19783   */\n      0x00\n        /* \"#utility.yul\":19774:19780   */\n      dup3\n        /* \"#utility.yul\":19770:19784   */\n      add\n        /* \"#utility.yul\":19763:19821   */\n      mstore\n        /* \"#utility.yul\":19855:19862   */\n      0x207a65726f000000000000000000000000000000000000000000000000000000\n        /* \"#utility.yul\":19850:19852   */\n      0x20\n        /* \"#utility.yul\":19842:19848   */\n      dup3\n        /* \"#utility.yul\":19838:19853   */\n      add\n        /* \"#utility.yul\":19831:19863   */\n      mstore\n        /* \"#utility.yul\":19646:19870   */\n      pop\n      jump\t// out\n        /* \"#utility.yul\":19876:20057   */\n    tag_320:\n        /* \"#utility.yul\":20016:20049   */\n      0x45524332303a206d696e7420746f20746865207a65726f206164647265737300\n        /* \"#utility.yul\":20012:20013   */\n      0x00\n        /* \"#utility.yul\":20004:20010   */\n      dup3\n        /* \"#utility.yul\":20000:20014   */\n      add\n        /* \"#utility.yul\":19993:20050   */\n      mstore\n        /* \"#utility.yul\":19876:20057   */\n      pop\n      jump\t// out\n        /* \"#utility.yul\":20063:20185   */\n    tag_200:\n        /* \"#utility.yul\":20136:20160   */\n      tag_412\n        /* \"#utility.yul\":20154:20159   */\n      dup2\n        /* \"#utility.yul\":20136:20160   */\n      tag_251\n      jump\t// in\n    tag_412:\n        /* \"#utility.yul\":20129:20134   */\n      dup2\n        /* \"#utility.yul\":20126:20161   */\n      eq\n        /* \"#utility.yul\":20116:20179   */\n      tag_413\n      jumpi\n        /* \"#utility.yul\":20175:20176   */\n      0x00\n        /* \"#utility.yul\":20172:20173   */\n      dup1\n        /* \"#utility.yul\":20165:20177   */\n      revert\n        /* \"#utility.yul\":20116:20179   */\n    tag_413:\n        /* \"#utility.yul\":20063:20185   */\n      pop\n      jump\t// out\n        /* \"#utility.yul\":20191:20307   */\n    tag_204:\n        /* \"#utility.yul\":20261:20282   */\n      tag_415\n        /* \"#utility.yul\":20276:20281   */\n      dup2\n        /* \"#utility.yul\":20261:20282   */\n      tag_255\n      jump\t// in\n    tag_415:\n        /* \"#utility.yul\":20254:20259   */\n      dup2\n        /* \"#utility.yul\":20251:20283   */\n      eq\n        /* \"#utility.yul\":20241:20301   */\n      tag_416\n      jumpi\n        /* \"#utility.yul\":20297:20298   */\n      0x00\n        /* \"#utility.yul\":20294:20295   */\n      dup1\n        /* \"#utility.yul\":20287:20299   */\n      revert\n        /* \"#utility.yul\":20241:20301   */\n    tag_416:\n        /* \"#utility.yul\":20191:20307   */\n      pop\n      jump\t// out\n        /* \"#utility.yul\":20313:20463   */\n    tag_208:\n        /* \"#utility.yul\":20400:20438   */\n      tag_418\n        /* \"#utility.yul\":20432:20437   */\n      dup2\n        /* \"#utility.yul\":20400:20438   */\n      tag_378\n      jump\t// in\n    tag_418:\n        /* \"#utility.yul\":20393:20398   */\n      dup2\n        /* \"#utility.yul\":20390:20439   */\n      eq\n        /* \"#utility.yul\":20380:20457   */\n      tag_419\n      jumpi\n        /* \"#utility.yul\":20453:20454   */\n      0x00\n        /* \"#utility.yul\":20450:20451   */\n      dup1\n        /* \"#utility.yul\":20443:20455   */\n      revert\n        /* \"#utility.yul\":20380:20457   */\n    tag_419:\n        /* \"#utility.yul\":20313:20463   */\n      pop\n      jump\t// out\n        /* \"#utility.yul\":20469:20591   */\n    tag_212:\n        /* \"#utility.yul\":20542:20566   */\n      tag_421\n        /* \"#utility.yul\":20560:20565   */\n      dup2\n        /* \"#utility.yul\":20542:20566   */\n      tag_324\n      jump\t// in\n    tag_421:\n        /* \"#utility.yul\":20535:20540   */\n      dup2\n        /* \"#utility.yul\":20532:20567   */\n      eq\n        /* \"#utility.yul\":20522:20585   */\n      tag_422\n      jumpi\n        /* \"#utility.yul\":20581:20582   */\n      0x00\n        /* \"#utility.yul\":20578:20579   */\n      dup1\n        /* \"#utility.yul\":20571:20583   */\n      revert\n        /* \"#utility.yul\":20522:20585   */\n    tag_422:\n        /* \"#utility.yul\":20469:20591   */\n      pop\n      jump\t// out\n\n    auxdata: 0xa2646970667358221220def5ac21ba2be316aa3f144ab454838fc8233627aac4debb33ebe84decfd1d7764736f6c63430008070033\n}\n",
				"bytecode": {
					"linkReferences": {},
					"object": "60806040523480156200001157600080fd5b506040518060400160405280600881526020017f4d7920546f6b656e0000000000000000000000000000000000000000000000008152506040518060400160405280600381526020017f4d544e00000000000000000000000000000000000000000000000000000000008152508160039080519060200190620000969291906200028d565b508060049080519060200190620000af9291906200028d565b505050620000ce3369021e19e0c9bab24000006200011560201b60201c565b33600560006101000a81548173ffffffffffffffffffffffffffffffffffffffff021916908373ffffffffffffffffffffffffffffffffffffffff160217905550620004e9565b600073ffffffffffffffffffffffffffffffffffffffff168273ffffffffffffffffffffffffffffffffffffffff16141562000188576040517f08c379a00000000000000000000000000000000000000000000000000000000081526004016200017f9062000375565b60405180910390fd5b6200019c600083836200028360201b60201c565b8060026000828254620001b09190620003c5565b92505081905550806000808473ffffffffffffffffffffffffffffffffffffffff1673ffffffffffffffffffffffffffffffffffffffff168152602001908152602001600020600082825401925050819055508173ffffffffffffffffffffffffffffffffffffffff16600073ffffffffffffffffffffffffffffffffffffffff167fddf252ad1be2c89b69c2b068fc378daa952ba7f163c4a11628f55a4df523b3ef8360405162000263919062000397565b60405180910390a36200027f600083836200028860201b60201c565b5050565b505050565b505050565b8280546200029b906200042c565b90600052602060002090601f016020900481019282620002bf57600085556200030b565b82601f10620002da57805160ff19168380011785556200030b565b828001600101855582156200030b579182015b828111156200030a578251825591602001919060010190620002ed565b5b5090506200031a91906200031e565b5090565b5b80821115620003395760008160009055506001016200031f565b5090565b60006200034c601f83620003b4565b91506200035982620004c0565b602082019050919050565b6200036f8162000422565b82525050565b6000602082019050818103600083015262000390816200033d565b9050919050565b6000602082019050620003ae600083018462000364565b92915050565b600082825260208201905092915050565b6000620003d28262000422565b9150620003df8362000422565b9250827fffffffffffffffffffffffffffffffffffffffffffffffffffffffffffffffff0382111562000417576200041662000462565b5b828201905092915050565b6000819050919050565b600060028204905060018216806200044557607f821691505b602082108114156200045c576200045b62000491565b5b50919050565b7f4e487b7100000000000000000000000000000000000000000000000000000000600052601160045260246000fd5b7f4e487b7100000000000000000000000000000000000000000000000000000000600052602260045260246000fd5b7f45524332303a206d696e7420746f20746865207a65726f206164647265737300600082015250565b611b0c80620004f96000396000f3fe608060405234801561001057600080fd5b50600436106100f55760003560e01c806342966c6811610097578063a457c2d711610066578063a457c2d714610286578063a9059cbb146102b6578063dd62ed3e146102e6578063f851a44014610316576100f5565b806342966c681461020057806370a082311461021c5780637df4d8291461024c57806395d89b4114610268576100f5565b806323b872dd116100d357806323b872dd14610166578063313ce5671461019657806339509351146101b457806340c10f19146101e4576100f5565b806306fdde03146100fa578063095ea7b31461011857806318160ddd14610148575b600080fd5b610102610334565b60405161010f919061141d565b60405180910390f35b610132600480360381019061012d91906110db565b6103c6565b60405161013f9190611402565b60405180910390f35b6101506103e9565b60405161015d919061159f565b60405180910390f35b610180600480360381019061017b9190611088565b6103f3565b60405161018d9190611402565b60405180910390f35b61019e610422565b6040516101ab91906115ba565b60405180910390f35b6101ce60048036038101906101c991906110db565b61042b565b6040516101db9190611402565b60405180910390f35b6101fe60048036038101906101f991906110db565b610462565b005b61021a6004803603810190610215919061119b565b610500565b005b6102366004803603810190610231919061101b565b61050d565b604051610243919061159f565b60405180910390f35b61026660048036038101906102619190611148565b610555565b005b6102706105e8565b60405161027d919061141d565b60405180910390f35b6102a0600480360381019061029b91906110db565b61067a565b6040516102ad9190611402565b60405180910390f35b6102d060048036038101906102cb91906110db565b6106f1565b6040516102dd9190611402565b60405180910390f35b61030060048036038101906102fb9190611048565b610714565b60405161030d919061159f565b60405180910390f35b61031e61079b565b60405161032b91906113be565b60405180910390f35b606060038054610343906116e1565b80601f016020809104026020016040519081016040528092919081815260200182805461036f906116e1565b80156103bc5780601f10610391576101008083540402835291602001916103bc565b820191906000526020600020905b81548152906001019060200180831161039f57829003601f168201915b5050505050905090565b6000806103d16107c1565b90506103de8185856107c9565b600191505092915050565b6000600254905090565b6000806103fe6107c1565b905061040b858285610994565b610416858585610a20565b60019150509392505050565b60006012905090565b6000806104366107c1565b90506104578185856104488589610714565b61045291906115f1565b6107c9565b600191505092915050565b600560009054906101000a900473ffffffffffffffffffffffffffffffffffffffff1673ffffffffffffffffffffffffffffffffffffffff163373ffffffffffffffffffffffffffffffffffffffff16146104f2576040517f08c379a00000000000000000000000000000000000000000000000000000000081526004016104e9906114df565b60405180910390fd5b6104fc8282610c98565b5050565b61050a3382610def565b50565b60008060008373ffffffffffffffffffffffffffffffffffffffff1673ffffffffffffffffffffffffffffffffffffffff168152602001908152602001600020549050919050565b8273ffffffffffffffffffffffffffffffffffffffff1663a9059cbb83836040518363ffffffff1660e01b81526004016105909291906113d9565b602060405180830381600087803b1580156105aa57600080fd5b505af11580156105be573d6000803e3d6000fd5b505050506040513d601f19601f820116820180604052508101906105e2919061111b565b50505050565b6060600480546105f7906116e1565b80601f0160208091040260200160405190810160405280929190818152602001828054610623906116e1565b80156106705780601f1061064557610100808354040283529160200191610670565b820191906000526020600020905b81548152906001019060200180831161065357829003601f168201915b5050505050905090565b6000806106856107c1565b905060006106938286610714565b9050838110156106d8576040517f08c379a00000000000000000000000000000000000000000000000000000000081526004016106cf9061155f565b60405180910390fd5b6106e582868684036107c9565b60019250505092915050565b6000806106fc6107c1565b9050610709818585610a20565b600191505092915050565b6000600160008473ffffffffffffffffffffffffffffffffffffffff1673ffffffffffffffffffffffffffffffffffffffff16815260200190815260200160002060008373ffffffffffffffffffffffffffffffffffffffff1673ffffffffffffffffffffffffffffffffffffffff16815260200190815260200160002054905092915050565b600560009054906101000a900473ffffffffffffffffffffffffffffffffffffffff1681565b600033905090565b600073ffffffffffffffffffffffffffffffffffffffff168373ffffffffffffffffffffffffffffffffffffffff161415610839576040517f08c379a00000000000000000000000000000000000000000000000000000000081526004016108309061153f565b60405180910390fd5b600073ffffffffffffffffffffffffffffffffffffffff168273ffffffffffffffffffffffffffffffffffffffff1614156108a9576040517f08c379a00000000000000000000000000000000000000000000000000000000081526004016108a09061147f565b60405180910390fd5b80600160008573ffffffffffffffffffffffffffffffffffffffff1673ffffffffffffffffffffffffffffffffffffffff16815260200190815260200160002060008473ffffffffffffffffffffffffffffffffffffffff1673ffffffffffffffffffffffffffffffffffffffff168152602001908152602001600020819055508173ffffffffffffffffffffffffffffffffffffffff168373ffffffffffffffffffffffffffffffffffffffff167f8c5be1e5ebec7d5bd14f71427d1e84f3dd0314c0f7b2291e5b200ac8c7c3b92583604051610987919061159f565b60405180910390a3505050565b60006109a08484610714565b90507fffffffffffffffffffffffffffffffffffffffffffffffffffffffffffffffff8114610a1a5781811015610a0c576040517f08c379a0000000000000000000000000000000000000000000000000000000008152600401610a039061149f565b60405180910390fd5b610a1984848484036107c9565b5b50505050565b600073ffffffffffffffffffffffffffffffffffffffff168373ffffffffffffffffffffffffffffffffffffffff161415610a90576040517f08c379a0000000000000000000000000000000000000000000000000000000008152600401610a879061151f565b60405180910390fd5b600073ffffffffffffffffffffffffffffffffffffffff168273ffffffffffffffffffffffffffffffffffffffff161415610b00576040517f08c379a0000000000000000000000000000000000000000000000000000000008152600401610af79061143f565b60405180910390fd5b610b0b838383610fbd565b60008060008573ffffffffffffffffffffffffffffffffffffffff1673ffffffffffffffffffffffffffffffffffffffff16815260200190815260200160002054905081811015610b91576040517f08c379a0000000000000000000000000000000000000000000000000000000008152600401610b88906114bf565b60405180910390fd5b8181036000808673ffffffffffffffffffffffffffffffffffffffff1673ffffffffffffffffffffffffffffffffffffffff16815260200190815260200160002081905550816000808573ffffffffffffffffffffffffffffffffffffffff1673ffffffffffffffffffffffffffffffffffffffff168152602001908152602001600020600082825401925050819055508273ffffffffffffffffffffffffffffffffffffffff168473ffffffffffffffffffffffffffffffffffffffff167fddf252ad1be2c89b69c2b068fc378daa952ba7f163c4a11628f55a4df523b3ef84604051610c7f919061159f565b60405180910390a3610c92848484610fc2565b50505050565b600073ffffffffffffffffffffffffffffffffffffffff168273ffffffffffffffffffffffffffffffffffffffff161415610d08576040517f08c379a0000000000000000000000000000000000000000000000000000000008152600401610cff9061157f565b60405180910390fd5b610d1460008383610fbd565b8060026000828254610d2691906115f1565b92505081905550806000808473ffffffffffffffffffffffffffffffffffffffff1673ffffffffffffffffffffffffffffffffffffffff168152602001908152602001600020600082825401925050819055508173ffffffffffffffffffffffffffffffffffffffff16600073ffffffffffffffffffffffffffffffffffffffff167fddf252ad1be2c89b69c2b068fc378daa952ba7f163c4a11628f55a4df523b3ef83604051610dd7919061159f565b60405180910390a3610deb60008383610fc2565b5050565b600073ffffffffffffffffffffffffffffffffffffffff168273ffffffffffffffffffffffffffffffffffffffff161415610e5f576040517f08c379a0000000000000000000000000000000000000000000000000000000008152600401610e56906114ff565b60405180910390fd5b610e6b82600083610fbd565b60008060008473ffffffffffffffffffffffffffffffffffffffff1673ffffffffffffffffffffffffffffffffffffffff16815260200190815260200160002054905081811015610ef1576040517f08c379a0000000000000000000000000000000000000000000000000000000008152600401610ee89061145f565b60405180910390fd5b8181036000808573ffffffffffffffffffffffffffffffffffffffff1673ffffffffffffffffffffffffffffffffffffffff1681526020019081526020016000208190555081600260008282540392505081905550600073ffffffffffffffffffffffffffffffffffffffff168373ffffffffffffffffffffffffffffffffffffffff167fddf252ad1be2c89b69c2b068fc378daa952ba7f163c4a11628f55a4df523b3ef84604051610fa4919061159f565b60405180910390a3610fb883600084610fc2565b505050565b505050565b505050565b600081359050610fd681611a7a565b92915050565b600081519050610feb81611a91565b92915050565b60008135905061100081611aa8565b92915050565b60008135905061101581611abf565b92915050565b60006020828403121561103157611030611771565b5b600061103f84828501610fc7565b91505092915050565b6000806040838503121561105f5761105e611771565b5b600061106d85828601610fc7565b925050602061107e85828601610fc7565b9150509250929050565b6000806000606084860312156110a1576110a0611771565b5b60006110af86828701610fc7565b93505060206110c086828701610fc7565b92505060406110d186828701611006565b9150509250925092565b600080604083850312156110f2576110f1611771565b5b600061110085828601610fc7565b925050602061111185828601611006565b9150509250929050565b60006020828403121561113157611130611771565b5b600061113f84828501610fdc565b91505092915050565b60008060006060848603121561116157611160611771565b5b600061116f86828701610ff1565b935050602061118086828701610fc7565b925050604061119186828701611006565b9150509250925092565b6000602082840312156111b1576111b0611771565b5b60006111bf84828501611006565b91505092915050565b6111d181611647565b82525050565b6111e081611659565b82525050565b60006111f1826115d5565b6111fb81856115e0565b935061120b8185602086016116ae565b61121481611776565b840191505092915050565b600061122c6023836115e0565b915061123782611787565b604082019050919050565b600061124f6022836115e0565b915061125a826117d6565b604082019050919050565b60006112726022836115e0565b915061127d82611825565b604082019050919050565b6000611295601d836115e0565b91506112a082611874565b602082019050919050565b60006112b86026836115e0565b91506112c38261189d565b604082019050919050565b60006112db600a836115e0565b91506112e6826118ec565b602082019050919050565b60006112fe6021836115e0565b915061130982611915565b604082019050919050565b60006113216025836115e0565b915061132c82611964565b604082019050919050565b60006113446024836115e0565b915061134f826119b3565b604082019050919050565b60006113676025836115e0565b915061137282611a02565b604082019050919050565b600061138a601f836115e0565b915061139582611a51565b602082019050919050565b6113a981611697565b82525050565b6113b8816116a1565b82525050565b60006020820190506113d360008301846111c8565b92915050565b60006040820190506113ee60008301856111c8565b6113fb60208301846113a0565b9392505050565b600060208201905061141760008301846111d7565b92915050565b6000602082019050818103600083015261143781846111e6565b905092915050565b600060208201905081810360008301526114588161121f565b9050919050565b6000602082019050818103600083015261147881611242565b9050919050565b6000602082019050818103600083015261149881611265565b9050919050565b600060208201905081810360008301526114b881611288565b9050919050565b600060208201905081810360008301526114d8816112ab565b9050919050565b600060208201905081810360008301526114f8816112ce565b9050919050565b60006020820190508181036000830152611518816112f1565b9050919050565b6000602082019050818103600083015261153881611314565b9050919050565b6000602082019050818103600083015261155881611337565b9050919050565b600060208201905081810360008301526115788161135a565b9050919050565b600060208201905081810360008301526115988161137d565b9050919050565b60006020820190506115b460008301846113a0565b92915050565b60006020820190506115cf60008301846113af565b92915050565b600081519050919050565b600082825260208201905092915050565b60006115fc82611697565b915061160783611697565b9250827fffffffffffffffffffffffffffffffffffffffffffffffffffffffffffffffff0382111561163c5761163b611713565b5b828201905092915050565b600061165282611677565b9050919050565b60008115159050919050565b600061167082611647565b9050919050565b600073ffffffffffffffffffffffffffffffffffffffff82169050919050565b6000819050919050565b600060ff82169050919050565b60005b838110156116cc5780820151818401526020810190506116b1565b838111156116db576000848401525b50505050565b600060028204905060018216806116f957607f821691505b6020821081141561170d5761170c611742565b5b50919050565b7f4e487b7100000000000000000000000000000000000000000000000000000000600052601160045260246000fd5b7f4e487b7100000000000000000000000000000000000000000000000000000000600052602260045260246000fd5b600080fd5b6000601f19601f8301169050919050565b7f45524332303a207472616e7366657220746f20746865207a65726f206164647260008201527f6573730000000000000000000000000000000000000000000000000000000000602082015250565b7f45524332303a206275726e20616d6f756e7420657863656564732062616c616e60008201527f6365000000000000000000000000000000000000000000000000000000000000602082015250565b7f45524332303a20617070726f766520746f20746865207a65726f20616464726560008201527f7373000000000000000000000000000000000000000000000000000000000000602082015250565b7f45524332303a20696e73756666696369656e7420616c6c6f77616e6365000000600082015250565b7f45524332303a207472616e7366657220616d6f756e742065786365656473206260008201527f616c616e63650000000000000000000000000000000000000000000000000000602082015250565b7f6f6e6c792061646d696e00000000000000000000000000000000000000000000600082015250565b7f45524332303a206275726e2066726f6d20746865207a65726f2061646472657360008201527f7300000000000000000000000000000000000000000000000000000000000000602082015250565b7f45524332303a207472616e736665722066726f6d20746865207a65726f20616460008201527f6472657373000000000000000000000000000000000000000000000000000000602082015250565b7f45524332303a20617070726f76652066726f6d20746865207a65726f2061646460008201527f7265737300000000000000000000000000000000000000000000000000000000602082015250565b7f45524332303a2064656372656173656420616c6c6f77616e63652062656c6f7760008201527f207a65726f000000000000000000000000000000000000000000000000000000602082015250565b7f45524332303a206d696e7420746f20746865207a65726f206164647265737300600082015250565b611a8381611647565b8114611a8e57600080fd5b50565b611a9a81611659565b8114611aa557600080fd5b50565b611ab181611665565b8114611abc57600080fd5b50565b611ac881611697565b8114611ad357600080fd5b5056fea2646970667358221220def5ac21ba2be316aa3f144ab454838fc8233627aac4debb33ebe84decfd1d7764736f6c63430008070033",
					"opcodes": "PUSH1 0x80 PUSH1 0x40 MSTORE CALLVALUE DUP1 ISZERO PUSH3 0x11 JUMPI PUSH1 0x0 DUP1 REVERT JUMPDEST POP PUSH1 0x40 MLOAD DUP1 PUSH1 0x40 ADD PUSH1 0x40 MSTORE DUP1 PUSH1 0x8 DUP2 MSTORE PUSH1 0x20 ADD PUSH32 0x4D7920546F6B656E000000000000000000000000000000000000000000000000 DUP2 MSTORE POP PUSH1 0x40 MLOAD DUP1 PUSH1 0x40 ADD PUSH1 0x40 MSTORE DUP1 PUSH1 0x3 DUP2 MSTORE PUSH1 0x20 ADD PUSH32 0x4D544E0000000000000000000000000000000000000000000000000000000000 DUP2 MSTORE POP DUP2 PUSH1 0x3 SWAP1 DUP1 MLOAD SWAP1 PUSH1 0x20 ADD SWAP1 PUSH3 0x96 SWAP3 SWAP2 SWAP1 PUSH3 0x28D JUMP JUMPDEST POP DUP1 PUSH1 0x4 SWAP1 DUP1 MLOAD SWAP1 PUSH1 0x20 ADD SWAP1 PUSH3 0xAF SWAP3 SWAP2 SWAP1 PUSH3 0x28D JUMP JUMPDEST POP POP POP PUSH3 0xCE CALLER PUSH10 0x21E19E0C9BAB2400000 PUSH3 0x115 PUSH1 0x20 SHL PUSH1 0x20 SHR JUMP JUMPDEST CALLER PUSH1 0x5 PUSH1 0x0 PUSH2 0x100 EXP DUP2 SLOAD DUP2 PUSH20 0xFFFFFFFFFFFFFFFFFFFFFFFFFFFFFFFFFFFFFFFF MUL NOT AND SWAP1 DUP4 PUSH20 0xFFFFFFFFFFFFFFFFFFFFFFFFFFFFFFFFFFFFFFFF AND MUL OR SWAP1 SSTORE POP PUSH3 0x4E9 JUMP JUMPDEST PUSH1 0x0 PUSH20 0xFFFFFFFFFFFFFFFFFFFFFFFFFFFFFFFFFFFFFFFF AND DUP3 PUSH20 0xFFFFFFFFFFFFFFFFFFFFFFFFFFFFFFFFFFFFFFFF AND EQ ISZERO PUSH3 0x188 JUMPI PUSH1 0x40 MLOAD PUSH32 0x8C379A000000000000000000000000000000000000000000000000000000000 DUP2 MSTORE PUSH1 0x4 ADD PUSH3 0x17F SWAP1 PUSH3 0x375 JUMP JUMPDEST PUSH1 0x40 MLOAD DUP1 SWAP2 SUB SWAP1 REVERT JUMPDEST PUSH3 0x19C PUSH1 0x0 DUP4 DUP4 PUSH3 0x283 PUSH1 0x20 SHL PUSH1 0x20 SHR JUMP JUMPDEST DUP1 PUSH1 0x2 PUSH1 0x0 DUP3 DUP3 SLOAD PUSH3 0x1B0 SWAP2 SWAP1 PUSH3 0x3C5 JUMP JUMPDEST SWAP3 POP POP DUP2 SWAP1 SSTORE POP DUP1 PUSH1 0x0 DUP1 DUP5 PUSH20 0xFFFFFFFFFFFFFFFFFFFFFFFFFFFFFFFFFFFFFFFF AND PUSH20 0xFFFFFFFFFFFFFFFFFFFFFFFFFFFFFFFFFFFFFFFF AND DUP2 MSTORE PUSH1 0x20 ADD SWAP1 DUP2 MSTORE PUSH1 0x20 ADD PUSH1 0x0 KECCAK256 PUSH1 0x0 DUP3 DUP3 SLOAD ADD SWAP3 POP POP DUP2 SWAP1 SSTORE POP DUP2 PUSH20 0xFFFFFFFFFFFFFFFFFFFFFFFFFFFFFFFFFFFFFFFF AND PUSH1 0x0 PUSH20 0xFFFFFFFFFFFFFFFFFFFFFFFFFFFFFFFFFFFFFFFF AND PUSH32 0xDDF252AD1BE2C89B69C2B068FC378DAA952BA7F163C4A11628F55A4DF523B3EF DUP4 PUSH1 0x40 MLOAD PUSH3 0x263 SWAP2 SWAP1 PUSH3 0x397 JUMP JUMPDEST PUSH1 0x40 MLOAD DUP1 SWAP2 SUB SWAP1 LOG3 PUSH3 0x27F PUSH1 0x0 DUP4 DUP4 PUSH3 0x288 PUSH1 0x20 SHL PUSH1 0x20 SHR JUMP JUMPDEST POP POP JUMP JUMPDEST POP POP POP JUMP JUMPDEST POP POP POP JUMP JUMPDEST DUP3 DUP1 SLOAD PUSH3 0x29B SWAP1 PUSH3 0x42C JUMP JUMPDEST SWAP1 PUSH1 0x0 MSTORE PUSH1 0x20 PUSH1 0x0 KECCAK256 SWAP1 PUSH1 0x1F ADD PUSH1 0x20 SWAP1 DIV DUP2 ADD SWAP3 DUP3 PUSH3 0x2BF JUMPI PUSH1 0x0 DUP6 SSTORE PUSH3 0x30B JUMP JUMPDEST DUP3 PUSH1 0x1F LT PUSH3 0x2DA JUMPI DUP1 MLOAD PUSH1 0xFF NOT AND DUP4 DUP1 ADD OR DUP6 SSTORE PUSH3 0x30B JUMP JUMPDEST DUP3 DUP1 ADD PUSH1 0x1 ADD DUP6 SSTORE DUP3 ISZERO PUSH3 0x30B JUMPI SWAP2 DUP3 ADD JUMPDEST DUP3 DUP2 GT ISZERO PUSH3 0x30A JUMPI DUP3 MLOAD DUP3 SSTORE SWAP2 PUSH1 0x20 ADD SWAP2 SWAP1 PUSH1 0x1 ADD SWAP1 PUSH3 0x2ED JUMP JUMPDEST JUMPDEST POP SWAP1 POP PUSH3 0x31A SWAP2 SWAP1 PUSH3 0x31E JUMP JUMPDEST POP SWAP1 JUMP JUMPDEST JUMPDEST DUP1 DUP3 GT ISZERO PUSH3 0x339 JUMPI PUSH1 0x0 DUP2 PUSH1 0x0 SWAP1 SSTORE POP PUSH1 0x1 ADD PUSH3 0x31F JUMP JUMPDEST POP SWAP1 JUMP JUMPDEST PUSH1 0x0 PUSH3 0x34C PUSH1 0x1F DUP4 PUSH3 0x3B4 JUMP JUMPDEST SWAP2 POP PUSH3 0x359 DUP3 PUSH3 0x4C0 JUMP JUMPDEST PUSH1 0x20 DUP3 ADD SWAP1 POP SWAP2 SWAP1 POP JUMP JUMPDEST PUSH3 0x36F DUP2 PUSH3 0x422 JUMP JUMPDEST DUP3 MSTORE POP POP JUMP JUMPDEST PUSH1 0x0 PUSH1 0x20 DUP3 ADD SWAP1 POP DUP2 DUP2 SUB PUSH1 0x0 DUP4 ADD MSTORE PUSH3 0x390 DUP2 PUSH3 0x33D JUMP JUMPDEST SWAP1 POP SWAP2 SWAP1 POP JUMP JUMPDEST PUSH1 0x0 PUSH1 0x20 DUP3 ADD SWAP1 POP PUSH3 0x3AE PUSH1 0x0 DUP4 ADD DUP5 PUSH3 0x364 JUMP JUMPDEST SWAP3 SWAP2 POP POP JUMP JUMPDEST PUSH1 0x0 DUP3 DUP3 MSTORE PUSH1 0x20 DUP3 ADD SWAP1 POP SWAP3 SWAP2 POP POP JUMP JUMPDEST PUSH1 0x0 PUSH3 0x3D2 DUP3 PUSH3 0x422 JUMP JUMPDEST SWAP2 POP PUSH3 0x3DF DUP4 PUSH3 0x422 JUMP JUMPDEST SWAP3 POP DUP3 PUSH32 0xFFFFFFFFFFFFFFFFFFFFFFFFFFFFFFFFFFFFFFFFFFFFFFFFFFFFFFFFFFFFFFFF SUB DUP3 GT ISZERO PUSH3 0x417 JUMPI PUSH3 0x416 PUSH3 0x462 JUMP JUMPDEST JUMPDEST DUP3 DUP3 ADD SWAP1 POP SWAP3 SWAP2 POP POP JUMP JUMPDEST PUSH1 0x0 DUP2 SWAP1 POP SWAP2 SWAP1 POP JUMP JUMPDEST PUSH1 0x0 PUSH1 0x2 DUP3 DIV SWAP1 POP PUSH1 0x1 DUP3 AND DUP1 PUSH3 0x445 JUMPI PUSH1 0x7F DUP3 AND SWAP2 POP JUMPDEST PUSH1 0x20 DUP3 LT DUP2 EQ ISZERO PUSH3 0x45C JUMPI PUSH3 0x45B PUSH3 0x491 JUMP JUMPDEST JUMPDEST POP SWAP2 SWAP1 POP JUMP JUMPDEST PUSH32 0x4E487B7100000000000000000000000000000000000000000000000000000000 PUSH1 0x0 MSTORE PUSH1 0x11 PUSH1 0x4 MSTORE PUSH1 0x24 PUSH1 0x0 REVERT JUMPDEST PUSH32 0x4E487B7100000000000000000000000000000000000000000000000000000000 PUSH1 0x0 MSTORE PUSH1 0x22 PUSH1 0x4 MSTORE PUSH1 0x24 PUSH1 0x0 REVERT JUMPDEST PUSH32 0x45524332303A206D696E7420746F20746865207A65726F206164647265737300 PUSH1 0x0 DUP3 ADD MSTORE POP JUMP JUMPDEST PUSH2 0x1B0C DUP1 PUSH3 0x4F9 PUSH1 0x0 CODECOPY PUSH1 0x0 RETURN INVALID PUSH1 0x80 PUSH1 0x40 MSTORE CALLVALUE DUP1 ISZERO PUSH2 0x10 JUMPI PUSH1 0x0 DUP1 REVERT JUMPDEST POP PUSH1 0x4 CALLDATASIZE LT PUSH2 0xF5 JUMPI PUSH1 0x0 CALLDATALOAD PUSH1 0xE0 SHR DUP1 PUSH4 0x42966C68 GT PUSH2 0x97 JUMPI DUP1 PUSH4 0xA457C2D7 GT PUSH2 0x66 JUMPI DUP1 PUSH4 0xA457C2D7 EQ PUSH2 0x286 JUMPI DUP1 PUSH4 0xA9059CBB EQ PUSH2 0x2B6 JUMPI DUP1 PUSH4 0xDD62ED3E EQ PUSH2 0x2E6 JUMPI DUP1 PUSH4 0xF851A440 EQ PUSH2 0x316 JUMPI PUSH2 0xF5 JUMP JUMPDEST DUP1 PUSH4 0x42966C68 EQ PUSH2 0x200 JUMPI DUP1 PUSH4 0x70A08231 EQ PUSH2 0x21C JUMPI DUP1 PUSH4 0x7DF4D829 EQ PUSH2 0x24C JUMPI DUP1 PUSH4 0x95D89B41 EQ PUSH2 0x268 JUMPI PUSH2 0xF5 JUMP JUMPDEST DUP1 PUSH4 0x23B872DD GT PUSH2 0xD3 JUMPI DUP1 PUSH4 0x23B872DD EQ PUSH2 0x166 JUMPI DUP1 PUSH4 0x313CE567 EQ PUSH2 0x196 JUMPI DUP1 PUSH4 0x39509351 EQ PUSH2 0x1B4 JUMPI DUP1 PUSH4 0x40C10F19 EQ PUSH2 0x1E4 JUMPI PUSH2 0xF5 JUMP JUMPDEST DUP1 PUSH4 0x6FDDE03 EQ PUSH2 0xFA JUMPI DUP1 PUSH4 0x95EA7B3 EQ PUSH2 0x118 JUMPI DUP1 PUSH4 0x18160DDD EQ PUSH2 0x148 JUMPI JUMPDEST PUSH1 0x0 DUP1 REVERT JUMPDEST PUSH2 0x102 PUSH2 0x334 JUMP JUMPDEST PUSH1 0x40 MLOAD PUSH2 0x10F SWAP2 SWAP1 PUSH2 0x141D JUMP JUMPDEST PUSH1 0x40 MLOAD DUP1 SWAP2 SUB SWAP1 RETURN JUMPDEST PUSH2 0x132 PUSH1 0x4 DUP1 CALLDATASIZE SUB DUP2 ADD SWAP1 PUSH2 0x12D SWAP2 SWAP1 PUSH2 0x10DB JUMP JUMPDEST PUSH2 0x3C6 JUMP JUMPDEST PUSH1 0x40 MLOAD PUSH2 0x13F SWAP2 SWAP1 PUSH2 0x1402 JUMP JUMPDEST PUSH1 0x40 MLOAD DUP1 SWAP2 SUB SWAP1 RETURN JUMPDEST PUSH2 0x150 PUSH2 0x3E9 JUMP JUMPDEST PUSH1 0x40 MLOAD PUSH2 0x15D SWAP2 SWAP1 PUSH2 0x159F JUMP JUMPDEST PUSH1 0x40 MLOAD DUP1 SWAP2 SUB SWAP1 RETURN JUMPDEST PUSH2 0x180 PUSH1 0x4 DUP1 CALLDATASIZE SUB DUP2 ADD SWAP1 PUSH2 0x17B SWAP2 SWAP1 PUSH2 0x1088 JUMP JUMPDEST PUSH2 0x3F3 JUMP JUMPDEST PUSH1 0x40 MLOAD PUSH2 0x18D SWAP2 SWAP1 PUSH2 0x1402 JUMP JUMPDEST PUSH1 0x40 MLOAD DUP1 SWAP2 SUB SWAP1 RETURN JUMPDEST PUSH2 0x19E PUSH2 0x422 JUMP JUMPDEST PUSH1 0x40 MLOAD PUSH2 0x1AB SWAP2 SWAP1 PUSH2 0x15BA JUMP JUMPDEST PUSH1 0x40 MLOAD DUP1 SWAP2 SUB SWAP1 RETURN JUMPDEST PUSH2 0x1CE PUSH1 0x4 DUP1 CALLDATASIZE SUB DUP2 ADD SWAP1 PUSH2 0x1C9 SWAP2 SWAP1 PUSH2 0x10DB JUMP JUMPDEST PUSH2 0x42B JUMP JUMPDEST PUSH1 0x40 MLOAD PUSH2 0x1DB SWAP2 SWAP1 PUSH2 0x1402 JUMP JUMPDEST PUSH1 0x40 MLOAD DUP1 SWAP2 SUB SWAP1 RETURN JUMPDEST PUSH2 0x1FE PUSH1 0x4 DUP1 CALLDATASIZE SUB DUP2 ADD SWAP1 PUSH2 0x1F9 SWAP2 SWAP1 PUSH2 0x10DB JUMP JUMPDEST PUSH2 0x462 JUMP JUMPDEST STOP JUMPDEST PUSH2 0x21A PUSH1 0x4 DUP1 CALLDATASIZE SUB DUP2 ADD SWAP1 PUSH2 0x215 SWAP2 SWAP1 PUSH2 0x119B JUMP JUMPDEST PUSH2 0x500 JUMP JUMPDEST STOP JUMPDEST PUSH2 0x236 PUSH1 0x4 DUP1 CALLDATASIZE SUB DUP2 ADD SWAP1 PUSH2 0x231 SWAP2 SWAP1 PUSH2 0x101B JUMP JUMPDEST PUSH2 0x50D JUMP JUMPDEST PUSH1 0x40 MLOAD PUSH2 0x243 SWAP2 SWAP1 PUSH2 0x159F JUMP JUMPDEST PUSH1 0x40 MLOAD DUP1 SWAP2 SUB SWAP1 RETURN JUMPDEST PUSH2 0x266 PUSH1 0x4 DUP1 CALLDATASIZE SUB DUP2 ADD SWAP1 PUSH2 0x261 SWAP2 SWAP1 PUSH2 0x1148 JUMP JUMPDEST PUSH2 0x555 JUMP JUMPDEST STOP JUMPDEST PUSH2 0x270 PUSH2 0x5E8 JUMP JUMPDEST PUSH1 0x40 MLOAD PUSH2 0x27D SWAP2 SWAP1 PUSH2 0x141D JUMP JUMPDEST PUSH1 0x40 MLOAD DUP1 SWAP2 SUB SWAP1 RETURN JUMPDEST PUSH2 0x2A0 PUSH1 0x4 DUP1 CALLDATASIZE SUB DUP2 ADD SWAP1 PUSH2 0x29B SWAP2 SWAP1 PUSH2 0x10DB JUMP JUMPDEST PUSH2 0x67A JUMP JUMPDEST PUSH1 0x40 MLOAD PUSH2 0x2AD SWAP2 SWAP1 PUSH2 0x1402 JUMP JUMPDEST PUSH1 0x40 MLOAD DUP1 SWAP2 SUB SWAP1 RETURN JUMPDEST PUSH2 0x2D0 PUSH1 0x4 DUP1 CALLDATASIZE SUB DUP2 ADD SWAP1 PUSH2 0x2CB SWAP2 SWAP1 PUSH2 0x10DB JUMP JUMPDEST PUSH2 0x6F1 JUMP JUMPDEST PUSH1 0x40 MLOAD PUSH2 0x2DD SWAP2 SWAP1 PUSH2 0x1402 JUMP JUMPDEST PUSH1 0x40 MLOAD DUP1 SWAP2 SUB SWAP1 RETURN JUMPDEST PUSH2 0x300 PUSH1 0x4 DUP1 CALLDATASIZE SUB DUP2 ADD SWAP1 PUSH2 0x2FB SWAP2 SWAP1 PUSH2 0x1048 JUMP JUMPDEST PUSH2 0x714 JUMP JUMPDEST PUSH1 0x40 MLOAD PUSH2 0x30D SWAP2 SWAP1 PUSH2 0x159F JUMP JUMPDEST PUSH1 0x40 MLOAD DUP1 SWAP2 SUB SWAP1 RETURN JUMPDEST PUSH2 0x31E PUSH2 0x79B JUMP JUMPDEST PUSH1 0x40 MLOAD PUSH2 0x32B SWAP2 SWAP1 PUSH2 0x13BE JUMP JUMPDEST PUSH1 0x40 MLOAD DUP1 SWAP2 SUB SWAP1 RETURN JUMPDEST PUSH1 0x60 PUSH1 0x3 DUP1 SLOAD PUSH2 0x343 SWAP1 PUSH2 0x16E1 JUMP JUMPDEST DUP1 PUSH1 0x1F ADD PUSH1 0x20 DUP1 SWAP2 DIV MUL PUSH1 0x20 ADD PUSH1 0x40 MLOAD SWAP1 DUP2 ADD PUSH1 0x40 MSTORE DUP1 SWAP3 SWAP2 SWAP1 DUP2 DUP2 MSTORE PUSH1 0x20 ADD DUP3 DUP1 SLOAD PUSH2 0x36F SWAP1 PUSH2 0x16E1 JUMP JUMPDEST DUP1 ISZERO PUSH2 0x3BC JUMPI DUP1 PUSH1 0x1F LT PUSH2 0x391 JUMPI PUSH2 0x100 DUP1 DUP4 SLOAD DIV MUL DUP4 MSTORE SWAP2 PUSH1 0x20 ADD SWAP2 PUSH2 0x3BC JUMP JUMPDEST DUP3 ADD SWAP2 SWAP1 PUSH1 0x0 MSTORE PUSH1 0x20 PUSH1 0x0 KECCAK256 SWAP1 JUMPDEST DUP2 SLOAD DUP2 MSTORE SWAP1 PUSH1 0x1 ADD SWAP1 PUSH1 0x20 ADD DUP1 DUP4 GT PUSH2 0x39F JUMPI DUP3 SWAP1 SUB PUSH1 0x1F AND DUP3 ADD SWAP2 JUMPDEST POP POP POP POP POP SWAP1 POP SWAP1 JUMP JUMPDEST PUSH1 0x0 DUP1 PUSH2 0x3D1 PUSH2 0x7C1 JUMP JUMPDEST SWAP1 POP PUSH2 0x3DE DUP2 DUP6 DUP6 PUSH2 0x7C9 JUMP JUMPDEST PUSH1 0x1 SWAP2 POP POP SWAP3 SWAP2 POP POP JUMP JUMPDEST PUSH1 0x0 PUSH1 0x2 SLOAD SWAP1 POP SWAP1 JUMP JUMPDEST PUSH1 0x0 DUP1 PUSH2 0x3FE PUSH2 0x7C1 JUMP JUMPDEST SWAP1 POP PUSH2 0x40B DUP6 DUP3 DUP6 PUSH2 0x994 JUMP JUMPDEST PUSH2 0x416 DUP6 DUP6 DUP6 PUSH2 0xA20 JUMP JUMPDEST PUSH1 0x1 SWAP2 POP POP SWAP4 SWAP3 POP POP POP JUMP JUMPDEST PUSH1 0x0 PUSH1 0x12 SWAP1 POP SWAP1 JUMP JUMPDEST PUSH1 0x0 DUP1 PUSH2 0x436 PUSH2 0x7C1 JUMP JUMPDEST SWAP1 POP PUSH2 0x457 DUP2 DUP6 DUP6 PUSH2 0x448 DUP6 DUP10 PUSH2 0x714 JUMP JUMPDEST PUSH2 0x452 SWAP2 SWAP1 PUSH2 0x15F1 JUMP JUMPDEST PUSH2 0x7C9 JUMP JUMPDEST PUSH1 0x1 SWAP2 POP POP SWAP3 SWAP2 POP POP JUMP JUMPDEST PUSH1 0x5 PUSH1 0x0 SWAP1 SLOAD SWAP1 PUSH2 0x100 EXP SWAP1 DIV PUSH20 0xFFFFFFFFFFFFFFFFFFFFFFFFFFFFFFFFFFFFFFFF AND PUSH20 0xFFFFFFFFFFFFFFFFFFFFFFFFFFFFFFFFFFFFFFFF AND CALLER PUSH20 0xFFFFFFFFFFFFFFFFFFFFFFFFFFFFFFFFFFFFFFFF AND EQ PUSH2 0x4F2 JUMPI PUSH1 0x40 MLOAD PUSH32 0x8C379A000000000000000000000000000000000000000000000000000000000 DUP2 MSTORE PUSH1 0x4 ADD PUSH2 0x4E9 SWAP1 PUSH2 0x14DF JUMP JUMPDEST PUSH1 0x40 MLOAD DUP1 SWAP2 SUB SWAP1 REVERT JUMPDEST PUSH2 0x4FC DUP3 DUP3 PUSH2 0xC98 JUMP JUMPDEST POP POP JUMP JUMPDEST PUSH2 0x50A CALLER DUP3 PUSH2 0xDEF JUMP JUMPDEST POP JUMP JUMPDEST PUSH1 0x0 DUP1 PUSH1 0x0 DUP4 PUSH20 0xFFFFFFFFFFFFFFFFFFFFFFFFFFFFFFFFFFFFFFFF AND PUSH20 0xFFFFFFFFFFFFFFFFFFFFFFFFFFFFFFFFFFFFFFFF AND DUP2 MSTORE PUSH1 0x20 ADD SWAP1 DUP2 MSTORE PUSH1 0x20 ADD PUSH1 0x0 KECCAK256 SLOAD SWAP1 POP SWAP2 SWAP1 POP JUMP JUMPDEST DUP3 PUSH20 0xFFFFFFFFFFFFFFFFFFFFFFFFFFFFFFFFFFFFFFFF AND PUSH4 0xA9059CBB DUP4 DUP4 PUSH1 0x40 MLOAD DUP4 PUSH4 0xFFFFFFFF AND PUSH1 0xE0 SHL DUP2 MSTORE PUSH1 0x4 ADD PUSH2 0x590 SWAP3 SWAP2 SWAP1 PUSH2 0x13D9 JUMP JUMPDEST PUSH1 0x20 PUSH1 0x40 MLOAD DUP1 DUP4 SUB DUP2 PUSH1 0x0 DUP8 DUP1 EXTCODESIZE ISZERO DUP1 ISZERO PUSH2 0x5AA JUMPI PUSH1 0x0 DUP1 REVERT JUMPDEST POP GAS CALL ISZERO DUP1 ISZERO PUSH2 0x5BE JUMPI RETURNDATASIZE PUSH1 0x0 DUP1 RETURNDATACOPY RETURNDATASIZE PUSH1 0x0 REVERT JUMPDEST POP POP POP POP PUSH1 0x40 MLOAD RETURNDATASIZE PUSH1 0x1F NOT PUSH1 0x1F DUP3 ADD AND DUP3 ADD DUP1 PUSH1 0x40 MSTORE POP DUP2 ADD SWAP1 PUSH2 0x5E2 SWAP2 SWAP1 PUSH2 0x111B JUMP JUMPDEST POP POP POP POP JUMP JUMPDEST PUSH1 0x60 PUSH1 0x4 DUP1 SLOAD PUSH2 0x5F7 SWAP1 PUSH2 0x16E1 JUMP JUMPDEST DUP1 PUSH1 0x1F ADD PUSH1 0x20 DUP1 SWAP2 DIV MUL PUSH1 0x20 ADD PUSH1 0x40 MLOAD SWAP1 DUP2 ADD PUSH1 0x40 MSTORE DUP1 SWAP3 SWAP2 SWAP1 DUP2 DUP2 MSTORE PUSH1 0x20 ADD DUP3 DUP1 SLOAD PUSH2 0x623 SWAP1 PUSH2 0x16E1 JUMP JUMPDEST DUP1 ISZERO PUSH2 0x670 JUMPI DUP1 PUSH1 0x1F LT PUSH2 0x645 JUMPI PUSH2 0x100 DUP1 DUP4 SLOAD DIV MUL DUP4 MSTORE SWAP2 PUSH1 0x20 ADD SWAP2 PUSH2 0x670 JUMP JUMPDEST DUP3 ADD SWAP2 SWAP1 PUSH1 0x0 MSTORE PUSH1 0x20 PUSH1 0x0 KECCAK256 SWAP1 JUMPDEST DUP2 SLOAD DUP2 MSTORE SWAP1 PUSH1 0x1 ADD SWAP1 PUSH1 0x20 ADD DUP1 DUP4 GT PUSH2 0x653 JUMPI DUP3 SWAP1 SUB PUSH1 0x1F AND DUP3 ADD SWAP2 JUMPDEST POP POP POP POP POP SWAP1 POP SWAP1 JUMP JUMPDEST PUSH1 0x0 DUP1 PUSH2 0x685 PUSH2 0x7C1 JUMP JUMPDEST SWAP1 POP PUSH1 0x0 PUSH2 0x693 DUP3 DUP7 PUSH2 0x714 JUMP JUMPDEST SWAP1 POP DUP4 DUP2 LT ISZERO PUSH2 0x6D8 JUMPI PUSH1 0x40 MLOAD PUSH32 0x8C379A000000000000000000000000000000000000000000000000000000000 DUP2 MSTORE PUSH1 0x4 ADD PUSH2 0x6CF SWAP1 PUSH2 0x155F JUMP JUMPDEST PUSH1 0x40 MLOAD DUP1 SWAP2 SUB SWAP1 REVERT JUMPDEST PUSH2 0x6E5 DUP3 DUP7 DUP7 DUP5 SUB PUSH2 0x7C9 JUMP JUMPDEST PUSH1 0x1 SWAP3 POP POP POP SWAP3 SWAP2 POP POP JUMP JUMPDEST PUSH1 0x0 DUP1 PUSH2 0x6FC PUSH2 0x7C1 JUMP JUMPDEST SWAP1 POP PUSH2 0x709 DUP2 DUP6 DUP6 PUSH2 0xA20 JUMP JUMPDEST PUSH1 0x1 SWAP2 POP POP SWAP3 SWAP2 POP POP JUMP JUMPDEST PUSH1 0x0 PUSH1 0x1 PUSH1 0x0 DUP5 PUSH20 0xFFFFFFFFFFFFFFFFFFFFFFFFFFFFFFFFFFFFFFFF AND PUSH20 0xFFFFFFFFFFFFFFFFFFFFFFFFFFFFFFFFFFFFFFFF AND DUP2 MSTORE PUSH1 0x20 ADD SWAP1 DUP2 MSTORE PUSH1 0x20 ADD PUSH1 0x0 KECCAK256 PUSH1 0x0 DUP4 PUSH20 0xFFFFFFFFFFFFFFFFFFFFFFFFFFFFFFFFFFFFFFFF AND PUSH20 0xFFFFFFFFFFFFFFFFFFFFFFFFFFFFFFFFFFFFFFFF AND DUP2 MSTORE PUSH1 0x20 ADD SWAP1 DUP2 MSTORE PUSH1 0x20 ADD PUSH1 0x0 KECCAK256 SLOAD SWAP1 POP SWAP3 SWAP2 POP POP JUMP JUMPDEST PUSH1 0x5 PUSH1 0x0 SWAP1 SLOAD SWAP1 PUSH2 0x100 EXP SWAP1 DIV PUSH20 0xFFFFFFFFFFFFFFFFFFFFFFFFFFFFFFFFFFFFFFFF AND DUP2 JUMP JUMPDEST PUSH1 0x0 CALLER SWAP1 POP SWAP1 JUMP JUMPDEST PUSH1 0x0 PUSH20 0xFFFFFFFFFFFFFFFFFFFFFFFFFFFFFFFFFFFFFFFF AND DUP4 PUSH20 0xFFFFFFFFFFFFFFFFFFFFFFFFFFFFFFFFFFFFFFFF AND EQ ISZERO PUSH2 0x839 JUMPI PUSH1 0x40 MLOAD PUSH32 0x8C379A000000000000000000000000000000000000000000000000000000000 DUP2 MSTORE PUSH1 0x4 ADD PUSH2 0x830 SWAP1 PUSH2 0x153F JUMP JUMPDEST PUSH1 0x40 MLOAD DUP1 SWAP2 SUB SWAP1 REVERT JUMPDEST PUSH1 0x0 PUSH20 0xFFFFFFFFFFFFFFFFFFFFFFFFFFFFFFFFFFFFFFFF AND DUP3 PUSH20 0xFFFFFFFFFFFFFFFFFFFFFFFFFFFFFFFFFFFFFFFF AND EQ ISZERO PUSH2 0x8A9 JUMPI PUSH1 0x40 MLOAD PUSH32 0x8C379A000000000000000000000000000000000000000000000000000000000 DUP2 MSTORE PUSH1 0x4 ADD PUSH2 0x8A0 SWAP1 PUSH2 0x147F JUMP JUMPDEST PUSH1 0x40 MLOAD DUP1 SWAP2 SUB SWAP1 REVERT JUMPDEST DUP1 PUSH1 0x1 PUSH1 0x0 DUP6 PUSH20 0xFFFFFFFFFFFFFFFFFFFFFFFFFFFFFFFFFFFFFFFF AND PUSH20 0xFFFFFFFFFFFFFFFFFFFFFFFFFFFFFFFFFFFFFFFF AND DUP2 MSTORE PUSH1 0x20 ADD SWAP1 DUP2 MSTORE PUSH1 0x20 ADD PUSH1 0x0 KECCAK256 PUSH1 0x0 DUP5 PUSH20 0xFFFFFFFFFFFFFFFFFFFFFFFFFFFFFFFFFFFFFFFF AND PUSH20 0xFFFFFFFFFFFFFFFFFFFFFFFFFFFFFFFFFFFFFFFF AND DUP2 MSTORE PUSH1 0x20 ADD SWAP1 DUP2 MSTORE PUSH1 0x20 ADD PUSH1 0x0 KECCAK256 DUP2 SWAP1 SSTORE POP DUP2 PUSH20 0xFFFFFFFFFFFFFFFFFFFFFFFFFFFFFFFFFFFFFFFF AND DUP4 PUSH20 0xFFFFFFFFFFFFFFFFFFFFFFFFFFFFFFFFFFFFFFFF AND PUSH32 0x8C5BE1E5EBEC7D5BD14F71427D1E84F3DD0314C0F7B2291E5B200AC8C7C3B925 DUP4 PUSH1 0x40 MLOAD PUSH2 0x987 SWAP2 SWAP1 PUSH2 0x159F JUMP JUMPDEST PUSH1 0x40 MLOAD DUP1 SWAP2 SUB SWAP1 LOG3 POP POP POP JUMP JUMPDEST PUSH1 0x0 PUSH2 0x9A0 DUP5 DUP5 PUSH2 0x714 JUMP JUMPDEST SWAP1 POP PUSH32 0xFFFFFFFFFFFFFFFFFFFFFFFFFFFFFFFFFFFFFFFFFFFFFFFFFFFFFFFFFFFFFFFF DUP2 EQ PUSH2 0xA1A JUMPI DUP2 DUP2 LT ISZERO PUSH2 0xA0C JUMPI PUSH1 0x40 MLOAD PUSH32 0x8C379A000000000000000000000000000000000000000000000000000000000 DUP2 MSTORE PUSH1 0x4 ADD PUSH2 0xA03 SWAP1 PUSH2 0x149F JUMP JUMPDEST PUSH1 0x40 MLOAD DUP1 SWAP2 SUB SWAP1 REVERT JUMPDEST PUSH2 0xA19 DUP5 DUP5 DUP5 DUP5 SUB PUSH2 0x7C9 JUMP JUMPDEST JUMPDEST POP POP POP POP JUMP JUMPDEST PUSH1 0x0 PUSH20 0xFFFFFFFFFFFFFFFFFFFFFFFFFFFFFFFFFFFFFFFF AND DUP4 PUSH20 0xFFFFFFFFFFFFFFFFFFFFFFFFFFFFFFFFFFFFFFFF AND EQ ISZERO PUSH2 0xA90 JUMPI PUSH1 0x40 MLOAD PUSH32 0x8C379A000000000000000000000000000000000000000000000000000000000 DUP2 MSTORE PUSH1 0x4 ADD PUSH2 0xA87 SWAP1 PUSH2 0x151F JUMP JUMPDEST PUSH1 0x40 MLOAD DUP1 SWAP2 SUB SWAP1 REVERT JUMPDEST PUSH1 0x0 PUSH20 0xFFFFFFFFFFFFFFFFFFFFFFFFFFFFFFFFFFFFFFFF AND DUP3 PUSH20 0xFFFFFFFFFFFFFFFFFFFFFFFFFFFFFFFFFFFFFFFF AND EQ ISZERO PUSH2 0xB00 JUMPI PUSH1 0x40 MLOAD PUSH32 0x8C379A000000000000000000000000000000000000000000000000000000000 DUP2 MSTORE PUSH1 0x4 ADD PUSH2 0xAF7 SWAP1 PUSH2 0x143F JUMP JUMPDEST PUSH1 0x40 MLOAD DUP1 SWAP2 SUB SWAP1 REVERT JUMPDEST PUSH2 0xB0B DUP4 DUP4 DUP4 PUSH2 0xFBD JUMP JUMPDEST PUSH1 0x0 DUP1 PUSH1 0x0 DUP6 PUSH20 0xFFFFFFFFFFFFFFFFFFFFFFFFFFFFFFFFFFFFFFFF AND PUSH20 0xFFFFFFFFFFFFFFFFFFFFFFFFFFFFFFFFFFFFFFFF AND DUP2 MSTORE PUSH1 0x20 ADD SWAP1 DUP2 MSTORE PUSH1 0x20 ADD PUSH1 0x0 KECCAK256 SLOAD SWAP1 POP DUP2 DUP2 LT ISZERO PUSH2 0xB91 JUMPI PUSH1 0x40 MLOAD PUSH32 0x8C379A000000000000000000000000000000000000000000000000000000000 DUP2 MSTORE PUSH1 0x4 ADD PUSH2 0xB88 SWAP1 PUSH2 0x14BF JUMP JUMPDEST PUSH1 0x40 MLOAD DUP1 SWAP2 SUB SWAP1 REVERT JUMPDEST DUP2 DUP2 SUB PUSH1 0x0 DUP1 DUP7 PUSH20 0xFFFFFFFFFFFFFFFFFFFFFFFFFFFFFFFFFFFFFFFF AND PUSH20 0xFFFFFFFFFFFFFFFFFFFFFFFFFFFFFFFFFFFFFFFF AND DUP2 MSTORE PUSH1 0x20 ADD SWAP1 DUP2 MSTORE PUSH1 0x20 ADD PUSH1 0x0 KECCAK256 DUP2 SWAP1 SSTORE POP DUP2 PUSH1 0x0 DUP1 DUP6 PUSH20 0xFFFFFFFFFFFFFFFFFFFFFFFFFFFFFFFFFFFFFFFF AND PUSH20 0xFFFFFFFFFFFFFFFFFFFFFFFFFFFFFFFFFFFFFFFF AND DUP2 MSTORE PUSH1 0x20 ADD SWAP1 DUP2 MSTORE PUSH1 0x20 ADD PUSH1 0x0 KECCAK256 PUSH1 0x0 DUP3 DUP3 SLOAD ADD SWAP3 POP POP DUP2 SWAP1 SSTORE POP DUP3 PUSH20 0xFFFFFFFFFFFFFFFFFFFFFFFFFFFFFFFFFFFFFFFF AND DUP5 PUSH20 0xFFFFFFFFFFFFFFFFFFFFFFFFFFFFFFFFFFFFFFFF AND PUSH32 0xDDF252AD1BE2C89B69C2B068FC378DAA952BA7F163C4A11628F55A4DF523B3EF DUP5 PUSH1 0x40 MLOAD PUSH2 0xC7F SWAP2 SWAP1 PUSH2 0x159F JUMP JUMPDEST PUSH1 0x40 MLOAD DUP1 SWAP2 SUB SWAP1 LOG3 PUSH2 0xC92 DUP5 DUP5 DUP5 PUSH2 0xFC2 JUMP JUMPDEST POP POP POP POP JUMP JUMPDEST PUSH1 0x0 PUSH20 0xFFFFFFFFFFFFFFFFFFFFFFFFFFFFFFFFFFFFFFFF AND DUP3 PUSH20 0xFFFFFFFFFFFFFFFFFFFFFFFFFFFFFFFFFFFFFFFF AND EQ ISZERO PUSH2 0xD08 JUMPI PUSH1 0x40 MLOAD PUSH32 0x8C379A000000000000000000000000000000000000000000000000000000000 DUP2 MSTORE PUSH1 0x4 ADD PUSH2 0xCFF SWAP1 PUSH2 0x157F JUMP JUMPDEST PUSH1 0x40 MLOAD DUP1 SWAP2 SUB SWAP1 REVERT JUMPDEST PUSH2 0xD14 PUSH1 0x0 DUP4 DUP4 PUSH2 0xFBD JUMP JUMPDEST DUP1 PUSH1 0x2 PUSH1 0x0 DUP3 DUP3 SLOAD PUSH2 0xD26 SWAP2 SWAP1 PUSH2 0x15F1 JUMP JUMPDEST SWAP3 POP POP DUP2 SWAP1 SSTORE POP DUP1 PUSH1 0x0 DUP1 DUP5 PUSH20 0xFFFFFFFFFFFFFFFFFFFFFFFFFFFFFFFFFFFFFFFF AND PUSH20 0xFFFFFFFFFFFFFFFFFFFFFFFFFFFFFFFFFFFFFFFF AND DUP2 MSTORE PUSH1 0x20 ADD SWAP1 DUP2 MSTORE PUSH1 0x20 ADD PUSH1 0x0 KECCAK256 PUSH1 0x0 DUP3 DUP3 SLOAD ADD SWAP3 POP POP DUP2 SWAP1 SSTORE POP DUP2 PUSH20 0xFFFFFFFFFFFFFFFFFFFFFFFFFFFFFFFFFFFFFFFF AND PUSH1 0x0 PUSH20 0xFFFFFFFFFFFFFFFFFFFFFFFFFFFFFFFFFFFFFFFF AND PUSH32 0xDDF252AD1BE2C89B69C2B068FC378DAA952BA7F163C4A11628F55A4DF523B3EF DUP4 PUSH1 0x40 MLOAD PUSH2 0xDD7 SWAP2 SWAP1 PUSH2 0x159F JUMP JUMPDEST PUSH1 0x40 MLOAD DUP1 SWAP2 SUB SWAP1 LOG3 PUSH2 0xDEB PUSH1 0x0 DUP4 DUP4 PUSH2 0xFC2 JUMP JUMPDEST POP POP JUMP JUMPDEST PUSH1 0x0 PUSH20 0xFFFFFFFFFFFFFFFFFFFFFFFFFFFFFFFFFFFFFFFF AND DUP3 PUSH20 0xFFFFFFFFFFFFFFFFFFFFFFFFFFFFFFFFFFFFFFFF AND EQ ISZERO PUSH2 0xE5F JUMPI PUSH1 0x40 MLOAD PUSH32 0x8C379A000000000000000000000000000000000000000000000000000000000 DUP2 MSTORE PUSH1 0x4 ADD PUSH2 0xE56 SWAP1 PUSH2 0x14FF JUMP JUMPDEST PUSH1 0x40 MLOAD DUP1 SWAP2 SUB SWAP1 REVERT JUMPDEST PUSH2 0xE6B DUP3 PUSH1 0x0 DUP4 PUSH2 0xFBD JUMP JUMPDEST PUSH1 0x0 DUP1 PUSH1 0x0 DUP5 PUSH20 0xFFFFFFFFFFFFFFFFFFFFFFFFFFFFFFFFFFFFFFFF AND PUSH20 0xFFFFFFFFFFFFFFFFFFFFFFFFFFFFFFFFFFFFFFFF AND DUP2 MSTORE PUSH1 0x20 ADD SWAP1 DUP2 MSTORE PUSH1 0x20 ADD PUSH1 0x0 KECCAK256 SLOAD SWAP1 POP DUP2 DUP2 LT ISZERO PUSH2 0xEF1 JUMPI PUSH1 0x40 MLOAD PUSH32 0x8C379A000000000000000000000000000000000000000000000000000000000 DUP2 MSTORE PUSH1 0x4 ADD PUSH2 0xEE8 SWAP1 PUSH2 0x145F JUMP JUMPDEST PUSH1 0x40 MLOAD DUP1 SWAP2 SUB SWAP1 REVERT JUMPDEST DUP2 DUP2 SUB PUSH1 0x0 DUP1 DUP6 PUSH20 0xFFFFFFFFFFFFFFFFFFFFFFFFFFFFFFFFFFFFFFFF AND PUSH20 0xFFFFFFFFFFFFFFFFFFFFFFFFFFFFFFFFFFFFFFFF AND DUP2 MSTORE PUSH1 0x20 ADD SWAP1 DUP2 MSTORE PUSH1 0x20 ADD PUSH1 0x0 KECCAK256 DUP2 SWAP1 SSTORE POP DUP2 PUSH1 0x2 PUSH1 0x0 DUP3 DUP3 SLOAD SUB SWAP3 POP POP DUP2 SWAP1 SSTORE POP PUSH1 0x0 PUSH20 0xFFFFFFFFFFFFFFFFFFFFFFFFFFFFFFFFFFFFFFFF AND DUP4 PUSH20 0xFFFFFFFFFFFFFFFFFFFFFFFFFFFFFFFFFFFFFFFF AND PUSH32 0xDDF252AD1BE2C89B69C2B068FC378DAA952BA7F163C4A11628F55A4DF523B3EF DUP5 PUSH1 0x40 MLOAD PUSH2 0xFA4 SWAP2 SWAP1 PUSH2 0x159F JUMP JUMPDEST PUSH1 0x40 MLOAD DUP1 SWAP2 SUB SWAP1 LOG3 PUSH2 0xFB8 DUP4 PUSH1 0x0 DUP5 PUSH2 0xFC2 JUMP JUMPDEST POP POP POP JUMP JUMPDEST POP POP POP JUMP JUMPDEST POP POP POP JUMP JUMPDEST PUSH1 0x0 DUP2 CALLDATALOAD SWAP1 POP PUSH2 0xFD6 DUP2 PUSH2 0x1A7A JUMP JUMPDEST SWAP3 SWAP2 POP POP JUMP JUMPDEST PUSH1 0x0 DUP2 MLOAD SWAP1 POP PUSH2 0xFEB DUP2 PUSH2 0x1A91 JUMP JUMPDEST SWAP3 SWAP2 POP POP JUMP JUMPDEST PUSH1 0x0 DUP2 CALLDATALOAD SWAP1 POP PUSH2 0x1000 DUP2 PUSH2 0x1AA8 JUMP JUMPDEST SWAP3 SWAP2 POP POP JUMP JUMPDEST PUSH1 0x0 DUP2 CALLDATALOAD SWAP1 POP PUSH2 0x1015 DUP2 PUSH2 0x1ABF JUMP JUMPDEST SWAP3 SWAP2 POP POP JUMP JUMPDEST PUSH1 0x0 PUSH1 0x20 DUP3 DUP5 SUB SLT ISZERO PUSH2 0x1031 JUMPI PUSH2 0x1030 PUSH2 0x1771 JUMP JUMPDEST JUMPDEST PUSH1 0x0 PUSH2 0x103F DUP5 DUP3 DUP6 ADD PUSH2 0xFC7 JUMP JUMPDEST SWAP2 POP POP SWAP3 SWAP2 POP POP JUMP JUMPDEST PUSH1 0x0 DUP1 PUSH1 0x40 DUP4 DUP6 SUB SLT ISZERO PUSH2 0x105F JUMPI PUSH2 0x105E PUSH2 0x1771 JUMP JUMPDEST JUMPDEST PUSH1 0x0 PUSH2 0x106D DUP6 DUP3 DUP7 ADD PUSH2 0xFC7 JUMP JUMPDEST SWAP3 POP POP PUSH1 0x20 PUSH2 0x107E DUP6 DUP3 DUP7 ADD PUSH2 0xFC7 JUMP JUMPDEST SWAP2 POP POP SWAP3 POP SWAP3 SWAP1 POP JUMP JUMPDEST PUSH1 0x0 DUP1 PUSH1 0x0 PUSH1 0x60 DUP5 DUP7 SUB SLT ISZERO PUSH2 0x10A1 JUMPI PUSH2 0x10A0 PUSH2 0x1771 JUMP JUMPDEST JUMPDEST PUSH1 0x0 PUSH2 0x10AF DUP7 DUP3 DUP8 ADD PUSH2 0xFC7 JUMP JUMPDEST SWAP4 POP POP PUSH1 0x20 PUSH2 0x10C0 DUP7 DUP3 DUP8 ADD PUSH2 0xFC7 JUMP JUMPDEST SWAP3 POP POP PUSH1 0x40 PUSH2 0x10D1 DUP7 DUP3 DUP8 ADD PUSH2 0x1006 JUMP JUMPDEST SWAP2 POP POP SWAP3 POP SWAP3 POP SWAP3 JUMP JUMPDEST PUSH1 0x0 DUP1 PUSH1 0x40 DUP4 DUP6 SUB SLT ISZERO PUSH2 0x10F2 JUMPI PUSH2 0x10F1 PUSH2 0x1771 JUMP JUMPDEST JUMPDEST PUSH1 0x0 PUSH2 0x1100 DUP6 DUP3 DUP7 ADD PUSH2 0xFC7 JUMP JUMPDEST SWAP3 POP POP PUSH1 0x20 PUSH2 0x1111 DUP6 DUP3 DUP7 ADD PUSH2 0x1006 JUMP JUMPDEST SWAP2 POP POP SWAP3 POP SWAP3 SWAP1 POP JUMP JUMPDEST PUSH1 0x0 PUSH1 0x20 DUP3 DUP5 SUB SLT ISZERO PUSH2 0x1131 JUMPI PUSH2 0x1130 PUSH2 0x1771 JUMP JUMPDEST JUMPDEST PUSH1 0x0 PUSH2 0x113F DUP5 DUP3 DUP6 ADD PUSH2 0xFDC JUMP JUMPDEST SWAP2 POP POP SWAP3 SWAP2 POP POP JUMP JUMPDEST PUSH1 0x0 DUP1 PUSH1 0x0 PUSH1 0x60 DUP5 DUP7 SUB SLT ISZERO PUSH2 0x1161 JUMPI PUSH2 0x1160 PUSH2 0x1771 JUMP JUMPDEST JUMPDEST PUSH1 0x0 PUSH2 0x116F DUP7 DUP3 DUP8 ADD PUSH2 0xFF1 JUMP JUMPDEST SWAP4 POP POP PUSH1 0x20 PUSH2 0x1180 DUP7 DUP3 DUP8 ADD PUSH2 0xFC7 JUMP JUMPDEST SWAP3 POP POP PUSH1 0x40 PUSH2 0x1191 DUP7 DUP3 DUP8 ADD PUSH2 0x1006 JUMP JUMPDEST SWAP2 POP POP SWAP3 POP SWAP3 POP SWAP3 JUMP JUMPDEST PUSH1 0x0 PUSH1 0x20 DUP3 DUP5 SUB SLT ISZERO PUSH2 0x11B1 JUMPI PUSH2 0x11B0 PUSH2 0x1771 JUMP JUMPDEST JUMPDEST PUSH1 0x0 PUSH2 0x11BF DUP5 DUP3 DUP6 ADD PUSH2 0x1006 JUMP JUMPDEST SWAP2 POP POP SWAP3 SWAP2 POP POP JUMP JUMPDEST PUSH2 0x11D1 DUP2 PUSH2 0x1647 JUMP JUMPDEST DUP3 MSTORE POP POP JUMP JUMPDEST PUSH2 0x11E0 DUP2 PUSH2 0x1659 JUMP JUMPDEST DUP3 MSTORE POP POP JUMP JUMPDEST PUSH1 0x0 PUSH2 0x11F1 DUP3 PUSH2 0x15D5 JUMP JUMPDEST PUSH2 0x11FB DUP2 DUP6 PUSH2 0x15E0 JUMP JUMPDEST SWAP4 POP PUSH2 0x120B DUP2 DUP6 PUSH1 0x20 DUP7 ADD PUSH2 0x16AE JUMP JUMPDEST PUSH2 0x1214 DUP2 PUSH2 0x1776 JUMP JUMPDEST DUP5 ADD SWAP2 POP POP SWAP3 SWAP2 POP POP JUMP JUMPDEST PUSH1 0x0 PUSH2 0x122C PUSH1 0x23 DUP4 PUSH2 0x15E0 JUMP JUMPDEST SWAP2 POP PUSH2 0x1237 DUP3 PUSH2 0x1787 JUMP JUMPDEST PUSH1 0x40 DUP3 ADD SWAP1 POP SWAP2 SWAP1 POP JUMP JUMPDEST PUSH1 0x0 PUSH2 0x124F PUSH1 0x22 DUP4 PUSH2 0x15E0 JUMP JUMPDEST SWAP2 POP PUSH2 0x125A DUP3 PUSH2 0x17D6 JUMP JUMPDEST PUSH1 0x40 DUP3 ADD SWAP1 POP SWAP2 SWAP1 POP JUMP JUMPDEST PUSH1 0x0 PUSH2 0x1272 PUSH1 0x22 DUP4 PUSH2 0x15E0 JUMP JUMPDEST SWAP2 POP PUSH2 0x127D DUP3 PUSH2 0x1825 JUMP JUMPDEST PUSH1 0x40 DUP3 ADD SWAP1 POP SWAP2 SWAP1 POP JUMP JUMPDEST PUSH1 0x0 PUSH2 0x1295 PUSH1 0x1D DUP4 PUSH2 0x15E0 JUMP JUMPDEST SWAP2 POP PUSH2 0x12A0 DUP3 PUSH2 0x1874 JUMP JUMPDEST PUSH1 0x20 DUP3 ADD SWAP1 POP SWAP2 SWAP1 POP JUMP JUMPDEST PUSH1 0x0 PUSH2 0x12B8 PUSH1 0x26 DUP4 PUSH2 0x15E0 JUMP JUMPDEST SWAP2 POP PUSH2 0x12C3 DUP3 PUSH2 0x189D JUMP JUMPDEST PUSH1 0x40 DUP3 ADD SWAP1 POP SWAP2 SWAP1 POP JUMP JUMPDEST PUSH1 0x0 PUSH2 0x12DB PUSH1 0xA DUP4 PUSH2 0x15E0 JUMP JUMPDEST SWAP2 POP PUSH2 0x12E6 DUP3 PUSH2 0x18EC JUMP JUMPDEST PUSH1 0x20 DUP3 ADD SWAP1 POP SWAP2 SWAP1 POP JUMP JUMPDEST PUSH1 0x0 PUSH2 0x12FE PUSH1 0x21 DUP4 PUSH2 0x15E0 JUMP JUMPDEST SWAP2 POP PUSH2 0x1309 DUP3 PUSH2 0x1915 JUMP JUMPDEST PUSH1 0x40 DUP3 ADD SWAP1 POP SWAP2 SWAP1 POP JUMP JUMPDEST PUSH1 0x0 PUSH2 0x1321 PUSH1 0x25 DUP4 PUSH2 0x15E0 JUMP JUMPDEST SWAP2 POP PUSH2 0x132C DUP3 PUSH2 0x1964 JUMP JUMPDEST PUSH1 0x40 DUP3 ADD SWAP1 POP SWAP2 SWAP1 POP JUMP JUMPDEST PUSH1 0x0 PUSH2 0x1344 PUSH1 0x24 DUP4 PUSH2 0x15E0 JUMP JUMPDEST SWAP2 POP PUSH2 0x134F DUP3 PUSH2 0x19B3 JUMP JUMPDEST PUSH1 0x40 DUP3 ADD SWAP1 POP SWAP2 SWAP1 POP JUMP JUMPDEST PUSH1 0x0 PUSH2 0x1367 PUSH1 0x25 DUP4 PUSH2 0x15E0 JUMP JUMPDEST SWAP2 POP PUSH2 0x1372 DUP3 PUSH2 0x1A02 JUMP JUMPDEST PUSH1 0x40 DUP3 ADD SWAP1 POP SWAP2 SWAP1 POP JUMP JUMPDEST PUSH1 0x0 PUSH2 0x138A PUSH1 0x1F DUP4 PUSH2 0x15E0 JUMP JUMPDEST SWAP2 POP PUSH2 0x1395 DUP3 PUSH2 0x1A51 JUMP JUMPDEST PUSH1 0x20 DUP3 ADD SWAP1 POP SWAP2 SWAP1 POP JUMP JUMPDEST PUSH2 0x13A9 DUP2 PUSH2 0x1697 JUMP JUMPDEST DUP3 MSTORE POP POP JUMP JUMPDEST PUSH2 0x13B8 DUP2 PUSH2 0x16A1 JUMP JUMPDEST DUP3 MSTORE POP POP JUMP JUMPDEST PUSH1 0x0 PUSH1 0x20 DUP3 ADD SWAP1 POP PUSH2 0x13D3 PUSH1 0x0 DUP4 ADD DUP5 PUSH2 0x11C8 JUMP JUMPDEST SWAP3 SWAP2 POP POP JUMP JUMPDEST PUSH1 0x0 PUSH1 0x40 DUP3 ADD SWAP1 POP PUSH2 0x13EE PUSH1 0x0 DUP4 ADD DUP6 PUSH2 0x11C8 JUMP JUMPDEST PUSH2 0x13FB PUSH1 0x20 DUP4 ADD DUP5 PUSH2 0x13A0 JUMP JUMPDEST SWAP4 SWAP3 POP POP POP JUMP JUMPDEST PUSH1 0x0 PUSH1 0x20 DUP3 ADD SWAP1 POP PUSH2 0x1417 PUSH1 0x0 DUP4 ADD DUP5 PUSH2 0x11D7 JUMP JUMPDEST SWAP3 SWAP2 POP POP JUMP JUMPDEST PUSH1 0x0 PUSH1 0x20 DUP3 ADD SWAP1 POP DUP2 DUP2 SUB PUSH1 0x0 DUP4 ADD MSTORE PUSH2 0x1437 DUP2 DUP5 PUSH2 0x11E6 JUMP JUMPDEST SWAP1 POP SWAP3 SWAP2 POP POP JUMP JUMPDEST PUSH1 0x0 PUSH1 0x20 DUP3 ADD SWAP1 POP DUP2 DUP2 SUB PUSH1 0x0 DUP4 ADD MSTORE PUSH2 0x1458 DUP2 PUSH2 0x121F JUMP JUMPDEST SWAP1 POP SWAP2 SWAP1 POP JUMP JUMPDEST PUSH1 0x0 PUSH1 0x20 DUP3 ADD SWAP1 POP DUP2 DUP2 SUB PUSH1 0x0 DUP4 ADD MSTORE PUSH2 0x1478 DUP2 PUSH2 0x1242 JUMP JUMPDEST SWAP1 POP SWAP2 SWAP1 POP JUMP JUMPDEST PUSH1 0x0 PUSH1 0x20 DUP3 ADD SWAP1 POP DUP2 DUP2 SUB PUSH1 0x0 DUP4 ADD MSTORE PUSH2 0x1498 DUP2 PUSH2 0x1265 JUMP JUMPDEST SWAP1 POP SWAP2 SWAP1 POP JUMP JUMPDEST PUSH1 0x0 PUSH1 0x20 DUP3 ADD SWAP1 POP DUP2 DUP2 SUB PUSH1 0x0 DUP4 ADD MSTORE PUSH2 0x14B8 DUP2 PUSH2 0x1288 JUMP JUMPDEST SWAP1 POP SWAP2 SWAP1 POP JUMP JUMPDEST PUSH1 0x0 PUSH1 0x20 DUP3 ADD SWAP1 POP DUP2 DUP2 SUB PUSH1 0x0 DUP4 ADD MSTORE PUSH2 0x14D8 DUP2 PUSH2 0x12AB JUMP JUMPDEST SWAP1 POP SWAP2 SWAP1 POP JUMP JUMPDEST PUSH1 0x0 PUSH1 0x20 DUP3 ADD SWAP1 POP DUP2 DUP2 SUB PUSH1 0x0 DUP4 ADD MSTORE PUSH2 0x14F8 DUP2 PUSH2 0x12CE JUMP JUMPDEST SWAP1 POP SWAP2 SWAP1 POP JUMP JUMPDEST PUSH1 0x0 PUSH1 0x20 DUP3 ADD SWAP1 POP DUP2 DUP2 SUB PUSH1 0x0 DUP4 ADD MSTORE PUSH2 0x1518 DUP2 PUSH2 0x12F1 JUMP JUMPDEST SWAP1 POP SWAP2 SWAP1 POP JUMP JUMPDEST PUSH1 0x0 PUSH1 0x20 DUP3 ADD SWAP1 POP DUP2 DUP2 SUB PUSH1 0x0 DUP4 ADD MSTORE PUSH2 0x1538 DUP2 PUSH2 0x1314 JUMP JUMPDEST SWAP1 POP SWAP2 SWAP1 POP JUMP JUMPDEST PUSH1 0x0 PUSH1 0x20 DUP3 ADD SWAP1 POP DUP2 DUP2 SUB PUSH1 0x0 DUP4 ADD MSTORE PUSH2 0x1558 DUP2 PUSH2 0x1337 JUMP JUMPDEST SWAP1 POP SWAP2 SWAP1 POP JUMP JUMPDEST PUSH1 0x0 PUSH1 0x20 DUP3 ADD SWAP1 POP DUP2 DUP2 SUB PUSH1 0x0 DUP4 ADD MSTORE PUSH2 0x1578 DUP2 PUSH2 0x135A JUMP JUMPDEST SWAP1 POP SWAP2 SWAP1 POP JUMP JUMPDEST PUSH1 0x0 PUSH1 0x20 DUP3 ADD SWAP1 POP DUP2 DUP2 SUB PUSH1 0x0 DUP4 ADD MSTORE PUSH2 0x1598 DUP2 PUSH2 0x137D JUMP JUMPDEST SWAP1 POP SWAP2 SWAP1 POP JUMP JUMPDEST PUSH1 0x0 PUSH1 0x20 DUP3 ADD SWAP1 POP PUSH2 0x15B4 PUSH1 0x0 DUP4 ADD DUP5 PUSH2 0x13A0 JUMP JUMPDEST SWAP3 SWAP2 POP POP JUMP JUMPDEST PUSH1 0x0 PUSH1 0x20 DUP3 ADD SWAP1 POP PUSH2 0x15CF PUSH1 0x0 DUP4 ADD DUP5 PUSH2 0x13AF JUMP JUMPDEST SWAP3 SWAP2 POP POP JUMP JUMPDEST PUSH1 0x0 DUP2 MLOAD SWAP1 POP SWAP2 SWAP1 POP JUMP JUMPDEST PUSH1 0x0 DUP3 DUP3 MSTORE PUSH1 0x20 DUP3 ADD SWAP1 POP SWAP3 SWAP2 POP POP JUMP JUMPDEST PUSH1 0x0 PUSH2 0x15FC DUP3 PUSH2 0x1697 JUMP JUMPDEST SWAP2 POP PUSH2 0x1607 DUP4 PUSH2 0x1697 JUMP JUMPDEST SWAP3 POP DUP3 PUSH32 0xFFFFFFFFFFFFFFFFFFFFFFFFFFFFFFFFFFFFFFFFFFFFFFFFFFFFFFFFFFFFFFFF SUB DUP3 GT ISZERO PUSH2 0x163C JUMPI PUSH2 0x163B PUSH2 0x1713 JUMP JUMPDEST JUMPDEST DUP3 DUP3 ADD SWAP1 POP SWAP3 SWAP2 POP POP JUMP JUMPDEST PUSH1 0x0 PUSH2 0x1652 DUP3 PUSH2 0x1677 JUMP JUMPDEST SWAP1 POP SWAP2 SWAP1 POP JUMP JUMPDEST PUSH1 0x0 DUP2 ISZERO ISZERO SWAP1 POP SWAP2 SWAP1 POP JUMP JUMPDEST PUSH1 0x0 PUSH2 0x1670 DUP3 PUSH2 0x1647 JUMP JUMPDEST SWAP1 POP SWAP2 SWAP1 POP JUMP JUMPDEST PUSH1 0x0 PUSH20 0xFFFFFFFFFFFFFFFFFFFFFFFFFFFFFFFFFFFFFFFF DUP3 AND SWAP1 POP SWAP2 SWAP1 POP JUMP JUMPDEST PUSH1 0x0 DUP2 SWAP1 POP SWAP2 SWAP1 POP JUMP JUMPDEST PUSH1 0x0 PUSH1 0xFF DUP3 AND SWAP1 POP SWAP2 SWAP1 POP JUMP JUMPDEST PUSH1 0x0 JUMPDEST DUP4 DUP2 LT ISZERO PUSH2 0x16CC JUMPI DUP1 DUP3 ADD MLOAD DUP2 DUP5 ADD MSTORE PUSH1 0x20 DUP2 ADD SWAP1 POP PUSH2 0x16B1 JUMP JUMPDEST DUP4 DUP2 GT ISZERO PUSH2 0x16DB JUMPI PUSH1 0x0 DUP5 DUP5 ADD MSTORE JUMPDEST POP POP POP POP JUMP JUMPDEST PUSH1 0x0 PUSH1 0x2 DUP3 DIV SWAP1 POP PUSH1 0x1 DUP3 AND DUP1 PUSH2 0x16F9 JUMPI PUSH1 0x7F DUP3 AND SWAP2 POP JUMPDEST PUSH1 0x20 DUP3 LT DUP2 EQ ISZERO PUSH2 0x170D JUMPI PUSH2 0x170C PUSH2 0x1742 JUMP JUMPDEST JUMPDEST POP SWAP2 SWAP1 POP JUMP JUMPDEST PUSH32 0x4E487B7100000000000000000000000000000000000000000000000000000000 PUSH1 0x0 MSTORE PUSH1 0x11 PUSH1 0x4 MSTORE PUSH1 0x24 PUSH1 0x0 REVERT JUMPDEST PUSH32 0x4E487B7100000000000000000000000000000000000000000000000000000000 PUSH1 0x0 MSTORE PUSH1 0x22 PUSH1 0x4 MSTORE PUSH1 0x24 PUSH1 0x0 REVERT JUMPDEST PUSH1 0x0 DUP1 REVERT JUMPDEST PUSH1 0x0 PUSH1 0x1F NOT PUSH1 0x1F DUP4 ADD AND SWAP1 POP SWAP2 SWAP1 POP JUMP JUMPDEST PUSH32 0x45524332303A207472616E7366657220746F20746865207A65726F2061646472 PUSH1 0x0 DUP3 ADD MSTORE PUSH32 0x6573730000000000000000000000000000000000000000000000000000000000 PUSH1 0x20 DUP3 ADD MSTORE POP JUMP JUMPDEST PUSH32 0x45524332303A206275726E20616D6F756E7420657863656564732062616C616E PUSH1 0x0 DUP3 ADD MSTORE PUSH32 0x6365000000000000000000000000000000000000000000000000000000000000 PUSH1 0x20 DUP3 ADD MSTORE POP JUMP JUMPDEST PUSH32 0x45524332303A20617070726F766520746F20746865207A65726F206164647265 PUSH1 0x0 DUP3 ADD MSTORE PUSH32 0x7373000000000000000000000000000000000000000000000000000000000000 PUSH1 0x20 DUP3 ADD MSTORE POP JUMP JUMPDEST PUSH32 0x45524332303A20696E73756666696369656E7420616C6C6F77616E6365000000 PUSH1 0x0 DUP3 ADD MSTORE POP JUMP JUMPDEST PUSH32 0x45524332303A207472616E7366657220616D6F756E7420657863656564732062 PUSH1 0x0 DUP3 ADD MSTORE PUSH32 0x616C616E63650000000000000000000000000000000000000000000000000000 PUSH1 0x20 DUP3 ADD MSTORE POP JUMP JUMPDEST PUSH32 0x6F6E6C792061646D696E00000000000000000000000000000000000000000000 PUSH1 0x0 DUP3 ADD MSTORE POP JUMP JUMPDEST PUSH32 0x45524332303A206275726E2066726F6D20746865207A65726F20616464726573 PUSH1 0x0 DUP3 ADD MSTORE PUSH32 0x7300000000000000000000000000000000000000000000000000000000000000 PUSH1 0x20 DUP3 ADD MSTORE POP JUMP JUMPDEST PUSH32 0x45524332303A207472616E736665722066726F6D20746865207A65726F206164 PUSH1 0x0 DUP3 ADD MSTORE PUSH32 0x6472657373000000000000000000000000000000000000000000000000000000 PUSH1 0x20 DUP3 ADD MSTORE POP JUMP JUMPDEST PUSH32 0x45524332303A20617070726F76652066726F6D20746865207A65726F20616464 PUSH1 0x0 DUP3 ADD MSTORE PUSH32 0x7265737300000000000000000000000000000000000000000000000000000000 PUSH1 0x20 DUP3 ADD MSTORE POP JUMP JUMPDEST PUSH32 0x45524332303A2064656372656173656420616C6C6F77616E63652062656C6F77 PUSH1 0x0 DUP3 ADD MSTORE PUSH32 0x207A65726F000000000000000000000000000000000000000000000000000000 PUSH1 0x20 DUP3 ADD MSTORE POP JUMP JUMPDEST PUSH32 0x45524332303A206D696E7420746F20746865207A65726F206164647265737300 PUSH1 0x0 DUP3 ADD MSTORE POP JUMP JUMPDEST PUSH2 0x1A83 DUP2 PUSH2 0x1647 JUMP JUMPDEST DUP2 EQ PUSH2 0x1A8E JUMPI PUSH1 0x0 DUP1 REVERT JUMPDEST POP JUMP JUMPDEST PUSH2 0x1A9A DUP2 PUSH2 0x1659 JUMP JUMPDEST DUP2 EQ PUSH2 0x1AA5 JUMPI PUSH1 0x0 DUP1 REVERT JUMPDEST POP JUMP JUMPDEST PUSH2 0x1AB1 DUP2 PUSH2 0x1665 JUMP JUMPDEST DUP2 EQ PUSH2 0x1ABC JUMPI PUSH1 0x0 DUP1 REVERT JUMPDEST POP JUMP JUMPDEST PUSH2 0x1AC8 DUP2 PUSH2 0x1697 JUMP JUMPDEST DUP2 EQ PUSH2 0x1AD3 JUMPI PUSH1 0x0 DUP1 REVERT JUMPDEST POP JUMP INVALID LOG2 PUSH5 0x6970667358 0x22 SLT KECCAK256 0xDE CREATE2 0xAC 0x21 0xBA 0x2B 0xE3 AND 0xAA EXTCODEHASH EQ 0x4A 0xB4 SLOAD DUP4 DUP16 0xC8 0x23 CALLDATASIZE 0x27 0xAA 0xC4 0xDE 0xBB CALLER 0xEB 0xE8 0x4D 0xEC REVERT SAR PUSH24 0x64736F6C6343000807003300000000000000000000000000 "
				},
				"gasEstimates": {
					"creation": {
						"codeDepositCost": "1384800",
						"executionCost": "infinite",
						"totalCost": "infinite"
					},
					"external": {
						"MyTransfer(address,address,uint256)": "infinite",
						"admin()": "2602",
						"allowance(address,address)": "infinite",
						"approve(address,uint256)": "infinite",
						"balanceOf(address)": "2886",
						"burn(uint256)": "infinite",
						"decimals()": "388",
						"decreaseAllowance(address,uint256)": "infinite",
						"increaseAllowance(address,uint256)": "infinite",
						"mint(address,uint256)": "infinite",
						"name()": "infinite",
						"symbol()": "infinite",
						"totalSupply()": "2505",
						"transfer(address,uint256)": "infinite",
						"transferFrom(address,address,uint256)": "infinite"
					}
				},
				"methodIdentifiers": {
					"MyTransfer(address,address,uint256)": "7df4d829",
					"admin()": "f851a440",
					"allowance(address,address)": "dd62ed3e",
					"approve(address,uint256)": "095ea7b3",
					"balanceOf(address)": "70a08231",
					"burn(uint256)": "42966c68",
					"decimals()": "313ce567",
					"decreaseAllowance(address,uint256)": "a457c2d7",
					"increaseAllowance(address,uint256)": "39509351",
					"mint(address,uint256)": "40c10f19",
					"name()": "06fdde03",
					"symbol()": "95d89b41",
					"totalSupply()": "18160ddd",
					"transfer(address,uint256)": "a9059cbb",
					"transferFrom(address,address,uint256)": "23b872dd"
				}
			},
			"storageLayout": {
				"storage": [
					{
						"astId": 97,
						"contract": "contracts/Token.sol:AITU_Nurislam",
						"label": "_balances",
						"offset": 0,
						"slot": "0",
						"type": "t_mapping(t_address,t_uint256)"
					},
					{
						"astId": 103,
						"contract": "contracts/Token.sol:AITU_Nurislam",
						"label": "_allowances",
						"offset": 0,
						"slot": "1",
						"type": "t_mapping(t_address,t_mapping(t_address,t_uint256))"
					},
					{
						"astId": 105,
						"contract": "contracts/Token.sol:AITU_Nurislam",
						"label": "_totalSupply",
						"offset": 0,
						"slot": "2",
						"type": "t_uint256"
					},
					{
						"astId": 107,
						"contract": "contracts/Token.sol:AITU_Nurislam",
						"label": "_name",
						"offset": 0,
						"slot": "3",
						"type": "t_string_storage"
					},
					{
						"astId": 109,
						"contract": "contracts/Token.sol:AITU_Nurislam",
						"label": "_symbol",
						"offset": 0,
						"slot": "4",
						"type": "t_string_storage"
					},
					{
						"astId": 6,
						"contract": "contracts/Token.sol:AITU_Nurislam",
						"label": "admin",
						"offset": 0,
						"slot": "5",
						"type": "t_address"
					}
				],
				"types": {
					"t_address": {
						"encoding": "inplace",
						"label": "address",
						"numberOfBytes": "20"
					},
					"t_mapping(t_address,t_mapping(t_address,t_uint256))": {
						"encoding": "mapping",
						"key": "t_address",
						"label": "mapping(address => mapping(address => uint256))",
						"numberOfBytes": "32",
						"value": "t_mapping(t_address,t_uint256)"
					},
					"t_mapping(t_address,t_uint256)": {
						"encoding": "mapping",
						"key": "t_address",
						"label": "mapping(address => uint256)",
						"numberOfBytes": "32",
						"value": "t_uint256"
					},
					"t_string_storage": {
						"encoding": "bytes",
						"label": "string",
						"numberOfBytes": "32"
					},
					"t_uint256": {
						"encoding": "inplace",
						"label": "uint256",
						"numberOfBytes": "32"
					}
				}
			},
			"userdoc": {
				"kind": "user",
				"methods": {},
				"version": 1
			}
		}
	}
}